040000009PA               000000000000000000000006000000000002R    PP000000000000000112 C       
064019326PA               000003855000000001000006000000000002R    PP000000000002792812 C       
064201747PA               000003855000000001000004606000000001R    PP000000000002845512 C       
064317993PA               000003856000000002000004606000000001R    PP000000000002862112 C       
064317993PA               000003856000000002000004605000000001R    PP000000000002862212 C       
080000318KA               000004200000000001000004316000000001R    KK000000000004620712 C       
080027358PA               000004201000000001000004605000000001R    PP000000000004684762 C       
080033054PA               000004201000000001000004315000000001R    PP000000000004692212 C       
082835423PA               000004191000000001000004315000000001R    PP000000000007566862 C       
082840416PA               000004191000000001000004325000000001R    PP000000000007571662 C       
082930027PA               000004149000000021000004325000000001R    PP000000000007682602 C       
082930027PA               000004149000000021000004368000000006R    PP000000000007682802 C       
082930172PA               000003855000000001000004368000000006R    PP000000000007685002 C       
082930172PA               000003855000000001000004606000000001R    PP000000000007685102 C       
083015206PA               000004148000000021000004606000000001R    PP000000000008136102 C       
083015206PA               000004148000000021000004368000000006R    PP000000000008136202 C       
083015279PA               000004190000000001000004368000000006R    PP000000000008137502 C       
083015279PA               000004190000000001000004326000000001R    PP000000000008137602 C       
083246081PA               000004201000000001000004326000000001R    PP000000000009537162 C       
083246082PA               000004201000000001000004315000000001R    PP000000000009537212 C       
083532217TA               000003465000000001000000000000000000R    TT000000000011124402 C       
083532217TA               000003465000000001000005071000000001R    TT000000000011124502 C       
090104783PA               000004115000000001000004315000000001R    PP000000000017791562 C       
090110420PA               000004148000000021000004315000000001R    PP000000000017808902 C       
090120291PA               000004190000000001000004315000000001R    PP000000000017863502 C       
090121470PA               000004201000000001000004315000000001R    PP000000000017890612 C       
092042222PA               000004190000000001000004315000000001R    PP000000000021079662 C       
092103199PA               000004201000000001000004315000000001R    PP000000000021226612 C       
092108240ZA               000004193000000001000000000000000000R    ZZ000000000021310102 C       
092108240ZA               000004193000000001000004269000000001R    ZZ000000000021310362 C       
092123327ZA               000004193000000001000000000000000000R    ZZ000000000021643862 C       
092123327ZA               000004193000000001000004257000000001R    ZZ000000000021644062 C       
092124642TA               000003465000000001000005066000000001R    TT000000000021666402 C       
092127005PA               000004201000000001000004304000000001R    PP000000000021673802 C       
092128005PA               000004201000000001000004267000000001R    PP000000000021680102 C       
092147681PA               000004201000000001000004256000000001R    PP000000000021723812 C       
092249387ZA               000004193000000001000000000000000000R    ZZ000000000021869502 C       
092249387ZA               000004193000000001000004269000000001R    ZZ000000000021869602 C       
092355436ZA               000004193000000001000000000000000000R    ZZ000000000022299102 C       
092355436ZA               000004193000000001000004256000000001R    ZZ000000000022299302 C       
092448988ZA               000000000000000000000004256000000001R    ZZ000000000022513802 C       
092448988ZA               000004201000000001000004256000000001R    ZZ000000000022514002 C       
092520645ZA               000000000000000000000004256000000001R    ZZ000000000022753502 C       
092520720ZA               000000000000000000000000000000000000R    ZZ000000000022755202 C       
092556390TA               000004201000000001000005066000000001R    TT000000000023151002 C       
092556390TA               000004201000000001000004256000000001R    TT000000000023151102 C       
092557087ZA               000004201000000001000000000000000000R    ZZ000000000023182102 C       
092557088ZA               000004201000000001000004256000000001R    ZZ000000000023182202 C       
092557395KA               000004200000000001000004256000000001R    KK000000000023209102 C       
092557395KA               000004201000000001000004256000000001R    KK000000000023209202 C       
092557500PA               000004201000000002000004256000000001R    PP000000000023232562 C       
092557500PA               000004201000000002000004256000000002R    PP000000000023232612 C       
092800128PA               000004201000000002000004255000000001R    PP000000000023848612 C       
092800128PA               000004202000000001000004255000000001R    PP000000000023848712 C       
092800128KA               000004202000000001000004255000000001R    KK000000000023849102 C       
092800128ZA               000004202000000001000004256000000001R    ZZ000000000023849202 C       
092800128ZA               000004202000000001000004255000000001R    ZZ000000000023849302 C       
092800128TA               000004201000000001000004255000000001R    TT000000000023849802 C       
092800128TA               000004202000000001000004255000000001R    TT000000000023849902 C       
092817670PA               000004203000000001000004255000000001R    PP000000000024569962 C       
092822365PA               000004203000000001000004254000000001R    PP000000000024792712 C       
092822366PA               000004204000000001000004254000000001R    PP000000000024792812 C       
092822366PA               000004204000000001000004253000000001R    PP000000000024792912 C       
092855809PA               000004205000000001000004253000000001R    PP000000000025073412 C       
092900416YA               000000000000000000000004338000000001R    YY000000000025106802 C       
092900416YA               000004121000000001000004338000000001R    YY000000000025106902 C       
092902470PA               000004205000000001000004252000000001R    PP000000000025156412 C       
092902470PA               000004206000000001000004252000000001R    PP000000000025156512 C       
092902470PA               000004206000000001000004251000000001R    PP000000000025156612 C       
092928024PA               000004207000000001000004251000000001R    PP000000000025720612 C       
092929728PA               000004207000000001000004250000000001R    PP000000000025737012 C       
092929728PA               000004208000000001000004250000000001R    PP000000000025737112 C       
092929729PA               000004208000000001000004249000000001R    PP000000000025737212 C       
092940902PA               000004208000000001000004248000000001R    PP000000000026000912 C       
092940902PA               000004209000000001000004248000000001R    PP000000000026001012 C       
092945007PA               000004210000000001000004248000000001R    PP000000000026218612 C       
092945007PA               000004210000000001000004247000000001R    PP000000000026218912 C       
092945007PA               000004210000000001000004246000000001R    PP000000000026220412 C       
092945008PA               000004211000000001000004246000000001R    PP000000000026220812 C       
093000003PA               000004211000000002000004246000000001R    PP000000000026916812 C       
093000004PA               000004211000000002000004246000000002R    PP000000000026918312 C       
093000010TA               000004202000000002000004255000000001R    TT000000000026944102 C       
093000057JA               000003538000000001000000000000000000R    JJ000000000027036002 C       
093000058JA               000003538000000001000004925000000001R    JJ000000000027036802 C       
093001008NA               000004219000000002000004229000000004O    NN000000000027482812 C       
093001008ZA               000004201000000001000004256000000001R    ZZ000000000027491302 C       
093001009TA               000004202000000002000004256000000001R    TT000000000027492902 C       
093001009TA               000004202000000001000004256000000001R    TT000000000027493802 C       
093001010KA               000004202000000001000004256000000001R    KK000000000027505502 C       
093001011PA               000004211000000002000004246000000001R    PP000000000027508802 C       
093001011KA               000004201000000001000004256000000001R    KK000000000027514802 C       
093001013BA               000004218000000002000000000000000000R    BB000000000027527302 C       
093001014TA               000004218000000002000004256000000001R    TT000000000027527502 C       
093001014YA               000004218000000002000004252000000002R    YY000000000027528002 C       
093001014TA               000004218000000002000004252000000002R    TT000000000027528202 C       
093001014BA               000004218000000002000004252000000002R    BB000000000027528302 C       
093001014ZA               000004218000000002000004256000000001R    ZZ000000000027528402 C       
093001014PA               000004218000000002000004246000000001R    PP000000000027529102 C       
093001014ZA               000004218000000002000004252000000002R    ZZ000000000027529202 C       
093001014ZA               000004218000000003000004252000000002R    ZZ000000000027529402 C       
093001014JA               000004218000000002000004252000000002R    JJ000000000027529702 C       
093001014TA               000004218000000003000004252000000002R    TT000000000027530502 C       
093001014ZA               000004218000000003000004252000000003R    ZZ000000000027530802 C       
093001014TA               000004218000000003000004252000000003R    TT000000000027530902 C       
093001014PA               000004218000000003000004246000000001R    PP000000000027531402 C       
093001017NA               000004219000000002000004229000000004O    NN000000000027548702AC     EA
093001017TA               000004218000000006000004252000000003R    TT000000000027551202 C       
093001018KA               000004201000000001000004252000000002R    KK000000000027552102 C       
093001018KA               000004218000000002000004252000000002R    KK000000000027554802 C       
093001022NA               000004219000000002000004241000000002R    NN000000000027569312 C       
093001036NA               000004220000000001000004241000000002R    NN000000000027617312 C       
093001041DA               000004005000000001000000000000000000RFLOWDD000000000027626901AC      A
093001047DA               000004005000000001000005000000000001RFLOWDD000000000027639601AC      A
093001050DA               000004005000000001000004300000000008RFLOWDD000000000027644901AC      A
093001061PA               000004218000000003000004252000000003R    PP000000000027698900 C       
093001064NA               000004220000000002000004241000000002R    NN000000000027708110 C       
093001066PA               000004218000000003000004252000000002R    PP000000000027714300 C       
093001074DA               000004005000000001000004300000000012RFLOWDD000000000027731301AC      A
093001250NA               000004220000000002000004240000000006R    NN000000000027903310 C       
093001251NA               000004220000000001000004240000000006R    NN000000000027904910 C       
093001252TA               000004218000000004000004252000000003R    TT000000000027905800 C       
093001252BA               000004205000000002000004252000000002R    BB000000000027906000 C       
093001252PA               000004218000000001000004252000000002R    PP000000000027906400 C       
093001252JA               000004205000000002000004252000000002R    JJ000000000027906500 C       
093001252KA               000004206000000001000004252000000002R    KK000000000027906600 C       
093001252ZA               000004218000000001000004252000000003R    ZZ000000000027906800 C       
093001252ZA               000004205000000002000004252000000003R    ZZ000000000027906900 C       
093001252YA               000004205000000002000004252000000002R    YY000000000027907000 C       
093001252PA               000004207000000001000004252000000002R    PP000000000027907100 C       
093001254NA               000004219000000002000004240000000006R    NN000000000027908510 C       
093001331JA               000004205000000002000004242000000001R    JJ000000000027943300 C       
093001331YA               000004205000000002000004242000000008R    YY000000000027943400 C       
093001331JA               000004205000000002000004242000000002R    JJ000000000027943500 C       
093001331YA               000004205000000002000004242000000009R    YY000000000027943600 C       
093001331BA               000004205000000002000004245000000007R    BB000000000027943700 C       
093001331BA               000004205000000002000004245000000008R    BB000000000027943800 C       
093001333DA               000004005000000001000004242000000017RFLOWDD000000000027944301AC      A
093001343NA               000004215000000006000004240000000006R    NN000000000027952260 C       
093001378NA               000004215000000007000004240000000006R    NN000000000027967000 C       
093001458ZA               000004225000000002000004252000000003R    ZZ000000000027994760 C       
093001458ZA               000004225000000003000004252000000003R    ZZ000000000027994860 C       
093001523NA               000004215000000007000004240000000007R    NN000000000028009460 C       
093001530NA               000004215000000001000004240000000007R    NN000000000028013300 C       
093001539PA               000004220000000001000004252000000002R    PP000000000028015400 C       
093001546XA               000000000000000000000004242000000018R    XX000000000028022900 C       
093001548NA               000004215000000001000004240000000007R    NN000000000028030800 C       
093001605KA               000004205000000002000004252000000002R    KK000000000028061000 C       
093001605YA               000004205000000002000004242000000008R    YY000000000028061100 C       
093001605JA               000004205000000002000004242000000001R    JJ000000000028061200 C       
093001605ZA               000004225000000002000004252000000003R    ZZ000000000028061460 C       
093001626TA               000004220000000001000004252000000003R    TT000000000028068800 C       
093001627TA               000004220000000002000004252000000003R    TT000000000028068900 C       
093001628TA               000004220000000005000004252000000003R    TT000000000028069600 C       
093001691JA               000004208000000001000004242000000001R    JJ000000000028084900 C       
093001691BA               000004205000000009000004245000000008R    BB000000000028085300 C       
093001731YA               000004218000000008000004242000000008R    YY000000000028108400 C       
093001731JA               000004218000000001000004242000000001R    JJ000000000028108600 C       
093001731YA               000004218000000009000004242000000008R    YY000000000028108700 C       
093001732XA               000004208000000018000004242000000018R    XX000000000028110000 C       
093001733DA               000004218000000017000004242000000017RFLOWDD000000000028110301AC      A
093001793KA               000004215000000001000004252000000002R    KK000000000028153800 C       
093001946KA               000004220000000001000004252000000002R    KK000000000028221300 C       
093001947PA               000004220000000002000004252000000002R    PP000000000028221600 C       
093002038NA               000004215000000001000004240000000007R    NN000000000028291800ACB     A
093002250ZA               000004213000000002000004252000000003R    ZZ000000000028379060 C       
093002251NA               000004215000000001000004240000000007R    NN000000000028380000ACC     A
093002255ZA               000004218000000002000004252000000003R    ZZ000000000028381100 C       
093002255ZA               000004218000000003000004252000000003R    ZZ000000000028381200 C       
093002370YA               000004218000000001000004242000000008R    YY000000000028411900 C       
093002370YA               000004205000000002000004242000000008R    YY000000000028412000 C       
093002370JA               000004208000000001000004242000000001R    JJ000000000028412100 C       
093002370ZA               000004218000000002000004252000000003R    ZZ000000000028412200 C       
093002371TA               000004220000000004000004252000000003R    TT000000000028412360 C       
093002372DA               000004005000000001000004242000000017RFLOWDD000000000028412701AC      A
093003001NA               000004215000000001000004240000000007R    NN000000000028523300ACA     A
093003048NA               000004215000000001000004240000000007R    NN000000000028545300ACC     A
093003170YA               000004213000000008000004242000000008R    YY000000000028594700 C       
093003172DA               000004213000000016000004242000000017RFLOWDD000000000028594801AC      A
093003174ZA               000004213000000002000004252000000003R    ZZ000000000028595000 C       
093003188ZA               000004225000000002000004252000000003R    ZZ000000000028597760 C       
093003188ZA               000004225000000003000004252000000003R    ZZ000000000028597960 C       
093003189NA               000004215000000001000004240000000007R    NN000000000028598500ACB     A
093003189NA               000004215000000001000004240000000007R    NN000000000028598800 C       
093003190NA               000004216000000003000004240000000007R    NN000000000028599000 C       
093003190NA               000004216000000006000004240000000007R    NN000000000028599100 C       
093003190NA               000004216000000009000004240000000007R    NN000000000028599200 C       
093003191NA               000004216000000010000004240000000007R    NN000000000028599300 C       
093003212NA               000004216000000010000004240000000007R    NN000000000028605900ACB     A
093003970ZA               000004225000000002000004252000000003R    ZZ000000000028861960 C       
093003972DA               000004005000000001000004242000000017RFLOWDD000000000028862401AC      A
093004090YA               000004205000000002000004242000000008R    YY000000000028903400 C       
093004094TA               000004220000000005000004252000000003R    TT000000000028904100 C       
093004132ZA               000004225000000001000004252000000003R    ZZ000000000028917660 C       
093004180NA               000004216000000010000004240000000008R    NN000000000028936560ACB     A
093004243PA               000004220000000003000004252000000002R    PP000000000028950900 C       
093004772DA               000004218000000016000004242000000017RFLOWDD000000000029045701AC      A
093004890YA               000004218000000008000004242000000008R    YY000000000029067400 C       
093004890YA               000004218000000009000004242000000008R    YY000000000029067500 C       
093004890JA               000004218000000001000004242000000001R    JJ000000000029067600 C       
093004968NA               000004216000000010000004239000000016R    NN000000000029076960ACB     A
093004968NA               000004216000000010000004239000000016R    NN000000000029077100 C       
093004969NA               000004216000000010000004239000000016R    NN000000000029077200ACB     A
093004980NA               000004216000000010000004238000000001R    NN000000000029078660ACB     A
093004981JA               000004208000000001000004242000000001R    JJ000000000029078700 C       
093004981NA               000004216000000010000004238000000001R    NN000000000029078800 C       
093004981YA               000004218000000008000004242000000008R    YY000000000029078900 C       
093004981NA               000004216000000010000004238000000001R    NN000000000029079000ACB     A
093005002PA               000004220000000003000004242000000001R    PP000000000029082300 C       
093005002BA               000004205000000009000004242000000001R    BB000000000029082400 C       
093005002BA               000004205000000009000004242000000002R    BB000000000029082900 C       
093005003PA               000004220000000003000004242000000002R    PP000000000029084000 C       
093005004PA               000004225000000001000004242000000002R    PP000000000029085700 C       
093005005PA               000004225000000002000004242000000002R    PP000000000029086160 C       
093005005NA               000004216000000010000004238000000001R    NN000000000029086400ACC     A
093005006NA               000004225000000001000004238000000001R    NN000000000029086800ACC     A
093005006NA               000004225000000002000004238000000001R    NN000000000029088100ACC     A
093005007NA               000004226000000001000004238000000001R    NN000000000029088210ACC     A
093005007NA               000004226000000002000004238000000001R    NN000000000029088910ACC     A
093005008BA               000004218000000002000004242000000002R    BB000000000029089100 C       
093005008NA               000004226000000002000004238000000001R    NN000000000029089200ACB     A
093005008YA               000004218000000010000004242000000008R    YY000000000029089300 C       
093005008JA               000004218000000002000004242000000001R    JJ000000000029089400 C       
093005008BA               000004218000000003000004242000000002R    BB000000000029089500 C       
093005008NA               000004226000000002000004238000000001R    NN000000000029089700ACC     A
093005013BA               000004218000000003000004242000000001R    BB000000000029093100 C       
093005013BA               000004218000000003000004245000000008R    BB000000000029093200 C       
093005015PA               000004225000000002000004242000000001R    PP000000000029095600 C       
093005015PA               000004225000000002000004252000000002R    PP000000000029096200 C       
093005016PA               000004225000000001000004252000000002R    PP000000000029096400 C       
093005016PA               000004220000000003000004252000000002R    PP000000000029096500 C       
093005027PA               000004226000000001000004252000000002R    PP000000000029106800 C       
093005027BA               000004226000000001000004245000000008R    BB000000000029107300 C       
093005028BA               000004226000000002000004245000000008R    BB000000000029107400 C       
093005050YA               000004218000000010000004242000000008R    YY000000000029116500ACA     A
093005127BA               000004226000000001000004245000000008R    BB000000000029131900 C       
093005334PA               000004226000000001000004242000000001R    PP000000000029177200 C       
093005335PA               000004226000000001000004242000000002R    PP000000000029177300 C       
093005338BA               000004226000000001000004242000000001R    BB000000000029177900 C       
093005338BA               000004226000000001000004242000000002R    BB000000000029178000 C       
093005484MA               000000000000000000000004242000000007R    MM000000000029205700 C       
093005536MA               000004219000000007000004242000000007R    MM000000000029220600 C       
093005628TA               000004220000000004000004252000000003R    TT000000000029237200 C       
093005628BA               000004226000000001000004242000000001R    BB000000000029237300 C       
093005881TA               000004220000000004000004248000000001R    TT000000000029287900 C       
093005881TA               000004220000000004000004248000000002R    TT000000000029288000 C       
093006011NA               000004226000000001000004238000000001R    NN000000000029326460ACC     A
093006015PA               000004220000000003000004242000000002R    PP000000000029328060 C       
093006015BA               000004218000000003000004242000000001R    BB000000000029328160 C       
093006015PA               000004220000000003000004242000000001R    PP000000000029328200 C       
093006018NA               000004219000000001000004238000000001R    NN000000000029329260ACC     A
093006019ZA               000004221000000001000004252000000003R    ZZ000000000029329460 C       
093006019BA               000004218000000001000004242000000001R    BB000000000029329500 C       
093006019YA               000004218000000008000004242000000008R    YY000000000029329600ACA     A
093006019BA               000004205000000009000004242000000001R    BB000000000029329700 C       
093006019JA               000004208000000001000004242000000001R    JJ000000000029329800 C       
093006020BA               000004221000000001000004242000000001R    BB000000000029330000 C       
093006021PA               000004221000000001000004242000000001R    PP000000000029331400 C       
093006021PA               000004221000000002000004242000000001R    PP000000000029331760 C       
093006025ZA               000004226000000001000004252000000003R    ZZ000000000029335360 C       
093006025ZA               000004226000000002000004252000000003R    ZZ000000000029335760 C       
093006026PA               000004221000000001000004242000000001R    PP000000000029337700 C       
093006026PA               000004220000000003000004242000000001R    PP000000000029338200 C       
093006026BA               000004205000000009000004242000000001R    BB000000000029338600 C       
093006069YA               000004218000000008000004242000000008R    YY000000000029359500 C       
093006070YA               000004218000000008000004242000000008R    YY000000000029359600ACB     A
093006070NA               000004219000000001000004238000000001R    NN000000000029359800ACB     A
093006553PA               000004226000000001000004242000000001R    PP000000000029450600 C       
093006554PA               000004226000000002000004242000000001R    PP000000000029450700 C       
093006554NA               000004219000000001000004238000000001R    NN000000000029450900ACC     A
093006554BA               000004218000000002000004242000000001R    BB000000000029451000 C       
093006554JA               000004218000000002000004242000000001R    JJ000000000029451100 C       
093006555YA               000004218000000010000004242000000008R    YY000000000029451200ACB     A
093006555BA               000004218000000003000004242000000001R    BB000000000029451300 C       
093006555BA               000004226000000001000004242000000001R    BB000000000029451400 C       
093006555NA               000004219000000006000004238000000001R    NN000000000029451500ACC     A
093006555ZA               000004226000000001000004252000000003R    ZZ000000000029451660 C       
093006555NA               000004219000000011000004238000000001R    NN000000000029451700ACC     A
093006555NA               000004219000000016000004238000000001R    NN000000000029451800ACC     A
093006555NA               000004219000000020000004238000000001R    NN000000000029451900ACC     A
093007043NA               000004227000000001000004238000000001R    NN000000000029531110ACC     A
093007044NA               000004227000000002000004238000000001R    NN000000000029531310ACC     A
093007044NA               000004227000000002000004238000000001R    NN000000000029531400ACB     A
093007044NA               000004227000000002000004238000000001R    NN000000000029531500ACC     A
093007044PA               000004226000000002000004252000000002R    PP000000000029531600 C       
093007044PA               000004226000000001000004252000000002R    PP000000000029531800 C       
093007044BA               000004226000000001000004245000000008R    BB000000000029531900 C       
093007044BA               000004218000000003000004245000000008R    BB000000000029532000 C       
093007045PA               000004220000000003000004252000000002R    PP000000000029532200 C       
093008106TA               000004220000000003000004248000000002R    TT000000000029721100 C       
093008106TA               000004222000000001000004248000000002R    TT000000000029721200 C       
093008106TA               000004222000000002000004248000000002R    TT000000000029721300 C       
093008108TA               000004222000000005000004248000000002R    TT000000000029721400 C       
093008653PA               000004220000000002000004252000000002R    PP000000000029752100 C       
093008655TA               000004222000000006000004248000000002R    TT000000000029752200 C       
093008657KA               000004222000000001000004252000000002R    KK000000000029752300 C       
093009121NA               000004227000000001000004238000000001R    NN000000000029861010ACC     A
093009122ZA               000004218000000002000004252000000003R    ZZ000000000029861200 C       
093009122NA               000004227000000001000004238000000001R    NN000000000029861300ACB     A
093009126NA               000004222000000005000004238000000001R    NN000000000029861760ACB     A
093009126NA               000004222000000005000004238000000001R    NN000000000029861800ACC     A
093009127BA               000004218000000001000004245000000008R    BB000000000029862000 C       
093009127YA               000004218000000008000004242000000008R    YY000000000029862100ACB     A
093009127ZA               000004213000000002000004252000000003R    ZZ000000000029862300 C       
093009127BA               000004205000000009000004245000000008R    BB000000000029862400 C       
093009127PA               000004222000000001000004252000000002R    PP000000000029862500 C       
093009127JA               000004208000000001000004242000000001R    JJ000000000029862600 C       
093009127BA               000004222000000001000004245000000008R    BB000000000029862700 C       
093009127ZA               000004227000000001000004252000000003R    ZZ000000000029862860 C       
093009127PA               000004222000000002000004252000000002R    PP000000000029862900 C       
093009127ZA               000004227000000002000004252000000003R    ZZ000000000029863060 C       
093009127PA               000004222000000001000004252000000002R    PP000000000029863200 C       
093009127BA               000004205000000009000004245000000008R    BB000000000029863300 C       
093009128PA               000004220000000002000004252000000002R    PP000000000029863400 C       
093009128NA               000004222000000005000004238000000001R    NN000000000029863500ACB     A
093009189YA               000004218000000008000004242000000008R    YY000000000029883100 C       
093009190YA               000004218000000008000004242000000008R    YY000000000029883200ACA     A
093009190NA               000004222000000005000004238000000001R    NN000000000029883400ACC     A
093009211XA               000000000000000000000004242000000018R    XX000000000029890200 C       
093009218NA               000004222000000005000004240000000006R    NN000000000029891060ACC     A
093009218NA               000004222000000005000004240000000007R    NN000000000029891160ACC     A
093009249YA               000004218000000008000004242000000008R    YY000000000029902200 C       
093009249YA               000004218000000008000004242000000008R    YY000000000029902300ACB     A
093009249NA               000004222000000005000004240000000007R    NN000000000029902400ACB     A
093009284NA               000004222000000005000004240000000007R    NN000000000029912200ACB     A
093009300NA               000004219000000001000004240000000007R    NN000000000029914200ACB     A
093009301ZA               000004227000000001000004252000000003R    ZZ000000000029914360 C       
093009756PA               000004227000000001000004252000000002R    PP000000000029980400 C       
093009757NA               000004227000000001000004240000000007R    NN000000000029980500ACB     A
093009757NA               000004227000000001000004240000000007R    NN000000000029980600ACC     A
093009757NA               000004227000000002000004240000000007R    NN000000000029980710ACC     A
093009758BA               000004219000000002000004245000000008R    BB000000000029981100 C       
093009758JA               000004219000000002000004242000000001R    JJ000000000029981200 C       
093009758YA               000004219000000002000004242000000008R    YY000000000029981300ACB     A
093009758JA               000004219000000003000004242000000001R    JJ000000000029981400 C       
093009758YA               000004219000000003000004242000000008R    YY000000000029981500ACB     A
093009789YA               000004219000000003000004242000000008R    YY000000000029985500ACC     A
093009789YA               000004219000000003000004242000000008R    YY000000000029985600ACA     A
093009790YA               000004219000000003000004242000000008R    YY000000000029985800ACC     A
093010111XA               000004220000000017000004242000000018R    XX000000000030084700 C       
093010112NA               000004227000000001000004240000000007R    NN000000000030087760ACC     A
093010270TA               000004222000000007000004248000000002R    TT000000000030144500 C       
093010760PA               000004227000000001000004242000000001R    PP000000000030214900 C       
093010760PA               000004227000000001000004242000000002R    PP000000000030215400 C       
093010760BA               000004219000000002000004242000000001R    BB000000000030215500 C       
093010761BA               000004219000000002000004242000000002R    BB000000000030215900 C       
093011832NA               000004227000000001000004240000000014R    NN000000000030379660ACC     A
093011838NA               000004227000000001000004240000000015R    NN000000000030380260ACC     A
093011889YA               000004219000000003000004242000000008R    YY000000000030383100ACB     A
093013891YA               000004219000000002000004242000000008R    YY000000000030594800ACB     A
093013891JA               000004219000000002000004242000000001R    JJ000000000030594900 C       
093013892DA               000004005000000001000004242000000017RFLOWDD000000000030595401AC      A
093014752DA               000004217000000015000004242000000017RFLOWDD000000000030717101AC      A
093014840JA               000004220000000001000004242000000001R    JJ000000000030726900 C       
093019244YA               000004227000000001000004242000000008R    YY000000000031213100ACB     A
093019244JA               000004227000000001000004242000000001R    JJ000000000031213200 C       
093019244YA               000004227000000002000004242000000008R    YY000000000031213360ACB     A
093019270YA               000004227000000002000004242000000008R    YY000000000031214100ACC     A
093019270YA               000004227000000002000004242000000008R    YY000000000031214200ACA     A
093020696TA               000004222000000008000004248000000002R    TT000000000031346000 C       
093027043PA               000004227000000001000004242000000001R    PP000000000031871000 C       
093027043BA               000004219000000002000004242000000001R    BB000000000031871100 C       
093027043BA               000004219000000002000004245000000008R    BB000000000031871200 C       
093027043JA               000004220000000001000004242000000001R    JJ000000000031871300 C       
093027043PA               000004227000000001000004240000000001R    PP000000000031871400 C       
093027043YA               000004227000000001000004242000000008R    YY000000000031871560ACA     A
093027043BA               000004219000000002000004240000000001R    BB000000000031871600 C       
093027048NA               000004227000000001000004240000000014R    NN000000000031871960ACC     A
093027048NA               000004227000000001000004239000000001R    NN000000000031872160ACC     A
093027048NA               000004227000000001000004239000000001R    NN000000000031872300ACA     A
093027048NA               000004227000000001000004239000000001R    NN000000000031872500ACC     A
093027070YA               000004227000000001000004242000000008R    YY000000000031874400ACC     A
093027070YA               000004227000000001000004242000000008R    YY000000000031874500ACB     A
093027323YA               000004219000000002000004242000000008R    YY000000000031906300ACB     A
093027364TA               000004226000000001000004248000000002R    TT000000000031911400 C       
093027364TA               000004226000000002000004248000000002R    TT000000000031911500 C       
093027364YA               000004219000000005000004242000000008R    YY000000000031911600ACB     A
093027366TA               000004226000000005000004248000000002R    TT000000000031911800 C       
093032655TA               000004226000000004000004248000000002R    TT000000000032858000 C       
093032655BA               000004217000000006000004240000000001R    BB000000000032858100 C       
093032656YA               000004219000000003000004242000000008R    YY000000000032858200ACB     A
093032656NA               000004227000000001000004239000000008R    NN000000000032858360ACC     A
093032656TA               000004226000000001000004248000000002R    TT000000000032858400 C       
093032657TA               000004226000000003000004248000000002R    TT000000000032858500 C       
093032754BA               000004219000000002000004240000000001R    BB000000000032863500 C       
093032754BA               000004219000000003000004240000000001R    BB000000000032863600 C       
093032754YA               000004219000000005000004242000000008R    YY000000000032863700ACB     A
093032755TA               000004226000000001000004248000000002R    TT000000000032864000 C       
093032756TA               000004226000000002000004248000000002R    TT000000000032864200 C       
093032874BA               000004219000000001000004240000000001R    BB000000000032871800 C       
093032874YA               000004219000000003000004242000000008R    YY000000000032871900ACB     A
093032874BA               000004217000000006000004240000000001R    BB000000000032872000 C       
093032874TA               000004226000000001000004248000000002R    TT000000000032872100 C       
093033009TA               000004226000000004000004248000000002R    TT000000000032881100 C       
093033010PA               000004227000000001000004252000000002R    PP000000000032881500 C       
093033010BA               000004217000000006000004245000000008R    BB000000000032881600 C       
093033010PA               000004227000000001000004235000000001R    PP000000000032881860 C       
093033010PA               000004227000000001000004235000000002R    PP000000000032882060 C       
093033011NA               000004227000000001000004239000000008R    NN000000000032882500ACA     A
093033013BA               000004217000000006000004235000000001R    BB000000000032883700 C       
093033013BA               000004217000000006000004235000000002R    BB000000000032883800 C       
093033014NA               000004227000000001000004239000000008R    NN000000000032884100ACC     A
093033017NA               000004227000000001000004239000000007R    NN000000000032885700ACC     A
093033063TA               000004226000000001000004248000000002R    TT000000000032919200 C       
093033063BA               000004217000000006000004235000000001R    BB000000000032919300 C       
093033324PA               000004227000000001000004235000000001R    PP000000000032997760 C       
093033324TA               000004222000000005000004248000000002R    TT000000000032997800 C       
093033325TA               000004222000000006000004248000000002R    TT000000000032998000 C       
093033360YA               000004217000000007000004242000000008R    YY000000000033012200ACB     A
093033365KA               000004224000000001000004252000000002R    KK000000000033013800 C       
093034012BA               000004217000000006000004245000000008R    BB000000000033088360 C       
093034013NA               000004227000000001000004239000000007R    NN000000000033088400ACA     A
093034014PA               000004227000000001000004252000000002R    PP000000000033088660 C       
093034015BA               000004219000000002000004245000000008R    BB000000000033089100 C       
093034015NA               000004227000000001000004239000000007R    NN000000000033089200ACC     A
093034015BA               000004219000000003000004245000000008R    BB000000000033089300 C       
093034015YA               000004219000000002000004242000000008R    YY000000000033089400ACB     A
093034015YA               000004219000000003000004242000000008R    YY000000000033089500ACB     A
093034130NA               000004227000000001000004239000000009R    NN000000000033101460ACC     A
093034131BA               000004219000000001000004245000000008R    BB000000000033101500 C       
093034131YA               000004219000000001000004242000000008R    YY000000000033101600ACB     A
093034131BA               000004217000000006000004245000000008R    BB000000000033101700 C       
093034131YA               000004217000000007000004242000000008R    YY000000000033101800ACB     A
093035054BA               000004219000000002000004245000000008R    BB000000000033304600 C       
093035054YA               000004219000000002000004242000000008R    YY000000000033304700ACB     A
093035150BA               000004217000000006000004245000000008R    BB000000000033315500 C       
093035150YA               000004217000000007000004242000000008R    YY000000000033315600ACB     A
093035308KA               000004222000000001000004252000000002R    KK000000000033333700 C       
093035321NA               000004227000000001000004239000000008R    NN000000000033334960ACC     A
093035347YA               000004227000000001000004242000000008R    YY000000000033337300ACB     A
093035348YA               000004227000000002000004242000000008R    YY000000000033337460ACB     A
093035348JA               000004227000000001000004242000000001R    JJ000000000033337500 C       
093035900JA               000004220000000001000004242000000001R    JJ000000000033384800 C       
093035900YA               000004227000000001000004242000000008R    YY000000000033384960ACB     A
093036024PA               000004227000000001000004238000000001R    PP000000000033394660 C       
093036024PA               000004227000000001000004238000000002R    PP000000000033394760 C       
093036038NA               000004227000000001000004238000000001R    NN000000000033398100ACC     A
093036040BA               000004217000000006000004238000000001R    BB000000000033399200 C       
093036040BA               000004217000000006000004238000000002R    BB000000000033399300 C       
093036040YA               000004227000000001000004238000000001R    YY000000000033399400ACB     A
093036040YA               000004227000000001000004238000000002R    YY000000000033399600ACB     A
093036040JA               000004220000000001000004238000000001R    JJ000000000033399700 C       
093036054BA               000004218000000002000004238000000002R    BB000000000033401800 C       
093036054BA               000004218000000003000004238000000002R    BB000000000033401900 C       
093036072PA               000004227000000001000004238000000001R    PP000000000033404660 C       
093036073JA               000004220000000001000004242000000001R    JJ000000000033404800 C       
093036073YA               000004227000000001000004238000000001R    YY000000000033404960ACB     A
093036073BA               000004218000000003000004238000000001R    BB000000000033405060 C       
093036081NA               000004228000000001000004238000000001R    NN000000000033405460ACC     A
093036081NA               000004228000000002000004238000000001R    NN000000000033405660ACC     A
093036082NA               000004228000000002000004238000000001R    NN000000000033405700ACB     A
093036082PA               000004222000000001000004238000000001R    PP000000000033405860 C       
093036082NA               000004228000000002000004238000000001R    NN000000000033405900ACC     A
093036082BA               000004218000000003000004245000000008R    BB000000000033406000 C       
093036082ZA               000004218000000003000004252000000003R    ZZ000000000033406100 C       
093036082YA               000004227000000001000004242000000008R    YY000000000033406260ACB     A
093036082ZA               000004218000000002000004252000000003R    ZZ000000000033406300 C       
093036085ZA               000004228000000001000004252000000003R    ZZ000000000033406400 C       
093036085ZA               000004228000000002000004252000000003R    ZZ000000000033406500 C       
093036087PA               000004222000000004000004238000000001R    PP000000000033406660 C       
093036100YA               000004227000000001000004242000000008R    YY000000000033408100ACC     A
093036100YA               000004227000000001000004242000000008R    YY000000000033408200ACA     A
093036101YA               000004227000000001000004242000000008R    YY000000000033408300ACC     A
093036807ZA               000004228000000001000004252000000003R    ZZ000000000033471800 C       
093036807NA               000004228000000001000004238000000001R    NN000000000033471960ACC     A
093036807NA               000004228000000001000004239000000008R    NN000000000033472000ACC     A
093036807NA               000004228000000001000004238000000001R    NN000000000033472100ACC     A
093036811NA               000004222000000005000004238000000001R    NN000000000033472300ACC     A
093036812BA               000004218000000001000004245000000008R    BB000000000033472500 C       
093036812BA               000004217000000006000004245000000008R    BB000000000033472600 C       
093036818NA               000004222000000005000004238000000001R    NN000000000033475400ACC     A
093036938PA               000004222000000003000004238000000001R    PP000000000033492360 C       
093036939TA               000004223000000001000004248000000002R    TT000000000033492400 C       
093036939TA               000004223000000002000004248000000002R    TT000000000033492500 C       
093036939JA               000004205000000002000004242000000001R    JJ000000000033492600 C       
093036939NA               000004219000000010000004238000000001R    NN000000000033492760ACC     A
093036999YA               000004227000000001000004242000000008R    YY000000000033495300ACB     A
093037023PA               000004222000000003000004252000000002R    PP000000000033503160 C       
093037105NA               000004219000000010000004239000000008R    NN000000000033510760ACC     A
093037119YA               000004227000000001000004242000000008R    YY000000000033517500ACC     A
093037119YA               000004227000000001000004242000000008R    YY000000000033517600ACA     A
093037760JA               000004212000000001000004242000000001R    JJ000000000033684300 C       
093037761XA               000000000000000000000004242000000018R    XX000000000033684400 C       
093037766KA               000004205000000002000004252000000002R    KK000000000033684800 C       
093037767PA               000004223000000001000004252000000002R    PP000000000033685000 C       
093037767TA               000004223000000003000004248000000002R    TT000000000033685100 C       
093037767PA               000004223000000002000004252000000002R    PP000000000033685300 C       
093038120BA               000004205000000002000004245000000008R    BB000000000033762400 C       
093038661XA               000004212000000012000004242000000018R    XX000000000033828700 C       
093038931BA               000004209000000005000004245000000008R    BB000000000033865500 C       
093038931BA               000004209000000006000004245000000008R    BB000000000033865600 C       
093039402NA               000004223000000001000004239000000008R    NN000000000034020200ACC     A
093039402NA               000004223000000002000004239000000008R    NN000000000034020400ACC     A
093039772TA               000004223000000004000004248000000002R    TT000000000034129900 C       
093040217TA               000004223000000005000004248000000002R    TT000000000034219000 C       
093042060TA               000004223000000005000004239000000001R    TT000000000034500900 C       
093042060TA               000004223000000005000004248000000002R    TT000000000034501000 C       
093044781BA               000004209000000001000004245000000008R    BB000000000034995800 C       
093044781BA               000004205000000002000004245000000008R    BB000000000034995900 C       
093044871XA               000000000000000000000004242000000018R    XX000000000035015400 C       
093045411NA               000004223000000002000004239000000024R    NN000000000035225260ACC     A
093045414NA               000004223000000002000004238000000001R    NN000000000035226060ACC     A
093045415NA               000004223000000002000004238000000001R    NN000000000035226100ACA     A
093045415NA               000004223000000002000004238000000001R    NN000000000035226200ACC     A
093045461YA               000004227000000001000004242000000008R    YY000000000035228900ACC     A
093045591BA               000004213000000004000004245000000008R    BB000000000035243000 C       
093045771XA               000004216000000011000004242000000018R    XX000000000035257600 C       
093046672DA               000004005000000001000004242000000017RFLOWDD000000000035432201AC      A
093047482DA               000004221000000010000004242000000017RFLOWDD000000000035634101AC      A
093049651NA               000004223000000002000004238000000008R    NN000000000036034160ACC     A
093049660YA               000004227000000001000004242000000008R    YY000000000036035800ACA     A
093049662NA               000004223000000002000004238000000009R    NN000000000036036160ACC     A
093050451NA               000004223000000002000004238000000009R    NN000000000036276800ACA     A
093058182XA               000004228000000001000004242000000018R    XX000000000037922800 C       
093100043YA               000004227000000001000004242000000008R    YY000000000038281900ACC     A
093100043YA               000004227000000001000004242000000008R    YY000000000038282000ACB     A
093100043NA               000004223000000002000004238000000009R    NN000000000038282100ACC     A
093102362PA               000004227000000001000004252000000002R    PP000000000039063900 C       
093102362TA               000004227000000001000004248000000002R    TT000000000039064000 C       
093102362TA               000004227000000002000004248000000002R    TT000000000039064200 C       
093102362BA               000004218000000002000004245000000008R    BB000000000039064300 C       
093102362PA               000004227000000002000004252000000002R    PP000000000039064500 C       
093102362BA               000004218000000003000004245000000008R    BB000000000039064600 C       
093102362KA               000004218000000002000004252000000002R    KK000000000039064700 C       
093102362JA               000004218000000002000004242000000001R    JJ000000000039064800 C       
093102362NA               000004227000000001000004238000000009R    NN000000000039064900ACC     A
093102363NA               000004227000000002000004238000000009R    NN000000000039065000ACC     A
093102363NA               000004229000000001000004238000000009R    NN000000000039065310ACC     A
093102363TA               000004227000000003000004248000000002R    TT000000000039065600 C       
093102363NA               000004229000000001000004238000000009R    NN000000000039065700ACB     A
093102364NA               000004229000000001000004238000000009R    NN000000000039065800ACC     A
093102366NA               000004229000000001000004238000000008R    NN000000000039066110ACC     A
093102482PA               000004227000000001000004252000000002R    PP000000000039104300 C       
093102482TA               000004227000000002000004248000000002R    TT000000000039104400 C       
093102601NA               000004227000000001000004238000000008R    NN000000000039150760ACC     A
093102602NA               000004227000000001000004237000000001R    NN000000000039150860ACC     A
093102607NA               000004227000000001000004238000000008R    NN000000000039151260ACC     A
093102617YA               000004227000000001000004242000000008R    YY000000000039151700ACC     A
093104909PA               000004228000000001000004252000000002R    PP000000000039462500 C       
093104910PA               000004228000000002000004252000000002R    PP000000000039462660 C       
093104910NA               000004228000000001000004238000000008R    NN000000000039462700ACC     A
093104910NA               000004228000000002000004238000000008R    NN000000000039462800ACC     A
093104914NA               000004229000000001000004238000000008R    NN000000000039462910ACC     A
093104956YA               000004227000000001000004242000000008R    YY000000000039470900ACB     A
093105201PA               000004228000000001000004252000000002R    PP000000000039510700 C       
093105348NA               000004229000000001000004238000000009R    NN000000000039523310ACC     A
093106121MA               000000000000000000000004242000000007R    MM000000000039625100 C       
093106867ZA               000004227000000001000004252000000003R    ZZ000000000039712900 C       
093106885ZA               000004229000000001000004252000000003R    ZZ000000000039714300 C       
093106885ZA               000004229000000002000004252000000003R    ZZ000000000039714460 C       
093106913XA               000000000000000000000004242000000018R    XX000000000039714900 C       
093106987ZA               000004229000000001000004252000000003R    ZZ000000000039718260 C       
093106989MA               000004222000000004000004242000000007R    MM000000000039718300 C       
093107272NA               000004228000000001000004238000000009R    NN000000000039754260ACC     A
093107314KA               000004224000000001000004252000000002R    KK000000000039755400 C       
093107631BA               000004218000000007000004245000000008R    BB000000000039784000 C       
093107811XA               000004221000000009000004242000000018R    XX000000000039795000 C       
093108359YA               000004221000000005000004242000000008R    YY000000000039827800ACB     A
093108401NA               000004229000000001000004238000000009R    NN000000000039835700ACC     A
093108401NA               000004229000000002000004238000000009R    NN000000000039835810ACC     A
093108455NA               000004229000000001000004238000000009R    NN000000000039845960ACC     A
093108800JA               000004222000000001000004242000000001R    JJ000000000039872100 C       
093118339XA               000004229000000001000004242000000018R    XX000000000040987500 C       
093118563KA               000004224000000002000004252000000002R    KK000000000041022600 C       
093120209XA               000004221000000009000004242000000018R    XX000000000041319800 C       
093120871TA               000004227000000001000004248000000002R    TT000000000041496000 C       
093121009TA               000004227000000004000004248000000002R    TT000000000041505300 C       
093121010TA               000004227000000001000004248000000002R    TT000000000041505700 C       
093121011TA               000004227000000004000004248000000002R    TT000000000041506200 C       
093121248XA               000004229000000001000004242000000018R    XX000000000041541200 C       
093121975ZA               000004227000000001000004252000000003R    ZZ000000000041610160 C       
093121975ZA               000004227000000001000004251000000001R    ZZ000000000041610200 C       
093121975KA               000004224000000002000004240000000001R    KK000000000041610300 C       
093121975ZA               000004227000000001000004251000000002R    ZZ000000000041610400 C       
093121975ZA               000004227000000001000004251000000003R    ZZ000000000041610500 C       
093121975KA               000004224000000002000004252000000002R    KK000000000041610600 C       
093121975ZA               000004227000000001000004244000000001R    ZZ000000000041610700 C       
093121975TA               000004227000000001000004248000000002R    TT000000000041610800 C       
093121975NA               000004229000000001000004237000000001R    NN000000000041610960ACC     A
093121976TA               000004227000000002000004248000000002R    TT000000000041611000 C       
093121977DA               000004221000000010000004240000000001RFLOWDD000000000041611101AC      A
093121977DA               000004221000000010000004242000000017RFLOWDD000000000041611201AC      A
093122065ZA               000004227000000001000004251000000002R    ZZ000000000041624700 C       
093122066TA               000004227000000001000004248000000002R    TT000000000041625100 C       
093122202TA               000004227000000004000004248000000002R    TT000000000041649100 C       
093122330NA               000004228000000001000004237000000001R    NN000000000041673700ACC     A
093122330NA               000004228000000001000004237000000001R    NN000000000041673800ACB     A
093122331ZA               000004227000000001000004237000000001R    ZZ000000000041674000 C       
093122331NA               000004228000000001000004237000000001R    NN000000000041674160ACC     A
093122331PA               000004228000000001000004242000000001R    PP000000000041674200 C       
093122331ZA               000004227000000001000004237000000002R    ZZ000000000041674360 C       
093122331BA               000004218000000007000004242000000001R    BB000000000041674400 C       
093122331BA               000004218000000007000004242000000002R    BB000000000041674500 C       
093122331PA               000004228000000001000004242000000002R    PP000000000041674600 C       
093122332PA               000004228000000001000004242000000001R    PP000000000041674800 C       
093122332PA               000004228000000001000004237000000001R    PP000000000041674900 C       
093122332BA               000004218000000007000004242000000001R    BB000000000041675000 C       
093122332BA               000004218000000007000004245000000008R    BB000000000041675100 C       
093122332BA               000004218000000007000004237000000001R    BB000000000041675200 C       
093122339ZA               000004227000000001000004237000000001R    ZZ000000000041676060 C       
093122339ZA               000004227000000001000004251000000002R    ZZ000000000041676100 C       
093122340PA               000004228000000001000004247000000002R    PP000000000041676200 C       
093122340BA               000004218000000007000004245000000008R    BB000000000041676300 C       
093122340PA               000004228000000001000004242000000001R    PP000000000041676400 C       
093122340BA               000004218000000007000004242000000001R    BB000000000041676500 C       
093122340BA               000004218000000007000004242000000002R    BB000000000041676600 C       
093122340PA               000004228000000001000004242000000002R    PP000000000041676700 C       
093122370PA               000004228000000002000004242000000002R    PP000000000041680400 C       
093122576BA               000004228000000001000004242000000002R    BB000000000041708500 C       
093122577BA               000004228000000002000004242000000002R    BB000000000041708600 C       
093122577YA               000004228000000001000004242000000008R    YY000000000041708700ACB     A
093122577YA               000004228000000002000004242000000008R    YY000000000041708800ACB     A
093122577JA               000004228000000001000004242000000001R    JJ000000000041708900 C       
093122582NA               000004228000000001000004238000000009R    NN000000000041709360ACC     A
093123101YA               000004228000000001000004242000000008R    YY000000000041750900ACB     A
093123101JA               000004222000000001000004242000000001R    JJ000000000041751000 C       
093123101BA               000004228000000001000004242000000002R    BB000000000041751100 C       
093123102TA               000004227000000001000004248000000002R    TT000000000041751200 C       
093123102TA               000004227000000004000004248000000002R    TT000000000041751300 C       
093123103ZA               000004228000000002000004251000000002R    ZZ000000000041751400 C       
093123103ZA               000004228000000003000004251000000002R    ZZ000000000041751500 C       
093123170XA               000004221000000009000004242000000018R    XX000000000041753560 C       
093123176NA               000004229000000001000004238000000009R    NN000000000041753810ACC     A
093123176NA               000004229000000002000004238000000009R    NN000000000041754010ACC     A
093123176NA               000004229000000002000004238000000009R    NN000000000041754100ACB     A
093123176NA               000004229000000002000004238000000009R    NN000000000041754200ACC     A
093123177PA               000004228000000002000004242000000001R    PP000000000041754300 C       
093123177BA               000004228000000001000004242000000001R    BB000000000041754400 C       
093123177BA               000004218000000007000004242000000001R    BB000000000041754500 C       
093123177BA               000004218000000007000004245000000008R    BB000000000041754600 C       
093123177YA               000004221000000005000004242000000008R    YY000000000041754700ACB     A
093123177PA               000004228000000002000004252000000004R    PP000000000041754800 C       
093123177PA               000004228000000002000004252000000003R    PP000000000041754900 C       
093123177PA               000004228000000002000004252000000002R    PP000000000041755000 C       
093123177TA               000004227000000001000004248000000002R    TT000000000041755100 C       
093123178TA               000004227000000004000004248000000002R    TT000000000041755200 C       
093123288NA               000004229000000002000004238000000010R    NN000000000041761310ACC     A
093123288NA               000004229000000001000004238000000010R    NN000000000041761410ACC     A
093123289NA               000004229000000001000004238000000009R    NN000000000041761510ACC     A
093123289NA               000004229000000001000004237000000001R    NN000000000041761610ACC     A
093123289ZA               000004228000000002000004251000000002R    ZZ000000000041761700 C       
093123289TA               000004227000000001000004248000000002R    TT000000000041761800 C       
093123290TA               000004227000000002000004248000000002R    TT000000000041761900 C       
093123293NA               000004228000000001000004237000000001R    NN000000000041762060ACC     A
093123294NA               000004228000000001000004237000000001R    NN000000000041762100ACB     A
093123294NA               000004228000000001000004237000000001R    NN000000000041762200ACC     A
093123294PA               000004228000000002000004242000000001R    PP000000000041762360 C       
093123294BA               000004228000000001000004245000000008R    BB000000000041762400 C       
093123294BA               000004228000000001000004242000000001R    BB000000000041762500 C       
093123294YA               000004228000000001000004242000000008R    YY000000000041762600ACB     A
093123294BA               000004228000000002000004242000000001R    BB000000000041762700 C       
093123294BA               000004228000000002000004242000000002R    BB000000000041762800 C       
093123294PA               000004228000000002000004242000000002R    PP000000000041762900 C       
093123294JA               000004228000000001000004242000000001R    JJ000000000041763000 C       
093123294YA               000004228000000002000004242000000008R    YY000000000041763100ACB     A
093123313NA               000004228000000001000004238000000009R    NN000000000041763560ACC     A
093123352TA               000004227000000001000004248000000002R    TT000000000041764800 C       
093124010TA               000004227000000002000004248000000002R    TT000000000041792900 C       
093124010JA               000004222000000001000004242000000001R    JJ000000000041793000 C       
093124010BA               000004228000000001000004242000000002R    BB000000000041793100 C       
093124010YA               000004228000000001000004242000000008R    YY000000000041793200ACB     A
093124016NA               000004229000000001000004238000000009R    NN000000000041797710ACC     A
093124017NA               000004229000000001000004238000000009R    NN000000000041798200ACB     A
093124017NA               000004229000000002000004238000000009R    NN000000000041798310ACB     A
093124017NA               000004229000000002000004238000000009R    NN000000000041798900ACC     A
093124017PA               000004228000000002000004242000000001R    PP000000000041799100 C       
093124017BA               000004218000000007000004242000000002R    BB000000000041799200 C       
093124017YA               000004221000000005000004242000000008R    YY000000000041799300ACB     A
093124017BA               000004218000000007000004242000000001R    BB000000000041799400 C       
093124017BA               000004218000000007000004245000000008R    BB000000000041799500 C       
093124018PA               000004228000000002000004252000000002R    PP000000000041799700 C       
093124034NA               000004229000000002000004238000000010R    NN000000000041802610ACC     A
093124802NA               000004229000000001000004238000000010R    NN000000000041912110ACC     A
093124802ZA               000004227000000001000004251000000002R    ZZ000000000041912300 C       
093124802TA               000004227000000001000004248000000002R    TT000000000041912400 C       
093124803NA               000004229000000001000004238000000009R    NN000000000041912510ACC     A
093124803NA               000004229000000001000004237000000001R    NN000000000041912610ACC     A
093124807NA               000004228000000001000004237000000001R    NN000000000041912760ACC     A
093124807NA               000004228000000001000004237000000001R    NN000000000041912800ACB     A
093124807NA               000004228000000001000004237000000001R    NN000000000041912900ACC     A
093124807PA               000004228000000002000004238000000001R    PP000000000041913000 C       
093124807BA               000004218000000007000004238000000001R    BB000000000041913100 C       
093124808PA               000004228000000002000004238000000002R    PP000000000041913200 C       
093124810TA               000004227000000002000004248000000002R    TT000000000041913700 C       
093124813YA               000004228000000001000004242000000008R    YY000000000041914100ACB     A
093124813YA               000004228000000002000004242000000008R    YY000000000041914200ACB     A
093124813JA               000004228000000001000004242000000001R    JJ000000000041914300 C       
093124825PA               000004228000000001000004238000000002R    PP000000000041914560 C       
093124835ZA               000004229000000002000004251000000002R    ZZ000000000041915460 C       
093124835ZA               000004229000000003000004251000000002R    ZZ000000000041915560 C       
093124835PA               000004228000000001000004238000000001R    PP000000000041915600 C       
093124835BA               000004218000000007000004245000000008R    BB000000000041915700 C       
093124835PA               000004228000000001000004252000000002R    PP000000000041915800 C       
093124836NA               000004228000000001000004237000000001R    NN000000000041915900ACB     A
093124836NA               000004228000000001000004237000000001R    NN000000000041916000ACC     A
093124838NA               000004230000000001000004237000000001R    NN000000000041916110ACC     A
093124838NA               000004230000000002000004237000000001R    NN000000000041916210ACC     A
093124841NA               000004230000000002000004238000000009R    NN000000000041916310ACC     A
093124842NA               000004230000000002000004238000000009R    NN000000000041916400ACB     A
093124842NA               000004230000000002000004238000000009R    NN000000000041916500ACC     A
093124891TA               000004227000000001000004248000000002R    TT000000000041922500 C       
093125010TA               000004227000000002000004248000000002R    TT000000000041925700 C       
093125010JA               000004222000000001000004242000000001R    JJ000000000041925800 C       
093125010YA               000004228000000001000004242000000008R    YY000000000041925900ACB     A
093125010ZA               000004229000000002000004251000000002R    ZZ000000000041926000 C       
093125010NA               000004230000000001000004238000000009R    NN000000000041926110ACC     A
093125011NA               000004230000000001000004237000000001R    NN000000000041926310ACC     A
093125011TA               000004227000000001000004248000000002R    TT000000000041926400 C       
093125015NA               000004230000000001000004238000000009R    NN000000000041927210ACC     A
093125018NA               000004228000000001000004238000000009R    NN000000000041928360ACC     A
093125019NA               000004228000000001000004237000000001R    NN000000000041928560ACC     A
093125019ZA               000004229000000002000004237000000001R    ZZ000000000041928800 C       
093125019ZA               000004229000000002000004237000000002R    ZZ000000000041928910 C       
093125020PA               000004228000000001000004243000000003R    PP000000000041929100 C       
093125021PA               000004228000000001000004243000000004R    PP000000000041929200 C       
093125042ZA               000004229000000002000004237000000001R    ZZ000000000041933060 C       
093125042ZA               000004229000000002000004251000000002R    ZZ000000000041933100 C       
093125042PA               000004228000000001000004243000000001R    PP000000000041933200 C       
093125043PA               000004228000000001000004248000000002R    PP000000000041933300 C       
093125043PA               000004228000000001000004248000000001R    PP000000000041933400 C       
093125043PA               000004228000000001000004252000000002R    PP000000000041933500 C       
093125219YA               000004221000000005000004242000000008R    YY000000000041956100ACB     A
093125259NA               000004229000000001000004237000000001R    NN000000000041958400ACC     A
093125259NA               000004229000000002000004237000000001R    NN000000000041958600ACC     A
093125260TA               000004227000000002000004248000000002R    TT000000000041958700 C       
093125401NA               000004229000000001000004237000000001R    NN000000000041973500ACC     A
093125402TA               000004227000000001000004248000000002R    TT000000000041973600 C       
093125737TA               000004227000000003000004248000000002R    TT000000000042000700 C       
093125884TA               000004227000000001000004248000000002R    TT000000000042010800 C       
093125885TA               000004227000000003000004248000000002R    TT000000000042011600 C       
093125951NA               000004229000000001000004237000000008R    NN000000000042016360ACC     A
093125952TA               000004227000000001000004248000000002R    TT000000000042016400 C       
093125953TA               000004227000000003000004248000000002R    TT000000000042016500 C       
093126063TA               000004227000000001000004248000000002R    TT000000000042028100 C       
093126064TA               000004227000000003000004248000000002R    TT000000000042028300 C       
093129876PA               000004228000000001000004237000000001R    PP000000000042529400 C       
093129876BA               000004218000000007000004237000000001R    BB000000000042529500 C       
093129877BA               000004218000000007000004237000000002R    BB000000000042529600 C       
093129877PA               000004228000000001000004237000000002R    PP000000000042529700 C       
093129877PA               000004229000000001000004237000000002R    PP000000000042529800 C       
093129877BA               000004229000000001000004237000000002R    BB000000000042529900 C       
093129877BA               000004229000000002000004237000000002R    BB000000000042530000 C       
093129877PA               000004229000000002000004237000000002R    PP000000000042530100 C       
093129974TA               000004227000000003000004237000000002R    TT000000000042533100 C       
093129974TA               000004227000000003000004237000000003R    TT000000000042533200 C       
093129974PA               000004229000000001000004237000000002R    PP000000000042533300 C       
093129975BA               000004229000000001000004237000000002R    BB000000000042533400 C       
093130101PA               000004229000000001000004237000000001R    PP000000000042590000 C       
093130101BA               000004218000000007000004237000000002R    BB000000000042590100 C       
093130101BA               000004218000000007000004237000000001R    BB000000000042590300 C       
093130101TA               000004227000000003000004237000000002R    TT000000000042590400 C       
093130167BA               000004229000000001000004237000000001R    BB000000000042605200 C       
093130167BA               000004229000000002000004237000000001R    BB000000000042605600 C       
093134901BA               000004229000000001000004237000000001R    BB000000000043108900 C       
093135622BA               000004218000000007000004237000000001R    BB000000000043261500 C       
093136623BA               000004229000000001000004237000000001R    BB000000000043351000 C       
093136623BA               000004229000000002000004237000000001R    BB000000000043351100 C       
093136630NA               000004229000000001000004237000000007R    NN000000000043352560ACC     A
093136631ZA               000004227000000001000004251000000002R    ZZ000000000043352760 C       
093136635ZA               000004229000000001000004251000000002R    ZZ000000000043352900 C       
093136635ZA               000004229000000002000004251000000002R    ZZ000000000043353000 C       
093136635TA               000004229000000001000004237000000002R    TT000000000043353100 C       
093136635TA               000004229000000002000004237000000002R    TT000000000043353200 C       
093138400PA               000004227000000001000004237000000001R    PP000000000043484100 C       
093138400PA               000004227000000001000004236000000001R    PP000000000043484260 C       
093138400PA               000004227000000001000004236000000002R    PP000000000043484360 C       
093138400PA               000004227000000001000004236000000003R    PP000000000043484460 C       
093138400PA               000004227000000001000004236000000004R    PP000000000043484560 C       
093138401ZA               000004229000000001000004251000000002R    ZZ000000000043484600 C       
093138401NA               000004229000000001000004237000000007R    NN000000000043484700ACB     A
093138401TA               000004229000000001000004237000000002R    TT000000000043484800 C       
093138401BA               000004229000000001000004237000000001R    BB000000000043484960 C       
093138401BA               000004218000000007000004237000000001R    BB000000000043485000 C       
093138401NA               000004227000000001000004237000000007R    NN000000000043485100ACB     A
093138401NA               000004227000000001000004237000000007R    NN000000000043485200ACC     A
093138401BA               000004218000000007000004245000000008R    BB000000000043485300 C       
093138401BA               000004218000000007000004236000000001R    BB000000000043485400 C       
093138401NA               000004227000000001000004237000000009R    NN000000000043485500ACC     A
093138401BA               000004218000000007000004236000000002R    BB000000000043485600 C       
093138402NA               000004227000000001000004236000000001R    NN000000000043485700ACC     A
093138402NA               000004227000000001000004236000000002R    NN000000000043485800ACC     A
093138407NA               000004227000000001000004235000000001R    NN000000000043485960ACC     A
093138407NA               000004227000000001000004235000000002R    NN000000000043486060ACC     A
093138407PA               000004227000000001000004236000000003R    PP000000000043486100 C       
093138408BA               000004218000000007000004236000000001R    BB000000000043486200 C       
093138408BA               000004218000000007000004245000000008R    BB000000000043486300 C       
093138411KA               000004224000000002000004236000000001R    KK000000000043486400 C       
093138490PA               000004227000000001000004236000000002R    PP000000000043502000 C       
093138545PA               000004227000000001000004236000000001R    PP000000000043524200 C       
093138546PA               000004227000000001000004238000000002R    PP000000000043524300 C       
093138546NA               000004227000000001000004235000000001R    NN000000000043524460ACC     A
093138548KA               000004224000000002000004252000000002R    KK000000000043524600 C       
093138555NA               000004227000000001000004236000000001R    NN000000000043524860ACC     A
093138556PA               000004227000000001000004236000000001R    PP000000000043525100 C       
093138556BA               000004218000000007000004236000000001R    BB000000000043525200 C       
093138588PA               000004229000000001000004236000000001R    PP000000000043527200 C       
093138588PA               000004229000000002000004236000000001R    PP000000000043527460 C       
093138695NA               000004230000000001000004236000000001R    NN000000000043531360ACB     A
093138696NA               000004230000000002000004236000000001R    NN000000000043531460ACB     A
093138696NA               000004230000000002000004236000000001R    NN000000000043531500ACC     A
093138696PA               000004229000000002000004238000000002R    PP000000000043531600 C       
093138696PA               000004229000000001000004238000000002R    PP000000000043531700 C       
093138696BA               000004218000000007000004245000000008R    BB000000000043531860 C       
093138696PA               000004227000000001000004238000000002R    PP000000000043531900 C       
093138833NA               000004230000000001000004236000000001R    NN000000000043551110ACC     A
093138836NA               000004227000000001000004236000000001R    NN000000000043551260ACC     A
093138837NA               000004227000000001000004236000000001R    NN000000000043551400ACB     A
093138837NA               000004227000000001000004236000000001R    NN000000000043551500ACC     A
093138837PA               000004229000000001000004238000000002R    PP000000000043551600 C       
093138837PA               000004229000000001000004236000000001R    PP000000000043551700 C       
093138838BA               000004218000000007000004236000000001R    BB000000000043551900 C       
093138838NA               000004229000000001000004236000000001R    NN000000000043552060ACC     A
093138838BA               000004218000000007000004236000000002R    BB000000000043552260 C       
093138838PA               000004229000000001000004236000000002R    PP000000000043552300 C       
093138838NA               000004229000000002000004236000000001R    NN000000000043552860ACC     A
093138874PA               000004229000000001000004236000000001R    PP000000000043560700 C       
093138875BA               000004218000000007000004236000000001R    BB000000000043560860 C       
093138951NA               000004229000000001000004236000000001R    NN000000000043574460ACC     A
093139046NA               000004230000000001000004236000000001R    NN000000000043592160ACB     A
093139047NA               000004230000000002000004236000000001R    NN000000000043592260ACB     A
093139047NA               000004230000000002000004236000000001R    NN000000000043592300ACC     A
093139047PA               000004228000000001000004236000000001R    PP000000000043592460 C       
093139047PA               000004228000000001000004238000000002R    PP000000000043592500 C       
093139047BA               000004218000000007000004245000000008R    BB000000000043592760 C       
093139253NA               000004230000000001000004236000000001R    NN000000000043620410ACC     A
093139258NA               000004227000000001000004236000000001R    NN000000000043620560ACC     A
093139258NA               000004227000000001000004236000000001R    NN000000000043620600ACB     A
093139259NA               000004227000000001000004236000000001R    NN000000000043620700ACC     A
093139259PA               000004229000000001000004238000000002R    PP000000000043620800 C       
093139259PA               000004229000000001000004236000000001R    PP000000000043621000 C       
093139259BA               000004218000000007000004236000000001R    BB000000000043621200 C       
093139259NA               000004229000000001000004236000000001R    NN000000000043621360ACC     A
093139259BA               000004218000000007000004236000000002R    BB000000000043621460 C       
093139259PA               000004229000000002000004236000000001R    PP000000000043621560 C       
093139259PA               000004229000000002000004236000000002R    PP000000000043621600 C       
093139259NA               000004229000000002000004236000000001R    NN000000000043621700ACC     A
093140013NA               000004230000000001000004236000000001R    NN000000000043694060ACB     A
093140014PA               000004229000000001000004236000000002R    PP000000000043694900 C       
093140015PA               000004229000000001000004236000000001R    PP000000000043695000 C       
093140015PA               000004229000000001000004238000000002R    PP000000000043695100 C       
093140015NA               000004230000000001000004236000000001R    NN000000000043695200ACC     A
093140015BA               000004218000000007000004236000000001R    BB000000000043695360 C       
093140015BA               000004218000000007000004245000000008R    BB000000000043695400 C       
093140015PA               000004228000000001000004238000000002R    PP000000000043695500 C       
093140023ZA               000004230000000002000004251000000002R    ZZ000000000043698260 C       
093140081NA               000004230000000001000004237000000008R    NN000000000043708460ACC     A
093140087PA               000004230000000001000004238000000002R    PP000000000043710300 C       
093140087PA               000004230000000001000004237000000001R    PP000000000043710400 C       
093140087BA               000004218000000007000004237000000001R    BB000000000043710500 C       
093140440KA               000004225000000001000004252000000002R    KK000000000043804800 C       
093141110YA               000004220000000006000004242000000008R    YY000000000043908900ACB     A
093141369BA               000004230000000001000004237000000001R    BB000000000043924000 C       
093141370BA               000004230000000002000004237000000001R    BB000000000043924100 C       
093141581NA               000004230000000001000004237000000007R    NN000000000043930960ACC     A
093141581NA               000004230000000001000004237000000009R    NN000000000043931060ACC     A
093141582BA               000004230000000001000004237000000001R    BB000000000043931300 C       
093141582ZA               000004229000000001000004251000000002R    ZZ000000000043931460 C       
093141583NA               000004230000000001000004236000000001R    NN000000000043931660ACC     A
093141583NA               000004230000000001000004236000000002R    NN000000000043931760ACC     A
093141583PA               000004228000000001000004237000000001R    PP000000000043931860 C       
093141583PA               000004228000000001000004238000000002R    PP000000000043931900 C       
093141583BA               000004230000000001000004245000000008R    BB000000000043932060 C       
093141583BA               000004218000000007000004245000000008R    BB000000000043932200 C       
093141920YA               000004223000000004000004242000000008R    YY000000000043949900ACB     A
093141920YA               000004223000000005000004242000000008R    YY000000000043950000ACB     A
093141920JA               000004223000000001000004242000000001R    JJ000000000043950100 C       
093141999PA               000004227000000001000004238000000002R    PP000000000043951300 C       
093141999NA               000004230000000001000004236000000001R    NN000000000043951410ACC     A
093142037NA               000004230000000001000004237000000008R    NN000000000043961610ACC     A
093142038PA               000004227000000001000004237000000001R    PP000000000043961900 C       
093142038BA               000004218000000007000004237000000001R    BB000000000043962000 C       
093142038BA               000004218000000007000004237000000002R    BB000000000043962100 C       
093142038PA               000004227000000001000004237000000002R    PP000000000043962200 C       
093142038ZA               000004229000000002000004251000000002R    ZZ000000000043962300 C       
093142102NA               000004227000000001000004237000000008R    NN000000000043968760ACC     A
093142103NA               000004227000000001000004236000000001R    NN000000000043969160ACC     A
093142103PA               000004229000000001000004237000000002R    PP000000000043969200 C       
093142103NA               000004227000000001000004236000000001R    NN000000000043969400ACB     A
093142103NA               000004227000000001000004236000000002R    NN000000000043969560ACB     A
093142104PA               000004229000000002000004237000000002R    PP000000000043969600 C       
093142104PA               000004229000000002000004237000000001R    PP000000000043969700 C       
093142104BA               000004218000000007000004237000000001R    BB000000000043969800 C       
093142104NA               000004229000000001000004236000000002R    NN000000000043969900ACB     A
093142104PA               000004229000000002000004236000000001R    PP000000000043970000 C       
093142104BA               000004218000000007000004245000000008R    BB000000000043970100 C       
093142104BA               000004218000000007000004236000000001R    BB000000000043970200 C       
093142104NA               000004229000000001000004236000000002R    NN000000000043970300ACC     A
093142104NA               000004229000000002000004236000000002R    NN000000000043970400ACC     A
093142551NA               000004229000000001000004236000000002R    NN000000000043988700ACC     A
093142551NA               000004229000000001000004236000000001R    NN000000000043988860ACC     A
093143128NA               000004230000000001000004236000000001R    NN000000000044041860ACB     A
093143128NA               000004230000000001000004236000000001R    NN000000000044041900ACC     A
093143129PA               000004229000000001000004236000000001R    PP000000000044042060 C       
093143129PA               000004229000000001000004238000000002R    PP000000000044042100 C       
093143129BA               000004218000000007000004245000000008R    BB000000000044042260 C       
093143129PA               000004227000000001000004238000000002R    PP000000000044042300 C       
093143180NA               000004230000000001000004237000000008R    NN000000000044049810ACC     A
093143181PA               000004227000000001000004237000000001R    PP000000000044050000 C       
093143181BA               000004218000000007000004237000000001R    BB000000000044050100 C       
093143182BA               000004218000000007000004237000000002R    BB000000000044050200 C       
093143182PA               000004227000000001000004237000000002R    PP000000000044050300 C       
093143244NA               000004230000000001000004236000000001R    NN000000000044051810ACC     A
093143245NA               000004230000000001000004236000000002R    NN000000000044051910ACC     A
093143245PA               000004227000000001000004237000000001R    PP000000000044052000 C       
093143245BA               000004218000000007000004237000000001R    BB000000000044052100 C       
093143245BA               000004218000000007000004245000000008R    BB000000000044052200 C       
093143245PA               000004227000000001000004238000000002R    PP000000000044052300 C       
093143451NA               000004230000000001000004236000000001R    NN000000000044060910ACC     A
093143464NA               000004230000000001000004237000000008R    NN000000000044061510ACC     A
093143465PA               000004230000000001000004238000000002R    PP000000000044061600 C       
093143465PA               000004230000000001000004237000000001R    PP000000000044061700 C       
093143465BA               000004218000000007000004237000000001R    BB000000000044061800 C       
093143465PA               000004230000000002000004237000000001R    PP000000000044061960 C       
093143467BA               000004230000000001000004237000000001R    BB000000000044062000 C       
093143467BA               000004230000000002000004237000000001R    BB000000000044062100 C       
093143994BA               000004230000000001000004237000000001R    BB000000000044117100 C       
093143994KA               000004225000000002000004252000000002R    KK000000000044117200 C       
093144003KA               000004225000000003000004252000000002R    KK000000000044117300 C       
093146776PA               000004230000000001000004237000000001R    PP000000000044504260 C       
093148010TA               000004229000000003000004237000000002R    TT000000000044726900 C       
093148222DA               000004005000000001000004242000000017RFLOWDD000000000044752501AC      A
093149032DA               000004223000000008000004242000000017RFLOWDD000000000044875901AC      A
093150435PA               000004227000000001000004237000000001R    PP000000000045106900 C       
093150435BA               000004218000000007000004237000000001R    BB000000000045107000 C       
093150436PA               000004227000000001000004236000000001R    PP000000000045107160 C       
093150436PA               000004227000000001000004236000000002R    PP000000000045107260 C       
093150436PA               000004227000000001000004236000000003R    PP000000000045107360 C       
093150436PA               000004227000000001000004236000000004R    PP000000000045107460 C       
093150436NA               000004227000000001000004237000000008R    NN000000000045107560ACC     A
093150436NA               000004227000000001000004237000000008R    NN000000000045107600ACB     A
093150436TA               000004229000000003000004236000000001R    TT000000000045107700 C       
093150437TA               000004229000000003000004236000000002R    TT000000000045107800 C       
093150437TA               000004229000000003000004235000000001R    TT000000000045107910 C       
093150437NA               000004227000000001000004237000000008R    NN000000000045108000ACC     A
093150437BA               000004218000000007000004245000000008R    BB000000000045108100 C       
093150437TA               000004229000000003000004235000000002R    TT000000000045108210 C       
093150437NA               000004227000000001000004237000000007R    NN000000000045108300ACC     A
093150437PA               000004227000000001000004236000000005R    PP000000000045108400 C       
093150437NA               000004227000000001000004236000000001R    NN000000000045108800ACC     A
093150437TA               000004229000000001000004235000000002R    TT000000000045109060 C       
093150437NA               000004227000000001000004236000000001R    NN000000000045109100ACB     A
093150437PA               000004227000000001000004236000000004R    PP000000000045109200 C       
093150437PA               000004227000000001000004236000000003R    PP000000000045109400 C       
093150437NA               000004227000000001000004236000000002R    NN000000000045109500ACB     A
093150438NA               000004227000000001000004236000000002R    NN000000000045109600ACC     A
093150438NA               000004227000000001000004236000000003R    NN000000000045109700ACC     A
093150439NA               000004227000000001000004236000000002R    NN000000000045110200ACC     A
093150526PA               000004227000000001000004236000000002R    PP000000000045120100 C       
093150527TA               000004229000000001000004235000000001R    TT000000000045120660 C       
093150527TA               000004229000000001000004236000000001R    TT000000000045120760 C       
093150527BA               000004218000000007000004236000000001R    BB000000000045120800 C       
093150527BA               000004218000000007000004236000000002R    BB000000000045120900 C       
093150527YA               000004223000000005000004236000000001R    YY000000000045121000ACB     A
093150527YA               000004223000000005000004236000000002R    YY000000000045121100ACB     A
093150527JA               000004223000000001000004236000000001R    JJ000000000045121200 C       
093150533ZA               000004229000000001000004251000000002R    ZZ000000000045123160 C       
093150533ZA               000004227000000001000004251000000002R    ZZ000000000045123300 C       
093150534ZA               000004227000000001000004250000000001R    ZZ000000000045123400 C       
093150534TA               000004227000000001000004236000000001R    TT000000000045123560 C       
093150534ZA               000004227000000001000004250000000002R    ZZ000000000045123600 C       
093150534ZA               000004227000000001000004235000000001R    ZZ000000000045123760 C       
093150534TA               000004227000000001000004235000000001R    TT000000000045123800 C       
093150534TA               000004227000000001000004235000000002R    TT000000000045123960 C       
093150534ZA               000004227000000001000004235000000002R    ZZ000000000045124000 C       
093150534TA               000004227000000001000004235000000003R    TT000000000045124260 C       
093150534TA               000004227000000001000004235000000004R    TT000000000045124360 C       
093150534TA               000004227000000001000004234000000001R    TT000000000045124460 C       
093150534BA               000004218000000005000004236000000002R    BB000000000045124500 C       
093150534NA               000004227000000001000004236000000002R    NN000000000045124660ACB     A
093150534NA               000004227000000001000004235000000001R    NN000000000045124700ACB     A
093150534BA               000004218000000005000004236000000001R    BB000000000045124800 C       
093150534YA               000004223000000005000004236000000001R    YY000000000045124900ACB     A
093150534BA               000004218000000005000004245000000008R    BB000000000045125100 C       
093150534PA               000004227000000001000004234000000001R    PP000000000045125260 C       
093150534JA               000004223000000001000004242000000001R    JJ000000000045125300 C       
093150534YA               000004223000000005000004242000000008R    YY000000000045125400ACB     A
093150534TA               000004227000000003000004234000000001R    TT000000000045125560 C       
093150534NA               000004227000000001000004234000000001R    NN000000000045125600ACB     A
093150534PA               000004227000000001000004234000000002R    PP000000000045125760 C       
093150535NA               000004227000000001000004234000000001R    NN000000000045125800ACC     A
093150584NA               000004227000000001000004234000000001R    NN000000000045132300ACC     A
093150586BA               000004227000000001000004245000000008R    BB000000000045133000 C       
093150586BA               000004227000000002000004245000000008R    BB000000000045133200 C       
093150586YA               000004227000000001000004242000000008R    YY000000000045133300ACB     A
093150586YA               000004227000000002000004242000000008R    YY000000000045133500ACB     A
093150586JA               000004227000000001000004242000000001R    JJ000000000045133800 C       
093150587TA               000004227000000003000004235000000004R    TT000000000045134200 C       
093150624ZA               000004227000000001000004235000000001R    ZZ000000000045138300 C       
093150624TA               000004227000000003000004235000000003R    TT000000000045138400 C       
093150624ZA               000004227000000001000004250000000003R    ZZ000000000045138500 C       
093150624ZA               000004227000000001000004250000000002R    ZZ000000000045138700 C       
093150625PA               000004227000000001000004234000000001R    PP000000000045138960 C       
093150625PA               000004227000000001000004236000000001R    PP000000000045139000 C       
093150625NA               000004227000000001000004235000000001R    NN000000000045139160ACC     A
093150626PA               000004227000000001000004238000000002R    PP000000000045139200 C       
093150626NA               000004227000000001000004236000000001R    NN000000000045139300ACC     A
093150626NA               000004227000000001000004237000000008R    NN000000000045139500ACC     A
093150626NA               000004227000000001000004237000000008R    NN000000000045139600ACB     A
093150626TA               000004227000000003000004235000000002R    TT000000000045139710 C       
093150626NA               000004227000000001000004237000000008R    NN000000000045139800ACC     A
