 N12082014 Record Count :    650699212                                                          
040000015PA               000000000000000000000006000000000002R    PP000000000000000112 C       
063732073PA               000000000000000000000004603000000001R    PP000000000002222712 C       
064408734PA               000003847000000001000004603000000001R    PP000000000002287312 C       
075700381PA               000003847000000001000004231000000001R    PP000000000003384512 C       
080000348KA               000004200000000001000004316000000001R    KK000000000003414562 C       
080213919PA               000004147000000021000004231000000001R    PP000000000003490802 C       
080213920PA               000004190000000001000004231000000001R    PP000000000003490902 C       
080401590PA               000004201000000001000004231000000001R    PP000000000003515312 C       
080459038PA               000004190000000001000004231000000001R    PP000000000003534362 C       
082057808PA               000004190000000001000004230000000001R    PP000000000004061962 C       
082841371PA               000004190000000001000004231000000001R    PP000000000004335462 C       
082930410PA               000003847000000001000004231000000001R    PP000000000004359902 C       
083015416PA               000004190000000001000004231000000001R    PP000000000004381902 C       
083349483PA               000004147000000021000004231000000001R    PP000000000004588502 C       
083349483PA               000003847000000001000004231000000001R    PP000000000004588602 C       
083524802TA               000003465000000001000000000000000000R    TT000000000004649802 C       
083524802TA               000003465000000001000004972000000001R    TT000000000004649902 C       
083549477PA               000004147000000021000004231000000001R    PP000000000004683902 C       
083549478PA               000004190000000001000004231000000001R    PP000000000004684002 C       
083803651TA               000003465000000001000004230000000001R    TT000000000004793662 C       
084146277PA               000004190000000001000004241000000001R    PP000000000005094502 C       
084345286PA               000004190000000001000004230000000001R    PP000000000005203802 C       
085840417PA               000003847000000001000004230000000001R    PP000000000005887802 C       
090110298PA               000004147000000021000004230000000001R    PP000000000005996302 C       
090120462PA               000004190000000001000004230000000001R    PP000000000006003902 C       
090515108PA               000004190000000001000004240000000001R    PP000000000006147502 C       
091655073TA               000003465000000001000004972000000001R    TT000000000006752762 C       
091656003PA               000004190000000001000004250000000001R    PP000000000006755762 C       
091657003PA               000004190000000001000004260000000001R    PP000000000006755862 C       
091658003PA               000004190000000001000004270000000001R    PP000000000006757362 C       
091659004PA               000004190000000001000004280000000001R    PP000000000006758362 C       
091700004PA               000004190000000001000004283000000006R    PP000000000006759562 C       
091700009PA               000004190000000001000004290000000001R    PP000000000006760062 C       
091701004PA               000004190000000001000004300000000001R    PP000000000006761362 C       
091702004PA               000004190000000001000004310000000001R    PP000000000006763262 C       
091703004PA               000004190000000001000004320000000001R    PP000000000006767262 C       
091704004PA               000004190000000001000004326000000001R    PP000000000006769802 C       
092049708ZA               000004181000000001000000000000000000R    ZZ000000000006981202 C       
092049709ZA               000004181000000001000004251000000001R    ZZ000000000006981462 C       
092127003PA               000004190000000001000004307000000001R    PP000000000007103602 C       
092128003PA               000004190000000001000004261000000001R    PP000000000007112802 C       
092447493ZA               000000000000000000000004251000000001R    ZZ000000000007304602 C       
092447493ZA               000004190000000001000004251000000001R    ZZ000000000007304702 C       
092539567ZA               000000000000000000000004251000000001R    ZZ000000000007374202 C       
092541295ZA               000000000000000000000000000000000000R    ZZ000000000007394762 C       
092542007PA               000004190000000001000004271000000001R    PP000000000007402062 C       
092543007PA               000004190000000001000004281000000001R    PP000000000007414162 C       
092544002PA               000004190000000001000004291000000001R    PP000000000007423762 C       
092545002PA               000004190000000001000004301000000001R    PP000000000007434562 C       
092546002PA               000004190000000001000004311000000001R    PP000000000007445962 C       
092547003PA               000004190000000001000004314000000006R    PP000000000007455562 C       
092548000PA               000004190000000001000004324000000001R    PP000000000007464262 C       
092548003PA               000004190000000001000004326000000001R    PP000000000007464502 C       
092620317PA               000004190000000001000004369000000006R    PP000000000007597002 C       
092620317PA               000004147000000021000004369000000006R    PP000000000007597102 C       
092633373PA               000004185000000001000004369000000006R    PP000000000007614302 C       
092633373PA               000004185000000001000004331000000001R    PP000000000007614402 C       
092633603PA               000004182000000001000004331000000001R    PP000000000007618602 C       
092633603PA               000004182000000001000004334000000001R    PP000000000007618802 C       
092642107ZA               000004190000000001000000000000000000R    ZZ000000000007623902 C       
092642107ZA               000004190000000001000004255000000001R    ZZ000000000007624162 C       
092642384TA               000003465000000001000004255000000001R    TT000000000007647402 C       
092642384TA               000004190000000001000004255000000001R    TT000000000007647502 C       
092642885PA               000004190000000001000004334000000001R    PP000000000007662502 C       
092642885PA               000004190000000001000004255000000001R    PP000000000007662602 C       
092643884KA               000004200000000001000004255000000001R    KK000000000007677002 C       
092738900TA               000004190000000001000004254000000001R    TT000000000007771862 C       
092754517PA               000004190000000001000004273000000001R    PP000000000007795602 C       
092754517PA               000004182000000001000004273000000001R    PP000000000007795702 C       
092754517PA               000004182000000001000004246000000001R    PP000000000007795862 C       
092754517PA               000004195000000001000004246000000001R    PP000000000007795902 C       
092754569TA               000003465000000001000004254000000001R    TT000000000007800502 C       
092754570TA               000003465000000001000004246000000001R    TT000000000007800602 C       
092754570TA               000004195000000001000004246000000001R    TT000000000007800902 C       
092754622KA               000004200000000001000004316000000001R    KK000000000007806402 C       
092754622KA               000004200000000001000004246000000001R    KK000000000007806502 C       
092754738ZA               000004190000000001000000000000000000R    ZZ000000000007810702 C       
092754738ZA               000000000000000000000000000000000000R    ZZ000000000007810802 C       
092754738ZA               000000000000000000000004246000000001R    ZZ000000000007810902 C       
092754738ZA               000004195000000001000004246000000001R    ZZ000000000007811002 C       
092800015PA               000004195000000001000004245000000001R    PP000000000007837762 C       
092800015PA               000004196000000001000004245000000001R    PP000000000007838102 C       
092800015ZA               000004196000000001000004245000000001R    ZZ000000000007838402 C       
092800016TA               000004196000000001000004246000000001R    TT000000000007839102 C       
092800016TA               000004196000000001000004245000000001R    TT000000000007839202 C       
092800016KA               000004200000000001000004245000000001R    KK000000000007840602 C       
092800016KA               000004201000000001000004245000000001R    KK000000000007840862 C       
092833639TA               000004196000000001000004244000000001R    TT000000000008430262 C       
092840399YA               000000000000000000000004414000000001R    YY000000000008448202 C       
092840399YA               000004032000000001000004414000000001R    YY000000000008448302 C       
092900387YA               000004032000000001000004328000000001R    YY000000000008503702 C       
092900387YA               000004117000000001000004328000000001R    YY000000000008503802 C       
092940900PA               000004196000000001000004243000000001R    PP000000000008942562 C       
092940900PA               000004202000000001000004243000000001R    PP000000000008942612 C       
092945004PA               000004203000000001000004243000000001R    PP000000000008997712 C       
092945004PA               000004203000000001000004242000000001R    PP000000000008997812 C       
092945005TA               000004196000000001000004243000000001R    TT000000000008999602 C       
092945005PA               000004204000000001000004242000000001R    PP000000000009000112 C       
092945005PA               000004204000000001000004241000000001R    PP000000000009000712 C       
093000011TA               000004196000000001000004243000000002R    TT000000000009184002 C       
093000013PA               000004204000000001000004241000000002R    PP000000000009189412 C       
093000013PA               000004206000000001000004241000000002R    PP000000000009189612 C       
093000025PA               000004207000000001000004241000000002R    PP000000000009218412 C       
093000025PA               000004207000000001000004240000000001R    PP000000000009218512 C       
093000032PA               000004207000000002000004240000000001R    PP000000000009231612 C       
093000032PA               000004207000000002000004240000000002R    PP000000000009231712 C       
093000041PA               000004207000000003000004240000000002R    PP000000000009245412 C       
093000053PA               000004207000000003000004239000000001R    PP000000000009258012 C       
093000053PA               000004207000000003000004239000000002R    PP000000000009258412 C       
093000059JA               000003532000000001000000000000000000R    JJ000000000009264702 C       
093000061JA               000003532000000001000004919000000001R    JJ000000000009267002 C       
093001006ZA               000004195000000001000004246000000001R    ZZ000000000009467402 C       
093001006TA               000004196000000001000004243000000001R    TT000000000009468802 C       
093001007TA               000004195000000001000004243000000001R    TT000000000009469902 C       
093001007TA               000004196000000002000004243000000001R    TT000000000009472202 C       
093001008NA               000004215000000025000004223000000003O    NN000000000009473512 C       
093001008TA               000004196000000003000004243000000001R    TT000000000009474202 C       
093001009KA               000004200000000001000004245000000001R    KK000000000009484602 C       
093001009KA               000004200000000001000004246000000001R    KK000000000009484802 C       
093001013NA               000004215000000025000004223000000003O    NN000000000009505402AC     EA
093001013PA               000004207000000002000004239000000002R    PP000000000009505602 C       
093001017BA               000004201000000002000000000000000000R    BB000000000009523902 C       
093001017TA               000004196000000003000004229000000002R    TT000000000009524202 C       
093001017BA               000004201000000002000004229000000002R    BB000000000009524402 C       
093001017ZA               000004201000000002000004229000000002R    ZZ000000000009524902 C       
093001017TA               000004201000000002000004229000000002R    TT000000000009525402 C       
093001017ZA               000004201000000002000004229000000003R    ZZ000000000009525802 C       
093001017TA               000004201000000002000004229000000003R    TT000000000009526002 C       
093001017TA               000004201000000003000004229000000003R    TT000000000009526302 C       
093001017ZA               000004201000000003000004229000000003R    ZZ000000000009526602 C       
093001017YA               000004201000000002000004328000000001R    YY000000000009527102 C       
093001017YA               000004201000000002000004229000000002R    YY000000000009527202 C       
093001017PA               000004207000000002000004229000000002R    PP000000000009527402 C       
093001018JA               000004201000000002000004919000000001R    JJ000000000009528402 C       
093001018JA               000004201000000002000004229000000002R    JJ000000000009528902 C       
093001018PA               000004207000000002000004229000000003R    PP000000000009529502 C       
093001022KA               000004200000000001000004229000000002R    KK000000000009550502 C       
093001026KA               000004201000000002000004229000000002R    KK000000000009557502 C       
093001026PA               000004207000000001000004229000000003R    PP000000000009559802 C       
093001029PA               000004206000000002000004229000000003R    PP000000000009567902 C       
093001030TA               000004201000000005000004229000000003R    TT000000000009571202 C       
093001045KA               000004201000000002000004223000000001R    KK000000000009608502 C       
093001054DA               000003800000000001000000000000000000RFLOWDD000000000009631401AC      A
093001055DA               000003800000000001000005200000000001RFLOWDD000000000009634401AC      A
093001056DA               000003980000000001000005200000000001RFLOWDD000000000009639101AC      A
093001056DA               000003980000000001000004322000000001RFLOWDD000000000009640001AC      A
093001067NA               000004215000000025000004223000000003R    NN000000000009672100ACB     A
093001082PA               000004206000000001000004229000000003R    PP000000000009685600 C       
093001082PA               000004201000000002000004229000000003R    PP000000000009686000 C       
093001084DA               000004005000000001000004322000000001RFLOWDD000000000009687801AC      A
093001089KA               000004202000000001000004223000000001R    KK000000000009691700 C       
093001089NA               000004216000000001000004223000000003R    NN000000000009692210ACB     A
093001097DA               000004005000000001000004300000000004RFLOWDD000000000009709701AC      A
093001099DA               000004005000000001000004300000000012RFLOWDD000000000009716101AC      A
093001118ZA               000004210000000001000004229000000003R    ZZ000000000009751700 C       
093001118ZA               000004210000000002000004229000000002R    ZZ000000000009752400 C       
093001130BA               000004201000000002000004242000000002R    BB000000000009763100 C       
093001130PA               000004201000000002000004229000000001R    PP000000000009763200 C       
093001130TA               000004201000000005000004229000000001R    TT000000000009763300 C       
093001130PA               000004201000000002000004242000000003R    PP000000000009763500 C       
093001130ZA               000004210000000002000004242000000003R    ZZ000000000009763600 C       
093001130TA               000004201000000005000004242000000003R    TT000000000009763700 C       
093001130TA               000004201000000005000004242000000002R    TT000000000009763800 C       
093001130ZA               000004210000000002000004242000000002R    ZZ000000000009764000 C       
093001130PA               000004201000000002000004242000000002R    PP000000000009764400 C       
093001130YA               000004201000000002000004242000000002R    YY000000000009764700 C       
093001130NA               000004216000000002000004223000000003R    NN000000000009764810ACB     A
093001130TA               000004201000000005000004242000000003R    TT000000000009765200 C       
093001132JA               000004201000000002000004242000000002R    JJ000000000009767700 C       
093001145TA               000004201000000005000004234000000001R    TT000000000009774600 C       
093001145TA               000004201000000005000004234000000002R    TT000000000009774800 C       
093001179KA               000004201000000002000004223000000001R    KK000000000009808700 C       
093001237TA               000004210000000001000004234000000002R    TT000000000009840300 C       
093001237TA               000004210000000002000004234000000002R    TT000000000009840400 C       
093001237TA               000004210000000002000004234000000005R    TT000000000009840500 C       
093001243ZA               000004210000000001000004242000000002R    ZZ000000000009842600 C       
093001243ZA               000004201000000003000004242000000002R    ZZ000000000009842700 C       
093001244NA               000004216000000001000004223000000003R    NN000000000009842810ACB     A
093001246NA               000004211000000001000004223000000003R    NN000000000009843310ACB     A
093001247PA               000004201000000002000004223000000001R    PP000000000009843600 C       
093001313TA               000004210000000003000004234000000005R    TT000000000009866000 C       
093001552NA               000004211000000001000004223000000003R    NN000000000009914600ACC     A
093001636KA               000004206000000001000004223000000001R    KK000000000009938900 C       
093001648TA               000004210000000002000004234000000005R    TT000000000009941300 C       
093001648TA               000004210000000001000004234000000005R    TT000000000009941400 C       
093001688TA               000004211000000001000004234000000005R    TT000000000009951600 C       
093001845TA               000004211000000001000004234000000004R    TT000000000009984000 C       
093001850NA               000004211000000001000004223000000003R    NN000000000009987560ACB     A
093001859NA               000004211000000001000004223000000003R    NN000000000009990800ACC     A
093002024NA               000004211000000001000004223000000003R    NN000000000010040900ACA     A
093002052NA               000004211000000001000004223000000003R    NN000000000010060500ACC     A
093003298NA               000004211000000001000004223000000003R    NN000000000010228900ACC     A
093003299NA               000004211000000001000004225000000001R    NN000000000010229460ACC     A
093003299NA               000004211000000002000004225000000001R    NN000000000010229560ACC     A
093003301NA               000004212000000001000004225000000001R    NN000000000010229660ACC     A
093003301NA               000004212000000001000004225000000001R    NN000000000010229700ACB     A
093003301NA               000004212000000002000004225000000001R    NN000000000010229860ACB     A
093003302NA               000004212000000002000004225000000001R    NN000000000010229900ACC     A
093003318NA               000004212000000003000004225000000001R    NN000000000010233160ACC     A
093003415TA               000004211000000002000004234000000004R    TT000000000010247100 C       
093003514BA               000004202000000010000004242000000002R    BB000000000010251800 C       
093003514BA               000004202000000010000004235000000010R    BB000000000010251900 C       
093003514BA               000004202000000011000004235000000010R    BB000000000010252000 C       
093003514BA               000004202000000011000004235000000011R    BB000000000010252100 C       
093003514XA               000004205000000023000000000000000000R    XX000000000010252200 C       
093003514XA               000004205000000023000004232000000023R    XX000000000010252300 C       
093003564YA               000004205000000011000004242000000002R    YY000000000010254300 C       
093003564JA               000004201000000002000004232000000002R    JJ000000000010254400 C       
093003564YA               000004205000000011000004230000000011R    YY000000000010254500 C       
093003564JA               000004205000000002000004232000000002R    JJ000000000010254600 C       
093003564JA               000004205000000003000004232000000002R    JJ000000000010254700 C       
093003564YA               000004205000000012000004230000000011R    YY000000000010254900 C       
093003564YA               000004205000000012000004230000000012R    YY000000000010255000 C       
093003564JA               000004205000000003000004230000000001R    JJ000000000010255100 C       
093003566DA               000004205000000020000004300000000012RFLOWDD000000000010255201AC      A
093003566DA               000004205000000020000004230000000020RFLOWDD000000000010255301AC      A
093003573NA               000004212000000002000004225000000001R    NN000000000010260660ACC     A
093003638NA               000004212000000002000004223000000001R    NN000000000010271700ACC     A
093003639NA               000004212000000002000004223000000002R    NN000000000010271810ACC     A
093003681TA               000004212000000001000004234000000004R    TT000000000010273500 C       
093003682TA               000004212000000002000004234000000004R    TT000000000010273600 C       
093004008NA               000004212000000002000004223000000001R    NN000000000010310960ACC     A
093004983MA               000004205000000009000000000000000000R    MM000000000010387500 C       
093004984MA               000004205000000009000004230000000009R    MM000000000010387600 C       
093005098YA               000004205000000011000004230000000012R    YY000000000010420900 C       
093005098YA               000004205000000011000004230000000011R    YY000000000010421000 C       
093005098JA               000004205000000002000004230000000001R    JJ000000000010421100 C       
093005098JA               000004205000000002000004232000000002R    JJ000000000010421200 C       
093005099TA               000004212000000001000004234000000004R    TT000000000010421360 C       
093005139YA               000004205000000011000004230000000011R    YY000000000010422300ACB     A
093005160KA               000004207000000001000004223000000001R    KK000000000010424900 C       
093005937NA               000004212000000001000004223000000001R    NN000000000010500060ACC     A
093005937NA               000004212000000002000004223000000001R    NN000000000010500160ACC     A
093006205KA               000004207000000002000004223000000001R    KK000000000010543100 C       
093006328TA               000004212000000001000004223000000001R    TT000000000010560000 C       
093006328TA               000004212000000001000004223000000002R    TT000000000010560160 C       
093006741TA               000004212000000001000004223000000001R    TT000000000010606760 C       
093006969BA               000004202000000011000004223000000001R    BB000000000010625900 C       
093006969BA               000004202000000011000004223000000002R    BB000000000010626060 C       
093006969YA               000004205000000011000004223000000001R    YY000000000010626100ACB     A
093006969YA               000004205000000011000004223000000002R    YY000000000010626200ACB     A
093006969JA               000004205000000002000004223000000001R    JJ000000000010626300 C       
093007185JA               000004205000000002000004232000000002R    JJ000000000010651200 C       
093007185YA               000004205000000011000004223000000001R    YY000000000010651300ACB     A
093007185BA               000004202000000011000004223000000001R    BB000000000010651460 C       
093007298PA               000004212000000001000004223000000001R    PP000000000010658360 C       
093007298PA               000004212000000002000004223000000001R    PP000000000010658500 C       
093007311BA               000004212000000001000004223000000001R    BB000000000010659900 C       
093007311BA               000004212000000002000004223000000001R    BB000000000010660000 C       
093007319BA               000004212000000002000004235000000011R    BB000000000010660500 C       
093007319YA               000004205000000011000004230000000011R    YY000000000010660600ACB     A
093007513PA               000004212000000001000004223000000001R    PP000000000010677900 C       
093007513YA               000004205000000011000004242000000002R    YY000000000010678000ACB     A
093007513BA               000004212000000001000004235000000011R    BB000000000010678300 C       
093007514DA               000004205000000020000004300000000012RFLOWDD000000000010678501AC      A
093007541BA               000004212000000001000004223000000001R    BB000000000010682900 C       
093007541BA               000004212000000001000004223000000002R    BB000000000010683060 C       
093007541YA               000004205000000011000004223000000001R    YY000000000010683100ACB     A
093007541JA               000004205000000002000004223000000001R    JJ000000000010683200 C       
093007541YA               000004205000000011000004223000000002R    YY000000000010683300ACB     A
093007542BA               000004202000000011000004223000000002R    BB000000000010683760 C       
093007543NA               000004212000000001000004223000000001R    NN000000000010683860ACC     A
093007544PA               000004201000000002000004223000000001R    PP000000000010684700 C       
093007545NA               000004210000000001000004223000000001R    NN000000000010684900ACC     A
093007588JA               000004205000000002000004232000000002R    JJ000000000010688700 C       
093007588YA               000004205000000011000004223000000001R    YY000000000010688860ACB     A
093007588BA               000004202000000011000004223000000001R    BB000000000010688960 C       
093007697NA               000004211000000001000004223000000001R    NN000000000010698500ACC     A
093007697NA               000004211000000002000004223000000001R    NN000000000010698600ACC     A
093007699PA               000004212000000001000004223000000001R    PP000000000010698700 C       
093007699PA               000004212000000002000004223000000001R    PP000000000010698860 C       
093007699NA               000004212000000001000004223000000001R    NN000000000010698900ACC     A
093007755PA               000004212000000001000004223000000001R    PP000000000010702160 C       
093007755BA               000004202000000011000004235000000011R    BB000000000010702200 C       
093007755YA               000004205000000011000004242000000002R    YY000000000010702300ACB     A
093007763NA               000004212000000002000004223000000001R    NN000000000010702460ACC     A
093007767NA               000004213000000001000004223000000001R    NN000000000010702860ACC     A
093007768NA               000004213000000001000004223000000001R    NN000000000010702900ACB     A
093007768NA               000004213000000002000004223000000001R    NN000000000010703060ACB     A
093007768NA               000004213000000002000004223000000001R    NN000000000010703100ACC     A
093007768PA               000004201000000002000004223000000001R    PP000000000010703200 C       
093007789NA               000004213000000003000004223000000001R    NN000000000010704060ACC     A
093008393YA               000004205000000011000004231000000010R    YY000000000010807600ACB     A
093008393YA               000004205000000011000004231000000011R    YY000000000010807700ACB     A
093008393JA               000004205000000002000004231000000001R    JJ000000000010807800 C       
093008395DA               000004205000000020000004231000000019RFLOWDD000000000010807901AC      A
093008403NA               000004213000000002000004223000000001R    NN000000000010808660ACC     A
093008450BA               000004202000000011000004223000000001R    BB000000000010815500 C       
093008450BA               000004202000000011000004223000000002R    BB000000000010815660 C       
093008450YA               000004205000000011000004223000000001R    YY000000000010815700ACB     A
093008455NA               000004213000000001000004223000000001R    NN000000000010816060ACC     A
093008455NA               000004213000000001000004225000000001R    NN000000000010816100ACC     A
093008455NA               000004213000000001000004223000000001R    NN000000000010816200ACC     A
093008456NA               000004213000000001000004223000000002R    NN000000000010816300ACC     A
093008458NA               000004210000000001000004223000000002R    NN000000000010816460ACC     A
093008481BA               000004202000000011000004223000000001R    BB000000000010817860 C       
093008502NA               000004210000000001000004223000000001R    NN000000000010818760ACC     A
093008969PA               000004207000000001000004223000000001R    PP000000000010861300 C       
093008970PA               000004207000000002000004223000000001R    PP000000000010861400 C       
093009589PA               000004207000000001000004223000000001R    PP000000000010941400 C       
093009589YA               000004205000000011000004231000000011R    YY000000000010941600ACB     A
093009589PA               000004212000000001000004223000000001R    PP000000000010941800 C       
093009589BA               000004202000000011000004235000000011R    BB000000000010942300 C       
093009590NA               000004212000000001000004223000000001R    NN000000000010943900ACC     A
093009590NA               000004212000000002000004223000000001R    NN000000000010944660ACC     A
093009596NA               000004212000000003000004223000000001R    NN000000000010948660ACC     A
093009603YA               000004205000000011000004231000000001R    YY000000000010954800ACB     A
093009603JA               000004205000000002000004232000000002R    JJ000000000010954900 C       
093009603YA               000004205000000011000004242000000002R    YY000000000010955100ACB     A
093009615DA               000004205000000020000004300000000012RFLOWDD000000000010958701AC      A
093009615NA               000004213000000001000004223000000001R    NN000000000010958860ACC     A
093009616NA               000004213000000001000004223000000001R    NN000000000010959100ACB     A
093009616NA               000004213000000002000004223000000001R    NN000000000010959260ACB     A
093009616NA               000004213000000002000004223000000001R    NN000000000010959400ACC     A
093009616PA               000004207000000001000004223000000001R    PP000000000010959500 C       
093009623NA               000004213000000003000004223000000001R    NN000000000010960960ACC     A
093010230KA               000004207000000001000004223000000001R    KK000000000011142060 C       
093010231PA               000004208000000001000004223000000001R    PP000000000011142100 C       
093010231PA               000004208000000002000004223000000001R    PP000000000011142200 C       
093010239NA               000004213000000002000004223000000001R    NN000000000011142560ACC     A
093010408PA               000004208000000001000004223000000001R    PP000000000011170000 C       
093010410NA               000004213000000001000004223000000001R    NN000000000011170260ACC     A
093010410YA               000004205000000011000004232000000010R    YY000000000011170300ACB     A
093010411JA               000004205000000002000004232000000003R    JJ000000000011170400 C       
093010411YA               000004205000000011000004232000000011R    YY000000000011170500ACB     A
093010411NA               000004213000000001000004223000000001R    NN000000000011170600ACB     A
093010412DA               000004205000000020000004233000000019RFLOWDD000000000011170701AC      A
093010414NA               000004213000000001000004223000000001R    NN000000000011171500ACB     A
093010414NA               000004212000000001000004223000000001R    NN000000000011171660ACC     A
093010415YA               000004205000000011000004223000000001R    YY000000000011171700ACB     A
093010415JA               000004205000000002000004223000000001R    JJ000000000011171800 C       
093010415YA               000004205000000011000004223000000002R    YY000000000011171960ACB     A
093010416BA               000004202000000011000004223000000001R    BB000000000011172200 C       
093010416BA               000004202000000011000004223000000002R    BB000000000011172400 C       
093010479NA               000004213000000007000004223000000001R    NN000000000011182960ACC     A
093010479NA               000004213000000008000004223000000001R    NN000000000011183060ACC     A
093010479NA               000004213000000008000004223000000001R    NN000000000011183100ACB     A
093010480NA               000004213000000008000004223000000001R    NN000000000011183200ACC     A
093010480BA               000004202000000011000004223000000001R    BB000000000011183300 C       
093010480BA               000004202000000011000004235000000011R    BB000000000011183400 C       
093010480JA               000004205000000002000004232000000003R    JJ000000000011183500 C       
093010480YA               000004205000000011000004223000000001R    YY000000000011183660ACB     A
093010480YA               000004205000000011000004232000000011R    YY000000000011183700ACB     A
093010480NA               000004213000000008000004225000000001R    NN000000000011183800ACC     A
093010483NA               000004213000000009000004225000000001R    NN000000000011184360ACC     A
093010486NA               000004214000000001000004225000000001R    NN000000000011185060ACC     A
093010487NA               000004214000000001000004225000000001R    NN000000000011185300ACB     A
093010487NA               000004214000000002000004225000000001R    NN000000000011185460ACB     A
093010487NA               000004214000000002000004225000000001R    NN000000000011185600ACC     A
093010509NA               000004214000000003000004225000000001R    NN000000000011188760ACC     A
093010892NA               000004214000000002000004225000000001R    NN000000000011288960ACC     A
093010914PA               000004208000000001000004241000000001R    PP000000000011291400 C       
093010921NA               000004214000000002000004223000000001R    NN000000000011293600ACC     A
093010921NA               000004214000000002000004223000000002R    NN000000000011293710ACC     A
093010950PA               000004208000000001000004225000000001R    PP000000000011294600 C       
093010950PA               000004208000000001000004225000000002R    PP000000000011294700 C       
093012180KA               000004201000000002000004223000000001R    KK000000000011509100 C       
093012180NA               000004214000000002000004223000000001R    NN000000000011509460ACC     A
093012573PA               000004208000000001000004225000000001R    PP000000000011554800 C       
093012574DA               000004205000000020000004300000000012RFLOWDD000000000011554901AC      A
093012761ZA               000004209000000001000004242000000002R    ZZ000000000011576900 C       
093012762ZA               000004209000000002000004242000000002R    ZZ000000000011577000 C       
093013465DA               000004205000000020000004231000000019RFLOWDD000000000011663101AC      A
093014262KA               000004201000000002000004223000000002R    KK000000000011762760 C       
093014590NA               000004214000000001000004223000000001R    NN000000000011792160ACC     A
093014590NA               000004214000000002000004223000000001R    NN000000000011792260ACC     A
093014591NA               000004214000000002000004225000000001R    NN000000000011792300ACC     A
093014591NA               000004214000000002000004223000000001R    NN000000000011792400ACC     A
093014591NA               000004214000000002000004223000000002R    NN000000000011792500ACC     A
093014591NA               000004214000000002000004223000000001R    NN000000000011792600ACC     A
093014592NA               000004214000000002000004225000000001R    NN000000000011792700ACC     A
093014603NA               000004214000000002000004223000000001R    NN000000000011793100ACC     A
093015256PA               000004207000000001000004225000000001R    PP000000000011874200 C       
093015268ZA               000004209000000002000004223000000001R    ZZ000000000011874600 C       
093015268ZA               000004209000000002000004223000000002R    ZZ000000000011874700 C       
093016757PA               000004207000000001000004241000000001R    PP000000000011960700 C       
093016757ZA               000004209000000002000004223000000001R    ZZ000000000011960800 C       
093016790YA               000004205000000011000004223000000001R    YY000000000011969300ACB     A
093016790YA               000004205000000011000004223000000002R    YY000000000011969400ACB     A
093016790JA               000004205000000002000004223000000001R    JJ000000000011969500 C       
093017915PA               000004207000000001000004223000000001R    PP000000000012050200 C       
093017916BA               000004202000000011000004223000000001R    BB000000000012050300 C       
093017916PA               000004207000000001000004223000000002R    PP000000000012050400 C       
093017916BA               000004202000000011000004223000000002R    BB000000000012050500 C       
093018524PA               000004214000000007000004223000000002R    PP000000000012099760 C       
093018524PA               000004214000000008000004223000000002R    PP000000000012099860 C       
093018524PA               000004214000000008000004223000000001R    PP000000000012099900 C       
093018524NA               000004214000000002000004223000000001R    NN000000000012100000ACB     A
093018524JA               000004205000000002000004232000000003R    JJ000000000012100100 C       
093018524YA               000004205000000011000004223000000001R    YY000000000012100200ACB     A
093018525BA               000004202000000011000004223000000001R    BB000000000012100300 C       
093018525NA               000004214000000002000004223000000001R    NN000000000012100400ACC     A
093018535NA               000004214000000002000004225000000001R    NN000000000012100600ACC     A
093018789NA               000004214000000001000004225000000001R    NN000000000012130000ACC     A
093018793NA               000004209000000006000004225000000001R    NN000000000012130200ACC     A
093018793PA               000004214000000007000004223000000001R    PP000000000012130360 C       
093018793NA               000004209000000006000004225000000001R    NN000000000012130400ACB     A
093018795NA               000004214000000001000004225000000001R    NN000000000012134000ACB     A
093018795NA               000004214000000001000004225000000001R    NN000000000012134300ACC     A
093018796NA               000004214000000002000004225000000001R    NN000000000012134400ACC     A
093018896NA               000004214000000003000004225000000001R    NN000000000012143700ACC     A
093018897NA               000004214000000002000004225000000001R    NN000000000012143800ACC     A
093019637NA               000004214000000001000004225000000001R    NN000000000012174300ACC     A
093020830BA               000004214000000001000004223000000001R    BB000000000012226300 C       
093020830BA               000004214000000002000004223000000001R    BB000000000012226400 C       
093021459BA               000004214000000001000004223000000001R    BB000000000012258300 C       
093021459BA               000004202000000011000004223000000001R    BB000000000012258400 C       
093021584NA               000004214000000001000004223000000001R    NN000000000012261200ACC     A
093021585NA               000004214000000001000004223000000002R    NN000000000012261300ACC     A
093021586NA               000004209000000006000004223000000002R    NN000000000012261400ACC     A
093021587NA               000004209000000006000004223000000002R    NN000000000012261500ACB     A
093021713JA               000004201000000002000004232000000003R    JJ000000000012263600 C       
093021713YA               000004201000000002000004223000000001R    YY000000000012263700ACB     A
093021713NA               000004209000000006000004223000000001R    NN000000000012263800ACB     A
093021715NA               000004207000000019000004223000000001R    NN000000000012263900ACB     A
093022593YA               000004207000000009000004223000000001R    YY000000000012308200ACB     A
093022593YA               000004207000000010000004223000000001R    YY000000000012308300ACB     A
093022593JA               000004207000000001000004232000000003R    JJ000000000012308400 C       
093022923BA               000004202000000001000004223000000001R    BB000000000012313600 C       
093022923BA               000004201000000002000004223000000001R    BB000000000012313700 C       
093022933XA               000000000000000000000004232000000023R    XX000000000012313900 C       
093023704XA               000004200000000019000004232000000023R    XX000000000012358000 C       
093030413XA               000000000000000000000004232000000023R    XX000000000012709200 C       
093031184XA               000004207000000018000004232000000023R    XX000000000012744900 C       
093031613BA               000004204000000007000004223000000001R    BB000000000012766600 C       
093031613BA               000004204000000008000004223000000001R    BB000000000012766700 C       
093031723JA               000004207000000003000004232000000003R    JJ000000000012772500 C       
093032283NA               000004209000000005000004223000000001R    NN000000000012803800ACB     A
093033248ZA               000004214000000001000004223000000001R    ZZ000000000012879600 C       
093033248ZA               000004214000000002000004223000000001R    ZZ000000000012879700 C       
093033248NA               000004209000000005000004223000000001R    NN000000000012879800ACC     A
093033248NA               000004214000000001000004223000000001R    NN000000000012879900ACC     A
093040109TA               000004211000000001000004223000000001R    TT000000000013307600 C       
093040109ZA               000004214000000001000004223000000001R    ZZ000000000013307700 C       
093040115TA               000004209000000003000004223000000001R    TT000000000013308000 C       
093040116TA               000004209000000006000004223000000001R    TT000000000013308200 C       
093040120TA               000004214000000001000004223000000001R    TT000000000013308800 C       
093040120TA               000004214000000002000004223000000001R    TT000000000013308900 C       
093040121TA               000004214000000003000004223000000001R    TT000000000013309200 C       
093041979ZA               000004215000000001000004223000000001R    ZZ000000000013495660 C       
093041980PA               000004214000000007000004239000000001R    PP000000000013495800 C       
093041980NA               000004214000000001000004223000000001R    NN000000000013495900ACB     A
093041980BA               000004204000000008000004235000000011R    BB000000000013496000 C       
093041980NA               000004214000000001000004223000000001R    NN000000000013496200ACC     A
093041981PA               000004214000000007000004240000000001R    PP000000000013496300 C       
093041981PA               000004214000000007000004240000000002R    PP000000000013496400 C       
093042009NA               000004215000000001000004223000000001R    NN000000000013509700ACC     A
093042010NA               000004215000000002000004223000000001R    NN000000000013509860ACC     A
093042342YA               000004207000000010000004230000000008R    YY000000000013548700ACB     A
093042342NA               000004215000000001000004223000000001R    NN000000000013548860ACC     A
093042374PA               000004214000000007000004224000000001R    PP000000000013550700 C       
093043164MA               000000000000000000000004230000000009R    MM000000000013648300 C       
093043164DA               000004005000000001000004231000000019RFLOWDD000000000013648401AC      A
093043934MA               000004208000000006000004230000000009R    MM000000000013715700 C       
093044045DA               000004208000000013000004231000000019RFLOWDD000000000013723001AC      A
093044757NA               000004215000000001000004223000000001R    NN000000000013783700ACC     A
093045330PA               000004214000000007000004240000000002R    PP000000000013854300 C       
093045363YA               000004207000000010000004223000000001R    YY000000000013858600ACB     A
093045363YA               000004207000000010000004223000000002R    YY000000000013858700ACB     A
093045363JA               000004207000000003000004223000000001R    JJ000000000013858800 C       
093045882JA               000004207000000003000004232000000003R    JJ000000000013888800 C       
093045882YA               000004207000000010000004223000000001R    YY000000000013888900ACB     A
093045882TA               000004214000000002000004223000000001R    TT000000000013889000 C       
093047171NA               000004215000000008000004223000000001R    NN000000000014031960ACC     A
093047249PA               000004208000000003000004240000000002R    PP000000000014036300 C       
093051386TA               000004214000000002000004223000000002R    TT000000000014365700 C       
093054043PA               000004208000000003000004239000000001R    PP000000000014557500 C       
093054044PA               000004208000000003000004239000000002R    PP000000000014557600 C       
093054044PA               000004208000000003000004239000000001R    PP000000000014557700 C       
093055801PA               000004208000000003000004240000000001R    PP000000000014677400 C       
093055802PA               000004208000000003000004240000000002R    PP000000000014677600 C       
093056792PA               000004208000000003000004239000000001R    PP000000000014771900 C       
093057408TA               000004214000000002000004223000000001R    TT000000000014825400 C       
093057408NA               000004215000000007000004223000000001R    NN000000000014825660ACC     A
093057408ZA               000004215000000001000004223000000003R    ZZ000000000014825860 C       
093057409NA               000004215000000007000004223000000001R    NN000000000014826000ACB     A
093057409PA               000004208000000003000004229000000003R    PP000000000014826300 C       
093057409PA               000004208000000003000004229000000004R    PP000000000014826500 C       
093057416NA               000004215000000007000004223000000001R    NN000000000014827100ACC     A
093059036DA               000004005000000001000004231000000019RFLOWDD000000000014943101AC      A
093100354ZA               000004214000000001000004223000000003R    ZZ000000000015316100 C       
093100354ZA               000004214000000001000004222000000001R    ZZ000000000015316360 C       
093100354YA               000004207000000010000004219000000001R    YY000000000015316460 C       
093100354ZA               000004214000000001000004222000000002R    ZZ000000000015316500 C       
093100354ZA               000004214000000001000004222000000003R    ZZ000000000015316700 C       
093100354YA               000004207000000010000004223000000001R    YY000000000015316860ACB     A
093100354NA               000004215000000007000004223000000001R    NN000000000015317000ACB     A
093100354TA               000004214000000002000004222000000001R    TT000000000015317200 C       
093100354TA               000004214000000002000004222000000002R    TT000000000015318100 C       
093100354NA               000004214000000002000004223000000001R    NN000000000015318460ACB     A
093100354NA               000004214000000001000004223000000001R    NN000000000015318500ACB     A
093100355NA               000004214000000001000004223000000001R    NN000000000015318600ACC     A
093100355DA               000004207000000010000004231000000019RFLOWDD000000000015318701AC      A
093100355TA               000004214000000002000004221000000001R    TT000000000015318810 C       
093100355NA               000004214000000001000004223000000001R    NN000000000015318900 C       
093100355KA               000004201000000002000004223000000001R    KK000000000015319000 C       
093100355KA               000004201000000002000004228000000002R    KK000000000015319100 C       
093100355NA               000004214000000001000004223000000001R    NN000000000015319200ACC     A
093100356KA               000004201000000002000004222000000001R    KK000000000015319300 C       
093100356KA               000004201000000002000004222000000002R    KK000000000015319500 C       
093100375NA               000004214000000001000004224000000001R    NN000000000015321700ACC     A
093100398PA               000004208000000003000004223000000001R    PP000000000015332000 C       
093100398PA               000004208000000003000004223000000002R    PP000000000015332100 C       
093100444ZA               000004214000000001000004222000000002R    ZZ000000000015346500 C       
093100444ZA               000004214000000001000004222000000001R    ZZ000000000015346600 C       
093100444ZA               000004214000000001000004223000000003R    ZZ000000000015346900 C       
093100445TA               000004214000000002000004222000000001R    TT000000000015347360 C       
093100445NA               000004214000000001000004224000000001R    NN000000000015347400ACB     A
093100446NA               000004214000000001000004224000000001R    NN000000000015347500ACC     A
093100446NA               000004214000000001000004225000000001R    NN000000000015347600ACC     A
093100474NA               000004214000000001000004222000000001R    NN000000000015357500ACC     A
093100476NA               000004214000000001000004222000000002R    NN000000000015358000ACC     A
093100750YA               000004207000000010000004230000000014R    YY000000000015471500ACB     A
093100794YA               000004207000000010000004222000000001R    YY000000000015480200ACB     A
093100794YA               000004207000000010000004222000000002R    YY000000000015480300ACB     A
093100794JA               000004207000000003000004222000000001R    JJ000000000015480400 C       
093100808NA               000004214000000001000004221000000001R    NN000000000015481760ACC     A
093100809NA               000004214000000001000004221000000002R    NN000000000015481860ACC     A
093100809NA               000004214000000001000004221000000002R    NN000000000015481900ACB     A
093100809NA               000004214000000001000004221000000002R    NN000000000015482000ACC     A
093101015NA               000004214000000001000004221000000001R    NN000000000015515460ACC     A
093101016NA               000004214000000001000004222000000001R    NN000000000015515560ACC     A
093101016NA               000004214000000001000004222000000001R    NN000000000015515700ACB     A
093101016NA               000004214000000001000004222000000001R    NN000000000015516000ACC     A
093101077NA               000004214000000001000004221000000001R    NN000000000015555760ACC     A
093101077NA               000004214000000001000004221000000002R    NN000000000015555860ACC     A
093101077NA               000004214000000001000004221000000002R    NN000000000015556000ACB     A
093101078NA               000004214000000001000004221000000002R    NN000000000015556200ACC     A
093101327TA               000004214000000002000004221000000001R    TT000000000015616500 C       
093101327TA               000004214000000002000004221000000002R    TT000000000015616600 C       
093101328NA               000004214000000001000004221000000001R    NN000000000015616760ACC     A
093101334NA               000004214000000001000004222000000001R    NN000000000015618000ACC     A
093101334YA               000004207000000010000004222000000001R    YY000000000015618800ACB     A
093101334JA               000004207000000003000004232000000003R    JJ000000000015618900 C       
093101356KA               000004201000000002000004222000000001R    KK000000000015621700 C       
093101356KA               000004201000000002000004228000000002R    KK000000000015621800 C       
093101357KA               000004201000000002000004221000000001R    KK000000000015622200 C       
093101357KA               000004201000000002000004221000000002R    KK000000000015622300 C       
093101358ZA               000004214000000001000004223000000001R    ZZ000000000015622500 C       
093101361ZA               000004214000000001000004221000000002R    ZZ000000000015623200 C       
093101361ZA               000004214000000001000004221000000003R    ZZ000000000015623360 C       
093101765ZA               000004209000000001000004221000000003R    ZZ000000000015699000 C       
093101765ZA               000004209000000001000004221000000002R    ZZ000000000015699160 C       
093101765PA               000004207000000001000004223000000002R    PP000000000015699200 C       
093101766NA               000004211000000001000004222000000001R    NN000000000015699400ACC     A
093101766NA               000004211000000001000004222000000001R    NN000000000015699500ACB     A
093101766NA               000004211000000001000004220000000001R    NN000000000015699760 C       
093101766TA               000004214000000002000004220000000001R    TT000000000015699800 C       
093101766NA               000004211000000001000004220000000002R    NN000000000015699960 C       
093101766TA               000004214000000002000004220000000002R    TT000000000015700000 C       
093101767BA               000004204000000008000004235000000018R    BB000000000015700100 C       
093101767NA               000004210000000007000004220000000002R    NN000000000015700260 C       
093101767ZA               000004209000000001000004221000000002R    ZZ000000000015700300 C       
093101767NA               000004210000000007000004220000000002R    NN000000000015700400ACB     A
093101767ZA               000004209000000001000004220000000001R    ZZ000000000015700600 C       
093101767ZA               000004209000000001000004219000000001R    ZZ000000000015700760 C       
093101767TA               000004214000000002000004219000000001R    TT000000000015700800 C       
093101767NA               000004210000000007000004220000000002R    NN000000000015700900 C       
093101772TA               000004214000000001000004219000000001R    TT000000000015701860 C       
093101774NA               000004210000000007000004219000000001R    NN000000000015702200 C       
093101774NA               000004210000000007000004219000000002R    NN000000000015702360 C       
093101775NA               000004210000000006000004219000000002R    NN000000000015702400 C       
093101778KA               000004201000000002000004220000000001R    KK000000000015703100 C       
093101857ZA               000004209000000001000004220000000001R    ZZ000000000015716000 C       
093101857ZA               000004209000000001000004221000000003R    ZZ000000000015716100 C       
093101857ZA               000004209000000001000004221000000002R    ZZ000000000015716200 C       
093101857TA               000004214000000001000004220000000001R    TT000000000015716300 C       
093101858NA               000004210000000006000004219000000001R    NN000000000015716460 C       
093101858NA               000004210000000006000004220000000001R    NN000000000015716560 C       
093101858NA               000004214000000001000004220000000001R    NN000000000015716600 C       
093101859NA               000004214000000001000004220000000001R    NN000000000015716700ACA     A
093101859NA               000004214000000002000004220000000001R    NN000000000015716860ACA     A
093101859NA               000004214000000002000004220000000001R    NN000000000015716900ACC     A
093101895NA               000004214000000001000004220000000001R    NN000000000015725360ACC     A
093101915NA               000004210000000003000004220000000001R    NN000000000015727300ACC     A
093101916NA               000004210000000003000004220000000001R    NN000000000015727400ACB     A
093101916NA               000004210000000003000004219000000001R    NN000000000015727560 C       
093101916NA               000004210000000003000004219000000002R    NN000000000015727660 C       
093101917NA               000004210000000002000004219000000002R    NN000000000015727700 C       
093101944TA               000004214000000001000004219000000001R    TT000000000015731000 C       
093101944TA               000004214000000001000004219000000002R    TT000000000015731100 C       
093102005DA               000004207000000010000004300000000012RFLOWDD000000000015735001AC      A
093102075JA               000004207000000001000004232000000003R    JJ000000000015746700 C       
093102076TA               000004210000000002000004219000000002R    TT000000000015746960 C       
093102076BA               000004204000000008000004229000000002R    BB000000000015747000 C       
093102076TA               000004210000000002000004218000000001R    TT000000000015747160 C       
093102076PA               000004207000000001000004219000000001R    PP000000000015747200 C       
093102076TA               000004210000000002000004218000000002R    TT000000000015747360 C       
093102076BA               000004204000000008000004229000000003R    BB000000000015747400 C       
093102076TA               000004210000000002000004218000000003R    TT000000000015747560 C       
093102076NA               000004210000000002000004219000000002R    NN000000000015747660ACB     A
093102076JA               000004207000000001000004229000000002R    JJ000000000015747700 C       
093102076BA               000004204000000008000004219000000001R    BB000000000015747800 C       
093102076ZA               000004209000000001000004221000000003R    ZZ000000000015747900 C       
093102077PA               000004207000000001000004219000000002R    PP000000000015748000 C       
093102077NA               000004210000000002000004219000000002R    NN000000000015748100 C       
093102077PA               000004207000000001000004219000000001R    PP000000000015748200 C       
093102077NA               000004210000000002000004219000000002R    NN000000000015748300ACB     A
093102077BA               000004204000000008000004229000000003R    BB000000000015748400 C       
093102077PA               000004207000000001000004223000000002R    PP000000000015748500 C       
093102077NA               000004210000000002000004219000000002R    NN000000000015748600ACC     A
093102083NA               000004210000000003000004219000000002R    NN000000000015748860ACC     A
093102083NA               000004210000000003000004218000000001R    NN000000000015748900ACC     A
093102084NA               000004210000000003000004218000000002R    NN000000000015749000ACC     A
093102166TA               000004210000000002000004218000000002R    TT000000000015757860 C       
093102168NA               000004210000000003000004218000000001R    NN000000000015757960ACC     A
093102168MA               000000000000000000000004230000000009R    MM000000000015758000 C       
093102169NA               000004210000000003000004219000000002R    NN000000000015758100ACC     A
093102169TA               000004210000000002000004218000000001R    TT000000000015758260 C       
093102170TA               000004210000000002000004219000000002R    TT000000000015758360 C       
093102170NA               000004210000000003000004219000000002R    NN000000000015758460ACA     A
093102170PA               000004207000000001000004219000000001R    PP000000000015758500 C       
093102170BA               000004204000000008000004219000000001R    BB000000000015758600 C       
093102170DA               000004005000000001000004300000000012RFLOWDD000000000015758701AC      A
093102170NA               000004210000000003000004219000000002R    NN000000000015758800ACC     A
093102170BA               000004204000000008000004219000000002R    BB000000000015758900 C       
093102170PA               000004207000000001000004219000000002R    PP000000000015759000 C       
093102173NA               000004210000000002000004219000000002R    NN000000000015759160ACC     A
093102173NA               000004210000000003000004219000000002R    NN000000000015759260ACC     A
093102197ZA               000004205000000001000004221000000003R    ZZ000000000015760700 C       
093102197YA               000004207000000009000004222000000001R    YY000000000015760800ACB     A
093102197ZA               000004204000000001000004221000000003R    ZZ000000000015760900 C       
093102197JA               000004201000000002000004229000000002R    JJ000000000015761000 C       
093102198YA               000004204000000006000004222000000001R    YY000000000015761600ACB     A
093102199NA               000004210000000003000004218000000001R    NN000000000015762010ACC     A
093102200NA               000004210000000003000004218000000001R    NN000000000015762400ACA     A
093102200NA               000004210000000003000004218000000002R    NN000000000015762510ACA     A
093102200NA               000004210000000003000004218000000002R    NN000000000015762700ACC     A
093102200PA               000004207000000001000004219000000001R    PP000000000015762900 C       
093102201BA               000004204000000008000004219000000001R    BB000000000015763000 C       
093102201BA               000004204000000008000004229000000003R    BB000000000015763100 C       
093102201PA               000004207000000001000004223000000002R    PP000000000015763300 C       
093102278TA               000004210000000001000004219000000002R    TT000000000015770200 C       
093102278ZA               000004203000000001000004221000000003R    ZZ000000000015770300 C       
093102278ZA               000004202000000001000004221000000003R    ZZ000000000015770400 C       
093102278KA               000004205000000001000004220000000001R    KK000000000015770500 C       
093102357KA               000004205000000001000004218000000001R    KK000000000015780600 C       
093102358KA               000004205000000001000004218000000002R    KK000000000015780700 C       
093102358ZA               000004202000000001000004221000000001R    ZZ000000000015780800 C       
093102358ZA               000004202000000001000004222000000001R    ZZ000000000015780900 C       
093102370ZA               000004202000000001000004218000000002R    ZZ000000000015782700 C       
093102370ZA               000004202000000001000004218000000003R    ZZ000000000015782860 C       
093102397NA               000004210000000002000004218000000002R    NN000000000015784360ACC     A
093102428TA               000004210000000001000004218000000001R    TT000000000015804200 C       
093102428TA               000004210000000001000004218000000002R    TT000000000015804400 C       
093102491ZA               000004202000000001000004218000000002R    ZZ000000000015826360 C       
093102774MA               000000000000000000000000000000000000R    MM000000000015854600 C       
093102774TA               000004204000000001000004218000000002R    TT000000000015854700 C       
093102774TA               000004204000000001000004217000000001R    TT000000000015854860 C       
093102774JA               000004188000000002000004229000000002R    JJ000000000015854900 C       
093102774TA               000004203000000002000004217000000001R    TT000000000015855000 C       
093102774TA               000004203000000002000004217000000002R    TT000000000015855160 C       
093102774TA               000004203000000002000004217000000003R    TT000000000015855260 C       
093102774YA               000004204000000003000004222000000001R    YY000000000015855300ACB     A
093102774TA               000004202000000002000004217000000003R    TT000000000015855400 C       
093102774ZA               000004201000000002000004218000000002R    ZZ000000000015855500 C       
093102774YA               000004193000000001000004222000000001R    YY000000000015855600ACB     A
093102774ZA               000004201000000001000004218000000002R    ZZ000000000015855700 C       
093102775ZA               000004200000000001000004218000000002R    ZZ000000000015855900 C       
093102775NA               000004207000000001000004218000000002R    NN000000000015856060ACC     A
093102775ZA               000004199000000001000004218000000002R    ZZ000000000015856100 C       
093102775NA               000004207000000001000004218000000002R    NN000000000015856200ACB     A
093102775ZA               000004198000000001000004218000000002R    ZZ000000000015856300 C       
093102775ZA               000004197000000001000004218000000002R    ZZ000000000015856400 C       
093102775YA               000004195000000003000004222000000001R    YY000000000015856500ACB     A
093102775TA               000004201000000003000004217000000003R    TT000000000015856600 C       
093102775NA               000004206000000001000004218000000002R    NN000000000015856700ACB     A
093102775NA               000004206000000001000004218000000001R    NN000000000015856800ACB     A
093102775ZA               000004196000000001000004218000000002R    ZZ000000000015856900 C       
093102775YA               000004195000000004000004222000000001R    YY000000000015857000ACB     A
093102775TA               000004201000000001000004217000000003R    TT000000000015857100 C       
093102775JA               000004195000000001000004229000000002R    JJ000000000015857200 C       
093102775TA               000004200000000002000004217000000003R    TT000000000015857300 C       
093102775TA               000004199000000002000004217000000003R    TT000000000015857400 C       
093102775NA               000004206000000001000004218000000001R    NN000000000015857500 C       
093102775YA               000004195000000007000004222000000001R    YY000000000015857600ACB     A
093102775ZA               000004195000000001000004218000000002R    ZZ000000000015857700 C       
093102775TA               000004204000000003000004217000000003R    TT000000000015857800 C       
093102775NA               000004206000000001000004217000000001R    NN000000000015857900 C       
093102775TA               000004204000000003000004216000000001R    TT000000000015858060 C       
093102775ZA               000004195000000001000004218000000003R    ZZ000000000015858100 C       
093102775TA               000004204000000003000004216000000002R    TT000000000015858360 C       
093102775NA               000004206000000002000004217000000001R    NN000000000015858400 C       
093102776PA               000004207000000001000004216000000001R    PP000000000015858500 C       
093102776ZA               000004194000000001000004218000000003R    ZZ000000000015858600 C       
093102776PA               000004207000000001000004216000000002R    PP000000000015858700 C       
093102776NA               000004206000000002000004217000000001R    NN000000000015858800ACB     A
093102777NA               000004206000000002000004216000000001R    NN000000000015858900ACC     A
093102777NA               000004206000000002000004216000000001R    NN000000000015859000ACA     A
093102777NA               000004206000000001000004216000000001R    NN000000000015859100ACA     A
093102777NA               000004206000000001000004216000000002R    NN000000000015859200ACA     A
093102777NA               000004206000000001000004216000000002R    NN000000000015859300ACC     A
093102777NA               000004205000000004000004216000000002R    NN000000000015859400ACC     A
093102777NA               000004205000000004000004216000000002R    NN000000000015859500ACB     A
093102803NA               000004205000000004000004216000000003R    NN000000000015863360ACB     A
093102804NA               000004207000000001000004216000000003R    NN000000000015863400ACB     A
093102804NA               000004207000000002000004216000000003R    NN000000000015863500ACB     A
093102804NA               000004207000000002000004216000000003R    NN000000000015863600ACC     A
093102865TA               000004204000000003000004216000000001R    TT000000000015869500 C       
093102865PA               000004207000000001000004216000000001R    PP000000000015869600 C       
093102865TA               000004204000000003000004217000000002R    TT000000000015869700 C       
093102919TA               000004204000000003000004217000000001R    TT000000000015879700 C       
093102919TA               000004204000000003000004218000000004R    TT000000000015879800 C       
093102919NA               000004207000000001000004216000000003R    NN000000000015879900ACC     A
093102921BA               000004204000000001000004229000000003R    BB000000000015880100 C       
093102921BA               000004191000000001000004229000000003R    BB000000000015880200 C       
093102953BA               000004190000000001000004229000000003R    BB000000000015882200 C       
093102994MA               000004200000000005000000000000000000R    MM000000000015890500 C       
093103063YA               000004195000000007000004226000000006R    YY000000000015929000ACB     A
093103093YA               000004200000000005000004226000000006R    YY000000000015937900ACB     A
093103093YA               000004200000000005000004223000000005R    YY000000000015938000ACB     A
093103093YA               000004200000000006000004223000000005R    YY000000000015938100ACB     A
093103093JA               000004200000000001000004229000000002R    JJ000000000015938200 C       
093103093YA               000004200000000006000004223000000006R    YY000000000015938300ACB     A
093103093JA               000004200000000001000004223000000001R    JJ000000000015938400 C       
093103102YA               000004200000000006000004216000000001R    YY000000000015943300ACB     A
093103103JA               000004200000000002000004223000000001R    JJ000000000015943600 C       
093103105DA               000004200000000010000004300000000012RFLOWDD000000000015943701AC      A
093103105DA               000004200000000010000004223000000010RFLOWDD000000000015943801AC      A
093103205XA               000000000000000000000004232000000023R    XX000000000015963260 C       
093103357KA               000004205000000001000004218000000001R    KK000000000015980600 C       
093103358KA               000004205000000001000004216000000001R    KK000000000015981400 C       
093103358ZA               000004194000000001000004218000000001R    ZZ000000000015984200 C       
093103358ZA               000004194000000001000004219000000001R    ZZ000000000015984900 C       
093103358ZA               000004194000000001000004220000000001R    ZZ000000000015985600 C       
093103359TA               000004204000000003000004218000000002R    TT000000000015986400 C       
093103359KA               000004205000000001000004216000000002R    KK000000000015987100 C       
093103366ZA               000004194000000001000004216000000002R    ZZ000000000015991500 C       
093103367ZA               000004194000000001000004216000000003R    ZZ000000000015991700 C       
093103373NA               000004204000000004000004216000000003R    NN000000000015995660ACC     A
093103373NA               000004204000000004000004216000000004R    NN000000000015995760ACC     A
093103374NA               000004204000000004000004216000000004R    NN000000000015995900ACB     A
093103374NA               000004204000000004000004216000000003R    NN000000000015996060ACB     A
093103543JA               000004200000000001000004223000000001R    JJ000000000016019600 C       
093103544MA               000004200000000005000004223000000005R    MM000000000016019800 C       
093103574BA               000004189000000008000004229000000003R    BB000000000016022800 C       
093103653BA               000004194000000005000004229000000003R    BB000000000016028000 C       
093103654BA               000004194000000006000004229000000003R    BB000000000016028100 C       
093104113XA               000004197000000012000004232000000023R    XX000000000016075700 C       
093104223XA               000004197000000012000000000000000000R    XX000000000016089300 C       
093104546NA               000004204000000004000004216000000002R    NN000000000016117000ACB     A
093104994XA               000004197000000012000004223000000012R    XX000000000016193000 C       
093105449KA               000004205000000001000004216000000003R    KK000000000016252200 C       
093105450TA               000004204000000003000004218000000001R    TT000000000016252300 C       
093105450TA               000004204000000003000004219000000004R    TT000000000016252400 C       
093105742NA               000004207000000001000004216000000002R    NN000000000016286200ACB     A
093105743NA               000004207000000002000004216000000002R    NN000000000016286360ACB     A
093105743NA               000004207000000002000004216000000002R    NN000000000016286400ACC     A
093105744BA               000004207000000001000004229000000003R    BB000000000016286500 C       
093105744BA               000004207000000002000004229000000003R    BB000000000016286600 C       
093105744NA               000004207000000002000004216000000003R    NN000000000016286760ACC     A
093105774NA               000004207000000001000004216000000003R    NN000000000016288300ACC     A
093105775BA               000004207000000001000004229000000003R    BB000000000016288860 C       
093105775NA               000004207000000001000004215000000001R    NN000000000016289060ACC     A
093105776NA               000004207000000001000004215000000002R    NN000000000016289160ACC     A
093105776NA               000004207000000001000004215000000002R    NN000000000016289200ACA     A
093105776PA               000004207000000001000004222000000003R    PP000000000016289360 C       
093105776BA               000004194000000006000004229000000003R    BB000000000016289460 C       
093105776NA               000004207000000001000004215000000002R    NN000000000016289560ACC     A
093105777NA               000004204000000004000004215000000002R    NN000000000016289600ACC     A
093105777KA               000004205000000001000004216000000002R    KK000000000016289700 C       
093105777KA               000004205000000001000004216000000001R    KK000000000016289800 C       
093105777NA               000004204000000004000004215000000002R    NN000000000016289900ACB     A
093105778KA               000004205000000001000004215000000001R    KK000000000016290200 C       
093105778KA               000004205000000001000004215000000002R    KK000000000016290300 C       
093106043NA               000004204000000004000004215000000003R    NN000000000016341460ACB     A
093106135YA               000004200000000006000004223000000006R    YY000000000016361100ACB     A
093106167YA               000004200000000006000004215000000001R    YY000000000016366000ACB     A
093106167YA               000004200000000006000004215000000002R    YY000000000016366100ACB     A
093106167JA               000004200000000001000004215000000001R    JJ000000000016366200 C       
093106209YA               000004200000000006000004215000000001R    YY000000000016370000ACB     A
093106209JA               000004200000000001000004223000000001R    JJ000000000016370100 C       
093106217TA               000004204000000003000004215000000001R    TT000000000016370700 C       
093106217TA               000004204000000003000004215000000002R    TT000000000016370800 C       
093106218TA               000004196000000001000004215000000002R    TT000000000016370900 C       
093106219TA               000004196000000003000004215000000002R    TT000000000016371100 C       
093107633BA               000004194000000006000004225000000005R    BB000000000016516900 C       
093107633BA               000004194000000006000004225000000006R    BB000000000016517000 C       
093108403JA               000004200000000001000004222000000001R    JJ000000000016601300 C       
093114159YA               000004204000000001000004214000000001R    YY000000000017199260 C       
093114159YA               000004204000000002000004214000000001R    YY000000000017199300 C       
093114159JA               000004204000000001000004222000000001R    JJ000000000017199400 C       
093114160YA               000004204000000002000004214000000002R    YY000000000017199560 C       
093114160JA               000004204000000001000004214000000001R    JJ000000000017199600 C       
093114160ZA               000004194000000001000004216000000001R    ZZ000000000017199800 C       
093114160YA               000004204000000002000004214000000002R    YY000000000017200000ACB     A
093114160ZA               000004194000000001000004219000000002R    ZZ000000000017200100 C       
093114161KA               000004205000000001000004215000000001R    KK000000000017200200 C       
093114161KA               000004205000000001000004216000000001R    KK000000000017200300 C       
093114162KA               000004205000000001000004214000000001R    KK000000000017200400 C       
093114162KA               000004205000000001000004214000000002R    KK000000000017200500 C       
093114173NA               000004204000000004000004215000000002R    NN000000000017200800ACB     A
093114173NA               000004204000000004000004214000000001R    NN000000000017200900ACB     A
093114173NA               000004204000000004000004214000000002R    NN000000000017201100ACB     A
093114174YA               000004204000000002000004213000000001R    YY000000000017201260 C       
093114174NA               000004204000000004000004214000000002R    NN000000000017201300 C       
093114174NA               000004204000000004000004214000000002R    NN000000000017201400ACB     A
093114175ZA               000004194000000001000004214000000002R    ZZ000000000017202200 C       
093114175YA               000004204000000001000004213000000001R    YY000000000017202600 C       
093114175YA               000004203000000001000004213000000001R    YY000000000017202900 C       
093114175YA               000004203000000001000004213000000001R    YY000000000017204100ACB     A
093114175JA               000004200000000001000004214000000001R    JJ000000000017204300 C       
093114183YA               000004204000000001000004213000000002R    YY000000000017209960ACB     A
093114185NA               000004204000000004000004214000000001R    NN000000000017211200ACB     A
093114185NA               000004204000000004000004215000000002R    NN000000000017211300ACB     A
093114186YA               000004204000000002000004213000000002R    YY000000000017211400ACB     A
093114623TA               000004196000000003000004214000000001R    TT000000000017245400 C       
093114623YA               000004204000000001000004213000000002R    YY000000000017245500ACB     A
093114623TA               000004196000000003000004214000000002R    TT000000000017245600 C       
093114623JA               000004200000000001000004222000000001R    JJ000000000017245700 C       
093114848YA               000004204000000002000004213000000002R    YY000000000017259100ACB     A
093115162KA               000004205000000001000004214000000001R    KK000000000017297500 C       
093115162KA               000004205000000001000004216000000001R    KK000000000017297600 C       
093115163KA               000004205000000001000004213000000001R    KK000000000017297700 C       
093115163KA               000004205000000001000004213000000002R    KK000000000017297800 C       
093115164ZA               000004194000000001000004218000000001R    ZZ000000000017297900 C       
093115190ZA               000004194000000001000004213000000002R    ZZ000000000017299400 C       
093115190ZA               000004194000000001000004213000000003R    ZZ000000000017299560 C       
093115190YA               000004204000000001000004212000000001R    YY000000000017299660 C       
093115190YA               000004203000000002000004212000000003R    YY000000000017299760 C       
093115190JA               000004200000000001000004212000000001R    JJ000000000017299800 C       
093115190NA               000004204000000004000004215000000002R    NN000000000017299900 C       
093115310YA               000004204000000001000004212000000003R    YY000000000017303800 C       
093115310YA               000004204000000002000004212000000003R    YY000000000017303900 C       
093115310JA               000004204000000001000004212000000001R    JJ000000000017304000 C       
093115310YA               000004204000000002000004212000000002R    YY000000000017304160 C       
093115310JA               000004204000000001000004222000000001R    JJ000000000017304200 C       
093115310ZA               000004194000000001000004213000000002R    ZZ000000000017304300 C       
093115310YA               000004204000000002000004212000000001R    YY000000000017304460 C       
093115364YA               000004204000000001000004212000000001R    YY000000000017305600 C       
093115364JA               000004200000000001000004222000000001R    JJ000000000017305700 C       
093116104DA               000004200000000010000004300000000012RFLOWDD000000000017383901AC      A
093116134TA               000004196000000003000004212000000001R    TT000000000017385100 C       
093116134YA               000004203000000002000004212000000001R    YY000000000017385260 C       
093116134TA               000004196000000003000004212000000002R    TT000000000017385360 C       
093116134YA               000004203000000002000004212000000002R    YY000000000017385400 C       
093116134YA               000004203000000002000004211000000001R    YY000000000017385560 C       
093116163KA               000004205000000001000004213000000001R    KK000000000017393900 C       
093116163KA               000004205000000001000004216000000001R    KK000000000017394200 C       
093116164KA               000004205000000001000004211000000001R    KK000000000017394900 C       
093116164KA               000004205000000001000004211000000002R    KK000000000017395260 C       
093116164ZA               000004194000000001000004217000000002R    ZZ000000000017395600 C       
093116165YA               000004204000000002000004212000000001R    YY000000000017395800 C       
093116165JA               000004204000000001000004222000000001R    JJ000000000017396000 C       
093116196ZA               000004194000000001000004211000000002R    ZZ000000000017402900 C       
093116196ZA               000004194000000001000004211000000003R    ZZ000000000017403060 C       
093116197YA               000004204000000001000004211000000002R    YY000000000017403100 C       
093116197JA               000004200000000001000004222000000001R    JJ000000000017403200 C       
093116197YA               000004202000000002000004211000000002R    YY000000000017403300 C       
093116197PA               000004207000000001000004223000000002R    PP000000000017403400 C       
093116198PA               000004207000000001000004217000000003R    PP000000000017403600 C       
093116198PA               000004207000000001000004217000000004R    PP000000000017403700 C       
093116317ZA               000004194000000001000004211000000002R    ZZ000000000017421860 C       
093116317YA               000004203000000001000004211000000002R    YY000000000017421900 C       
093116317YA               000004203000000002000004211000000002R    YY000000000017422000 C       
093116433MA               000004200000000005000000000000000000R    MM000000000017434000 C       
093116984DA               000004200000000010000004219000000010RFLOWDD000000000017493501AC      A
093117044YA               000004203000000001000004211000000002R    YY000000000017499400 C       
093117203MA               000004200000000005000004218000000005R    MM000000000017523600 C       
093117211YA               000004203000000001000004211000000001R    YY000000000017525000 C       
093117718YA               000004203000000002000004211000000001R    YY000000000017589100 C       
093117754DA               000004200000000010000004300000000012RFLOWDD000000000017597001AC      A
093117922YA               000004203000000001000004211000000001R    YY000000000017613000 C       
093118336YA               000004203000000002000004211000000001R    YY000000000017656800 C       
093118492YA               000004203000000001000004211000000001R    YY000000000017676000 C       
093118492TA               000004196000000003000004211000000001R    TT000000000017676100 C       
093118492TA               000004196000000003000004211000000002R    TT000000000017676200 C       
093118492YA               000004203000000001000004211000000002R    YY000000000017676300 C       
093119295DA               000004200000000010000004220000000010RFLOWDD000000000017728501AC      A
093119339TA               000004196000000003000004211000000001R    TT000000000017738900 C       
093119484BA               000004194000000006000004212000000001R    BB000000000017747800 C       
093119484BA               000004194000000006000004212000000002R    BB000000000017747900 C       
093121403TA               000004196000000003000004211000000002R    TT000000000017942100 C       
093124567BA               000004194000000006000004212000000001R    BB000000000018426400 C       
093124567BA               000004194000000006000004225000000006R    BB000000000018426500 C       
093124601NA               000004204000000004000004211000000001R    NN000000000018427800 C       
093124602NA               000004204000000004000004211000000002R    NN000000000018427900 C       
093125512TA               000004196000000003000004211000000003R    TT000000000018475560 C       
093125513NA               000004204000000004000004211000000001R    NN000000000018475600 C       
093126540YA               000004203000000002000004211000000002R    YY000000000018548800 C       
093127398YA               000004203000000001000004211000000002R    YY000000000018627400 C       
093128423XA               000004197000000012000000000000000000R    XX000000000018712000 C       
093129193XA               000004197000000012000004218000000012R    XX000000000018760600 C       
093130953BA               000004194000000006000004225000000001R    BB000000000018894000 C       
093130953BA               000004194000000006000004226000000007R    BB000000000018894100 C       
093131206YA               000004203000000002000004211000000002R    YY000000000018916500 C       
093131206YA               000004203000000002000004211000000001R    YY000000000018916600 C       
093131208NA               000004204000000005000004211000000001R    NN000000000018916800 C       
093131532PA               000004193000000003000004217000000004R    PP000000000018930860 C       
093131532PA               000004193000000003000004216000000001R    PP000000000018930900 C       
093131532PA               000004193000000003000004210000000001R    PP000000000018931060 C       
093131532TA               000004196000000003000004211000000002R    TT000000000018931100 C       
093131533PA               000004193000000003000004210000000002R    PP000000000018931260 C       
093131533NA               000004204000000005000004211000000001R    NN000000000018931300ACB     A
093131533ZA               000004194000000001000004210000000001R    ZZ000000000018931400 C       
093131533YA               000004202000000001000004210000000002R    YY000000000018931500 C       
093131533ZA               000004194000000001000004210000000002R    ZZ000000000018931600 C       
093131533YA               000004202000000001000004210000000003R    YY000000000018931760 C       
093131533YA               000004201000000002000004210000000003R    YY000000000018931800 C       
093131533NA               000004204000000005000004211000000001R    NN000000000018931900 C       
093131533JA               000004200000000001000004210000000001R    JJ000000000018932000 C       
093131534KA               000004205000000001000004211000000001R    KK000000000018932100 C       
093131534KA               000004205000000001000004226000000001R    KK000000000018932200 C       
093131534NA               000004204000000004000004211000000001R    NN000000000018932400 C       
093131535KA               000004205000000001000004210000000001R    KK000000000018932500 C       
093131535KA               000004205000000001000004210000000002R    KK000000000018932600 C       
093131548YA               000004201000000002000004209000000001R    YY000000000018932860 C       
093131583ZA               000004194000000001000004210000000001R    ZZ000000000018934500 C       
093131583ZA               000004194000000001000004211000000002R    ZZ000000000018934600 C       
093131622PA               000004193000000003000004210000000001R    PP000000000018935000 C       
093131623PA               000004193000000003000004216000000004R    PP000000000018935200 C       
093131623PA               000004193000000003000004216000000003R    PP000000000018935300 C       
093131623YA               000004202000000001000004209000000001R    YY000000000018935400 C       
093131623PA               000004193000000003000004216000000002R    PP000000000018935500 C       
093131623YA               000004202000000002000004209000000001R    YY000000000018935600 C       
093131624JA               000004202000000001000004210000000001R    JJ000000000018935700 C       
093131626DA               000004005000000001000004220000000010RFLOWDD000000000018935801AC      A
093131677PA               000004193000000003000004216000000001R    PP000000000018936500 C       
093131678PA               000004193000000003000004217000000004R    PP000000000018936600 C       
093131678JA               000004200000000001000004210000000001R    JJ000000000018936800 C       
093131678YA               000004202000000001000004209000000001R    YY000000000018936900 C       
093131678JA               000004200000000001000004222000000001R    JJ000000000018937000 C       
093131679YA               000004202000000002000004209000000001R    YY000000000018937100 C       
093131680NA               000004202000000001000004211000000001R    NN000000000018937200 C       
093131680MA               000000000000000000000004218000000005R    MM000000000018937300 C       
093131681YA               000004202000000001000004209000000001R    YY000000000018937400 C       
093131681NA               000004199000000005000004211000000001R    NN000000000018937500 C       
093131681YA               000004200000000007000004209000000001R    YY000000000018937600 C       
093131681NA               000004199000000005000004211000000002R    NN000000000018937700 C       
093131682NA               000004199000000004000004211000000002R    NN000000000018938000 C       
093131724BA               000004194000000006000004221000000005R    BB000000000018941000 C       
093131724BA               000004194000000006000004221000000006R    BB000000000018941100 C       
093131752TA               000004196000000003000004209000000001R    TT000000000018943700 C       
093131752YA               000004200000000007000004208000000001R    YY000000000018943860 C       
093131752TA               000004196000000003000004209000000002R    TT000000000018943900 C       
093131752YA               000004200000000007000004208000000002R    YY000000000018944060 C       
093131752YA               000004200000000006000004208000000002R    YY000000000018944100 C       
093131752YA               000004200000000005000004208000000002R    YY000000000018944200 C       
093131752JA               000004197000000001000004222000000001R    JJ000000000018944300 C       
093131752NA               000004199000000004000004210000000001R    NN000000000018944400 C       
093131752NA               000004199000000004000004210000000002R    NN000000000018944500 C       
093131833JA               000004195000000001000004222000000001R    JJ000000000018945900 C       
093131833YA               000004199000000002000004208000000002R    YY000000000018946000 C       
093131833NA               000004196000000001000004210000000002R    NN000000000018946100 C       
093131834YA               000004199000000001000004208000000002R    YY000000000018946200 C       
093131834YA               000004198000000002000004208000000002R    YY000000000018946300 C       
093131987PA               000004193000000003000004209000000001R    PP000000000018965100 C       
093131987PA               000004193000000003000004209000000002R    PP000000000018965200 C       
093131988NA               000004195000000007000004210000000002R    NN000000000018965300 C       
093131988NA               000004195000000007000004209000000001R    NN000000000018965400 C       
093131989NA               000004195000000007000004209000000002R    NN000000000018965500 C       
093131989NA               000004195000000007000004209000000001R    NN000000000018965600 C       
093132053NA               000004196000000020000004209000000001R    NN000000000018976100 C       
093132053YA               000004199000000001000004208000000002R    YY000000000018976200 C       
093132053YA               000004199000000002000004208000000002R    YY000000000018976300 C       
093132053YA               000004199000000003000004208000000002R    YY000000000018976400 C       
093132054JA               000004199000000001000004222000000001R    JJ000000000018976500 C       
093132058TA               000004196000000003000004209000000001R    TT000000000018977200 C       
093132380YA               000004199000000002000004208000000002R    YY000000000019025900 C       
093132437PA               000004193000000003000004209000000001R    PP000000000019034900 C       
093132438NA               000004196000000020000004210000000001R    NN000000000019035000 C       
093132438NA               000004196000000020000004210000000002R    NN000000000019035100 C       
093132439NA               000004196000000021000004210000000002R    NN000000000019035200 C       
093132439XA               000000000000000000000004218000000012R    XX000000000019035300 C       
093132441DA               000004193000000010000004220000000010RFLOWDD000000000019035401AC      A
093132493MA               000004193000000005000004218000000005R    MM000000000019047500 C       
093132537KA               000004205000000001000004210000000001R    KK000000000019050900 C       
093132537KA               000004205000000001000004222000000001R    KK000000000019051000 C       
093132538KA               000004205000000001000004208000000001R    KK000000000019051100 C       
093132538KA               000004205000000001000004208000000002R    KK000000000019051200 C       
093132539ZA               000004194000000001000004212000000001R    ZZ000000000019051300 C       
093132539ZA               000004194000000001000004213000000002R    ZZ000000000019051500 C       
093132541ZA               000004194000000001000004208000000002R    ZZ000000000019051800 C       
093132541ZA               000004194000000001000004208000000003R    ZZ000000000019051960 C       
093132541YA               000004198000000002000004207000000002R    YY000000000019052060 C       
093132541JA               000004195000000001000004222000000001R    JJ000000000019052100 C       
093132542KA               000004200000000001000004208000000002R    KK000000000019052360 C       
093132542KA               000004200000000001000004207000000001R    KK000000000019052400 C       
093132542KA               000004200000000001000004206000000001R    KK000000000019052710 C       
093132542NA               000004196000000021000004210000000002R    NN000000000019052900ACB     A
093132542PA               000004200000000001000004209000000001R    PP000000000019053000 C       
093132542BA               000004200000000001000004221000000006R    BB000000000019053100 C       
093132542PA               000004193000000003000004209000000001R    PP000000000019053400 C       
093132542BA               000004200000000002000004221000000006R    BB000000000019053560 C       
093132542BA               000004200000000001000004221000000006R    BB000000000019053660 C       
093132543PA               000004200000000001000004209000000001R    PP000000000019053700 C       
093132543BA               000004194000000006000004221000000006R    BB000000000019053800 C       
093132543NA               000004196000000021000004210000000002R    NN000000000019054000ACC     A
093132543NA               000004196000000021000004210000000002R    NN000000000019054100ACA     A
093132543NA               000004196000000021000004210000000001R    NN000000000019054200ACA     A
093132543NA               000004197000000001000004210000000001R    NN000000000019054300ACA     A
093132543NA               000004197000000001000004210000000001R    NN000000000019054400 C       
093132543NA               000004197000000001000004210000000001R    NN000000000019054600ACB     A
093132544NA               000004197000000001000004212000000001R    NN000000000019054700ACB     A
093132544NA               000004197000000001000004212000000001R    NN000000000019054800ACC     A
093132544NA               000004197000000002000004212000000001R    NN000000000019054900ACC     A
093132547NA               000004205000000001000004212000000001R    NN000000000019055060ACB     A
093132547NA               000004205000000001000004214000000001R    NN000000000019055100ACB     A
093132547NA               000004205000000001000004214000000001R    NN000000000019055200 C       
