040000011PA               000000000000000000000006000000000002R    PP000000000000000212 C       
063655708PA               000003851000000001000006000000000002R    PP000000000002633612 C       
063748484PA               000003851000000001000004599000000001R    PP000000000002644312 C       
063834863PA               000003852000000002000004599000000001R    PP000000000002656312 C       
063835201PA               000003852000000002000004598000000002R    PP000000000002656412 C       
075551934PA               000003852000000002000004236000000001R    PP000000000004240912 C       
080000328KA               000004200000000001000004316000000001R    KK000000000004366762 C       
080028308PA               000004201000000001000004236000000001R    PP000000000004410712 C       
080244919PA               000004188000000001000004236000000001R    PP000000000004533162 C       
080306371PA               000004201000000001000004236000000001R    PP000000000004547612 C       
082710549PA               000004201000000001000004249000000001R    PP000000000005849812 C       
082711003PA               000004201000000001000004262000000001R    PP000000000005853312 C       
082712003PA               000004201000000001000004275000000001R    PP000000000005856312 C       
082713003PA               000004201000000001000004288000000001R    PP000000000005859912 C       
082714003PA               000004201000000001000004301000000001R    PP000000000005863112 C       
082715003PA               000004201000000001000004320000000001R    PP000000000005866062 C       
082716003PA               000004201000000001000004329000000001R    PP000000000005871502 C       
082740063PA               000004201000000001000004315000000001R    PP000000000005908712 C       
082820264PA               000004201000000001000004235000000001R    PP000000000005957012 C       
082848483PA               000004188000000001000004235000000001R    PP000000000005974362 C       
082930076PA               000003851000000001000004235000000001R    PP000000000006006502 C       
083015041PA               000004129000000021000004235000000001R    PP000000000006156502 C       
083015257PA               000004187000000001000004235000000001R    PP000000000006157502 C       
083336882PA               000004201000000001000004235000000001R    PP000000000006775212 C       
083527775TA               000003465000000001000000000000000000R    TT000000000007113402 C       
083527775TA               000003465000000001000004977000000001R    TT000000000007113502 C       
083911435PA               000004201000000001000004248000000001R    PP000000000012186312 C       
083912005PA               000004201000000001000004261000000001R    PP000000000012201512 C       
083913005PA               000004201000000001000004274000000001R    PP000000000012221612 C       
083914005PA               000004201000000001000004287000000001R    PP000000000012234212 C       
083915005PA               000004201000000001000004300000000001R    PP000000000012262312 C       
083916005PA               000004201000000001000004329000000001R    PP000000000012277462 C       
083923626PA               000004187000000001000004329000000001R    PP000000000012437962 C       
083938571PA               000004187000000001000004229000000001R    PP000000000012686962 C       
084124796TA               000004201000000001000004977000000001R    TT000000000014100762 C       
084447872TA               000003465000000001000004977000000001R    TT000000000015638962 C       
084828655TA               000004201000000001000004977000000001R    TT000000000016568262 C       
085030404TA               000003465000000001000004977000000001R    TT000000000017664162 C       
085356209TA               000003465000000001000004228000000001R    TT000000000019519562 C       
085840119PA               000003851000000001000004229000000001R    PP000000000022008102 C       
090110064PA               000004129000000021000004229000000001R    PP000000000023519202 C       
090120516PA               000004187000000001000004229000000001R    PP000000000023670702 C       
090608200PA               000004187000000001000004241000000001R    PP000000000025586502 C       
091215556TA               000003465000000001000004977000000001R    TT000000000027782162 C       
091216004PA               000004187000000001000004254000000001R    PP000000000027782862 C       
091217004PA               000004187000000001000004267000000001R    PP000000000027789762 C       
091218005PA               000004187000000001000004280000000001R    PP000000000027791962 C       
091219005PA               000004187000000001000004293000000001R    PP000000000027802662 C       
091220005PA               000004187000000001000004312000000001R    PP000000000027808162 C       
091221005PA               000004187000000001000004325000000001R    PP000000000027814762 C       
091222005PA               000004187000000001000004329000000001R    PP000000000027815202 C       
091548496TA               000003465000000001000004315000000001R    TT000000000029284662 C       
091845065TA               000004201000000001000004315000000001R    TT000000000030581812 C       
092110096TA               000003465000000001000004315000000001R    TT000000000031594662 C       
092620197PA               000004129000000021000004329000000001R    PP000000000033791602 C       
092620197PA               000004129000000021000004387000000006R    PP000000000033791802 C       
092633315PA               000004181000000001000004387000000006R    PP000000000033939602 C       
092633315PA               000004181000000001000004334000000001R    PP000000000033939702 C       
092633605PA               000004181000000001000004338000000001R    PP000000000033945702 C       
092633605PA               000004177000000001000004338000000001R    PP000000000033945802 C       
092800010KA               000004200000000001000004315000000001R    KK000000000035036602 C       
092800010TA               000003465000000001000004314000000001R    TT000000000035037162 C       
092825463TA               000003465000000001000004313000000001R    TT000000000036124662 C       
092831499YA               000000000000000000000004594000000001R    YY000000000036390202 C       
092831499YA               000003927000000001000004486000000001R    YY000000000036390302 C       
092831499YA               000004032000000001000004486000000001R    YY000000000036390402 C       
092832005PA               000004177000000001000004336000000001R    PP000000000036426802 C       
092848868TA               000003927000000001000004313000000001R    TT000000000036568102 C       
092848868TA               000003927000000002000004313000000001R    TT000000000036568202 C       
092848868TA               000004032000000001000004313000000001R    TT000000000036568302 C       
092848868TA               000004032000000001000004312000000001R    TT000000000036568462 C       
092848869TA               000004032000000002000004312000000001R    TT000000000036568502 C       
092848869TA               000004032000000003000004312000000001R    TT000000000036568602 C       
092900208ZA               000000000000000000000004345000000001R    ZZ000000000036684902 C       
092900209ZA               000004116000000001000004345000000001R    ZZ000000000036685002 C       
092900398YA               000004032000000001000004398000000001R    YY000000000036689502 C       
092900398YA               000004116000000001000004398000000001R    YY000000000036689602 C       
092909787TA               000004032000000003000004311000000001R    TT000000000036839862 C       
092913606PA               000004177000000001000004334000000001R    PP000000000036910702 C       
092915006TA               000004032000000003000004310000000001R    TT000000000036922762 C       
092933652TA               000004032000000003000004309000000001R    TT000000000038056162 C       
092937604PA               000004177000000001000004338000000001R    PP000000000038222402 C       
092940901PA               000004177000000001000004308000000001R    PP000000000038408462 C       
092940901PA               000004178000000001000004308000000001R    PP000000000038408502 C       
092940901PA               000004178000000001000004307000000001R    PP000000000038408662 C       
092940901PA               000004178000000001000004306000000001R    PP000000000038408762 C       
092945005KA               000004201000000001000004315000000001R    KK000000000038599862 C       
092945005TA               000004032000000003000004308000000001R    TT000000000038601402 C       
092945006PA               000004177000000001000004306000000001R    PP000000000038604302 C       
092945007PA               000004177000000001000004305000000001R    PP000000000038606462 C       
092945008PA               000004177000000001000004304000000001R    PP000000000038608562 C       
092949028PA               000004202000000001000004304000000001R    PP000000000038877612 C       
093000011PA               000004202000000001000004295000000001R    PP000000000040040712 C       
093000013TA               000004032000000006000004308000000001R    TT000000000040043302 C       
093000033PA               000004202000000001000004294000000001R    PP000000000040082912 C       
093000046TA               000004032000000006000004309000000001R    TT000000000040106602 C       
093000059JA               000003530000000001000000000000000000R    JJ000000000040156202 C       
093000065JA               000003530000000001000004982000000001R    JJ000000000040174602 C       
093000074KA               000004201000000001000004316000000001R    KK000000000040195902 C       
093000471ZA               000004152000000001000004344000000001R    ZZ000000000040399202 C       
093000471TA               000004168000000001000004309000000001R    TT000000000040399302 C       
093000472TA               000004168000000001000004309000000003R    TT000000000040399602 C       
093001007KA               000004200000000001000004316000000001R    KK000000000040533802 C       
093001008NA               000004215000000010000004222000000001O    NN000000000040544712 C       
093001010NA               000004215000000010000004222000000001O    NN000000000040563302AC     EA
093001011ZA               000004152000000003000004344000000001R    ZZ000000000040575102 C       
093001013YA               000004116000000001000004486000000001R    YY000000000040586002 C       
093001013YA               000004032000000001000004486000000001R    YY000000000040586102 C       
093001013PA               000004202000000001000004295000000001R    PP000000000040588402 C       
093001014BA               000004215000000002000000000000000000R    BB000000000040592702 C       
093001014BA               000004215000000002000004243000000002R    BB000000000040593102 C       
093001014ZA               000004215000000002000004243000000002R    ZZ000000000040593502 C       
093001014TA               000004168000000001000004243000000002R    TT000000000040594202 C       
093001014TA               000004215000000002000004243000000002R    TT000000000040594302 C       
093001014YA               000004215000000002000004243000000002R    YY000000000040594602 C       
093001014JA               000004032000000001000004485000000001R    JJ000000000040597702 C       
093001014JA               000004215000000002000004243000000002R    JJ000000000040598802 C       
093001016KA               000004200000000001000004243000000002R    KK000000000040610902 C       
093001016PA               000004215000000002000004295000000001R    PP000000000040614602 C       
093001017PA               000004215000000002000004243000000002R    PP000000000040616402 C       
093001018PA               000004215000000003000004243000000002R    PP000000000040618402 C       
093001019TA               000004215000000002000004243000000003R    TT000000000040627302 C       
093001031NA               000004215000000012000004222000000001R    NN000000000040669912 C       
093001052NA               000004216000000001000004222000000001R    NN000000000040717112 C       
093001064DA               000004000000000003000000000000000000RFLOWDD000000000040768301AC      A
093001065DA               000004005000000001000000000000000000RFLOWDD000000000040771601AC      A
093001068DA               000004005000000001000004322000000001RFLOWDD000000000040778301AC      A
093001077NA               000004216000000002000004222000000001R    NN000000000040806910 C       
093001084DA               000004005000000001000004300000000008RFLOWDD000000000040818801AC      A
093001105KA               000004200000000001000004232000000001R    KK000000000040852700 C       
093001157DA               000004005000000001000004300000000012RFLOWDD000000000040926801AC      A
093001197NA               000004216000000001000004222000000001R    NN000000000040964410 C       
093001199NA               000004215000000002000004222000000001R    NN000000000040967160 C       
093001214NA               000004215000000002000004225000000001R    NN000000000040977460 C       
093001260JA               000004202000000002000004243000000002R    JJ000000000041013300 C       
093001275YA               000004215000000001000004243000000002R    YY000000000041023600 C       
093001556NA               000004216000000001000004225000000001R    NN000000000041129510 C       
093001557NA               000004216000000002000004225000000001R    NN000000000041129910 C       
093001558ZA               000004215000000004000004243000000002R    ZZ000000000041131300 C       
093001782NA               000004216000000002000004225000000001R    NN000000000041224300 C       
093001782NA               000004216000000001000004225000000001R    NN000000000041224410 C       
093001783NA               000004215000000002000004225000000001R    NN000000000041224560 C       
093001783PA               000004215000000001000004243000000002R    PP000000000041224600 C       
093001783BA               000004202000000002000004243000000002R    BB000000000041224700 C       
093001783PA               000004202000000003000004243000000002R    PP000000000041224800 C       
093001783YA               000004202000000002000004243000000002R    YY000000000041224900 C       
093001783ZA               000004215000000002000004243000000002R    ZZ000000000041225060 C       
093001783TA               000004211000000003000004243000000003R    TT000000000041225160 C       
093001783PA               000004202000000003000004224000000001R    PP000000000041225260 C       
093001783NA               000004202000000002000004225000000001R    NN000000000041225360 C       
093001783PA               000004202000000002000004224000000001R    PP000000000041225400 C       
093001783PA               000004202000000002000004224000000002R    PP000000000041225660 C       
093001784TA               000004211000000003000004242000000001R    TT000000000041225800 C       
093001784TA               000004211000000003000004242000000002R    TT000000000041225900 C       
093001841TA               000004211000000004000004242000000002R    TT000000000041237000 C       
093002012NA               000004202000000002000004225000000001R    NN000000000041285300ACA     A
093002018KA               000004202000000002000004232000000001R    KK000000000041292200 C       
093002019BA               000004202000000002000004238000000007R    BB000000000041293700 C       
093002019BA               000004202000000002000004238000000008R    BB000000000041294000 C       
093002021PA               000004202000000002000004224000000001R    PP000000000041296260 C       
093002021TA               000004211000000004000004242000000001R    TT000000000041296300 C       
093002021TA               000004211000000004000004243000000003R    TT000000000041296400 C       
093002021XA               000004193000000018000000000000000000R    XX000000000041296500 C       
093002021BA               000004202000000002000004237000000001R    BB000000000041296700 C       
093002022NA               000004215000000001000004225000000001R    NN000000000041297100ACA     A
093002022XA               000004193000000018000004234000000018R    XX000000000041297400 C       
093002022BA               000004202000000002000004238000000008R    BB000000000041297600 C       
093002023TA               000004211000000004000004233000000001R    TT000000000041297700 C       
093002024TA               000004211000000004000004233000000002R    TT000000000041298400 C       
093002024NA               000004215000000001000004225000000001R    NN000000000041298600ACC     A
093002026NA               000004202000000002000004225000000001R    NN000000000041301600ACC     A
093002027NA               000004202000000002000004225000000001R    NN000000000041302300ACB     A
093002028NA               000004215000000001000004225000000001R    NN000000000041304100ACB     A
093002029NA               000004215000000001000004225000000001R    NN000000000041304400 C       
093002034NA               000004215000000002000004225000000001R    NN000000000041312200 C       
093002037JA               000004202000000002000004234000000002R    JJ000000000041314300 C       
093002037YA               000004206000000008000004233000000008R    YY000000000041314500 C       
093002037YA               000004206000000008000004233000000009R    YY000000000041314600 C       
093002037JA               000004202000000002000004233000000001R    JJ000000000041314700 C       
093002037YA               000004206000000009000004233000000009R    YY000000000041314800 C       
093002037JA               000004206000000001000004233000000001R    JJ000000000041314900 C       
093002039DA               000004206000000016000004300000000012RFLOWDD000000000041316501AC      A
093002039DA               000004206000000016000004233000000016RFLOWDD000000000041316701AC      A
093002040NA               000004215000000002000004225000000001R    NN000000000041316900ACB     A
093002052NA               000004215000000003000004225000000001R    NN000000000041324660ACB     A
093002145NA               000004215000000002000004225000000001R    NN000000000041366760ACB     A
093002145NA               000004215000000001000004225000000001R    NN000000000041366800ACB     A
093002145NA               000004202000000002000004225000000001R    NN000000000041367500ACB     A
093002145NA               000004202000000002000004225000000002R    NN000000000041368100ACB     A
093002145NA               000004202000000002000004224000000001R    NN000000000041368500ACB     A
093002146NA               000004202000000002000004224000000002R    NN000000000041369260ACB     A
093002146YA               000004206000000008000004233000000009R    YY000000000041369300 C       
093002146YA               000004206000000008000004233000000008R    YY000000000041369400 C       
093002146JA               000004202000000002000004233000000001R    JJ000000000041369500 C       
093002146JA               000004202000000002000004234000000002R    JJ000000000041369600 C       
093002159KA               000004211000000001000004232000000001R    KK000000000041372400 C       
093002269ZA               000004215000000002000004225000000002R    ZZ000000000041396400 C       
093002270ZA               000004215000000002000004225000000003R    ZZ000000000041397000 C       
093002287NA               000004216000000001000004224000000002R    NN000000000041400110ACB     A
093002288NA               000004216000000001000004224000000001R    NN000000000041400260ACB     A
093002288NA               000004216000000002000004224000000001R    NN000000000041400460ACB     A
093002306NA               000004216000000002000004225000000001R    NN000000000041407200ACB     A
093002307ZA               000004215000000002000004225000000002R    ZZ000000000041409100 C       
093002401ZA               000004203000000002000004225000000002R    ZZ000000000041431800 C       
093002401NA               000004216000000001000004225000000001R    NN000000000041431960ACB     A
093002402NA               000004216000000001000004224000000001R    NN000000000041432000ACB     A
093002402NA               000004216000000001000004224000000002R    NN000000000041432110ACB     A
093002544JA               000004207000000002000004234000000002R    JJ000000000041450500 C       
093002664NA               000004216000000001000004224000000001R    NN000000000041466060ACB     A
093002749NA               000004216000000001000004225000000001R    NN000000000041480800ACB     A
093002750NA               000004216000000002000004225000000001R    NN000000000041480960ACB     A
093002796NA               000004216000000001000004225000000001R    NN000000000041485760ACB     A
093002797NA               000004216000000001000004224000000001R    NN000000000041485800ACB     A
093002797NA               000004216000000001000004224000000002R    NN000000000041485910ACB     A
093002798YA               000004206000000008000004243000000002R    YY000000000041486000 C       
093002798BA               000004202000000002000004238000000007R    BB000000000041486100 C       
093002800DA               000004206000000016000004300000000012RFLOWDD000000000041486201AC      A
093002831TA               000004211000000004000004225000000001R    TT000000000041491300 C       
093002831TA               000004211000000004000004225000000002R    TT000000000041491400 C       
093002832TA               000004211000000004000004225000000005R    TT000000000041491500 C       
093003001ZA               000004202000000002000004225000000002R    ZZ000000000041514600 C       
093003001TA               000004211000000004000004225000000004R    TT000000000041515700 C       
093003001NA               000004216000000001000004224000000001R    NN000000000041516460ACB     A
093003017NA               000004216000000001000004224000000001R    NN000000000041530200ACC     A
093003033NA               000004216000000001000004225000000001R    NN000000000041536700ACC     A
093003033NA               000004216000000002000004225000000001R    NN000000000041536860ACC     A
093003033NA               000004216000000002000004225000000001R    NN000000000041536900ACB     A
093003037NA               000004216000000001000004225000000001R    NN000000000041538460ACB     A
093003038NA               000004216000000001000004225000000001R    NN000000000041538700ACC     A
093003045NA               000004215000000001000004225000000001R    NN000000000041539460ACC     A
093003045NA               000004215000000001000004224000000001R    NN000000000041539500ACC     A
093003046NA               000004215000000001000004224000000001R    NN000000000041539600ACB     A
093003046NA               000004215000000001000004224000000002R    NN000000000041539910ACB     A
093003054PA               000004210000000001000004224000000001R    PP000000000041542000 C       
093003054PA               000004210000000002000004224000000001R    PP000000000041542100 C       
093003075ZA               000004202000000002000004243000000002R    ZZ000000000041547400 C       
093003091ZA               000004202000000002000004224000000002R    ZZ000000000041550200 C       
093003091ZA               000004202000000002000004224000000003R    ZZ000000000041550460 C       
093003415NA               000004216000000001000004224000000002R    NN000000000041624760ACB     A
093003416NA               000004216000000002000004224000000002R    NN000000000041624860ACB     A
093003416ZA               000004202000000002000004224000000002R    ZZ000000000041625060 C       
093003416NA               000004216000000002000004224000000001R    NN000000000041625160ACB     A
093003416TA               000004211000000003000004225000000004R    TT000000000041625300 C       
093003427NA               000004216000000002000004225000000001R    NN000000000041626000ACB     A
093003584YA               000004206000000008000004234000000008R    YY000000000041664100 C       
093003584YA               000004206000000008000004234000000009R    YY000000000041664300 C       
093003584JA               000004207000000002000004234000000003R    JJ000000000041664400 C       
093003586DA               000004206000000016000004234000000016RFLOWDD000000000041664601AC      A
093003587NA               000004216000000001000004225000000001R    NN000000000041664960ACB     A
093003587NA               000004216000000001000004224000000001R    NN000000000041665000ACB     A
093003587NA               000004210000000005000004224000000001R    NN000000000041665160ACB     A
093003588NA               000004210000000005000004224000000002R    NN000000000041665200ACB     A
093003664JA               000004202000000002000004234000000003R    JJ000000000041671900 C       
093003664YA               000004206000000008000004234000000008R    YY000000000041672000 C       
093003664JA               000004202000000002000004234000000002R    JJ000000000041672100 C       
093003664NA               000004210000000005000004224000000001R    NN000000000041672300ACB     A
093003665NA               000004210000000005000004224000000001R    NN000000000041672700ACC     A
093003667DA               000004005000000001000004234000000016RFLOWDD000000000041673301AC      A
093003672NA               000004211000000001000004224000000001R    NN000000000041673700ACC     A
093003672NA               000004211000000002000004224000000001R    NN000000000041673900ACC     A
093003673YA               000004202000000002000004234000000008R    YY000000000041674100 C       
093003750TA               000004215000000001000004225000000004R    TT000000000041683560 C       
093003750TA               000004215000000002000004225000000004R    TT000000000041683660 C       
093003750NA               000004211000000002000004224000000001R    NN000000000041683800ACB     A
093003750TA               000004215000000002000004225000000001R    TT000000000041684100 C       
093003763NA               000004211000000001000004224000000001R    NN000000000041686800ACB     A
093003763NA               000004203000000019000004224000000001R    NN000000000041687200ACB     A
093003852NA               000004215000000001000004224000000001R    NN000000000041705700ACB     A
093003985BA               000004202000000003000004238000000007R    BB000000000041732600 C       
093003987NA               000004216000000001000004224000000001R    NN000000000041733060ACB     A
093003988PA               000004210000000001000004224000000001R    PP000000000041733200 C       
093003988NA               000004216000000002000004224000000001R    NN000000000041733460ACB     A
093003988TA               000004215000000001000004225000000001R    TT000000000041733500 C       
093003992NA               000004216000000002000004225000000001R    NN000000000041733900ACB     A
093004002NA               000004216000000002000004225000000001R    NN000000000041737100ACC     A
093004026NA               000004216000000002000004225000000001R    NN000000000041750700ACB     A
093004027NA               000004216000000002000004225000000001R    NN000000000041750800ACC     A
093004464JA               000004207000000002000004234000000002R    JJ000000000041849600 C       
093004464YA               000004207000000008000004234000000008R    YY000000000041849700 C       
093004464YA               000004207000000009000004234000000008R    YY000000000041849800 C       
093004464JA               000004207000000003000004234000000002R    JJ000000000041849900 C       
093004466DA               000004207000000016000004234000000016RFLOWDD000000000041850101AC      A
093004544NA               000004216000000001000004225000000001R    NN000000000041862760ACC     A
093004548NA               000004215000000001000004225000000001R    NN000000000041863060ACC     A
093004549NA               000004215000000001000004225000000001R    NN000000000041863100ACB     A
093004745NA               000004210000000006000004225000000001R    NN000000000041896500ACB     A
093004745NA               000004210000000006000004224000000001R    NN000000000041896600ACB     A
093004746NA               000004210000000006000004224000000002R    NN000000000041896800ACB     A
093004784NA               000004215000000001000004224000000002R    NN000000000041903700ACB     A
093004785NA               000004215000000002000004224000000002R    NN000000000041903960ACB     A
093004785NA               000004215000000002000004224000000001R    NN000000000041904000ACB     A
093004812NA               000004216000000001000004224000000001R    NN000000000041906260ACB     A
093004813NA               000004216000000001000004224000000001R    NN000000000041906300ACC     A
093004813NA               000004216000000002000004224000000001R    NN000000000041906460ACC     A
093004813NA               000004216000000001000004224000000001R    NN000000000041906560ACC     A
093004814NA               000004216000000001000004225000000001R    NN000000000041906800ACC     A
093005064NA               000004215000000001000004225000000001R    NN000000000041944260ACC     A
093005065NA               000004215000000001000004224000000001R    NN000000000041944300ACC     A
093005065NA               000004215000000001000004224000000001R    NN000000000041944400ACB     A
093005065NA               000004215000000002000004224000000001R    NN000000000041944560ACB     A
093005065NA               000004215000000002000004224000000002R    NN000000000041944600ACB     A
093005104YA               000004207000000009000004234000000008R    YY000000000041952800ACB     A
093005196NA               000004215000000001000004224000000002R    NN000000000041972560ACB     A
093005196NA               000004210000000021000004224000000002R    NN000000000041972900ACB     A
093005196NA               000004210000000021000004224000000001R    NN000000000041973000ACB     A
093005236NA               000004215000000001000004224000000001R    NN000000000041981500ACB     A
093005236NA               000004215000000002000004224000000001R    NN000000000041981860ACB     A
093005247NA               000004215000000002000004225000000001R    NN000000000041984800ACB     A
093005383MA               000004206000000007000000000000000000R    MM000000000042012200 C       
093005396MA               000004206000000007000004233000000007R    MM000000000042015800 C       
093005397BA               000004202000000002000004238000000007R    BB000000000042016000 C       
093005397YA               000004207000000008000004234000000008R    YY000000000042016100ACB     A
093005397JA               000004207000000002000004234000000002R    JJ000000000042016200 C       
093005412NA               000004216000000001000004225000000001R    NN000000000042025760ACB     A
093005412NA               000004216000000002000004225000000001R    NN000000000042025860ACB     A
093005412NA               000004216000000002000004225000000001R    NN000000000042025900ACC     A
093005412NA               000004216000000001000004225000000001R    NN000000000042026060ACC     A
093005508NA               000004215000000001000004225000000001R    NN000000000042047060ACC     A
093005509NA               000004215000000001000004224000000001R    NN000000000042047800ACC     A
093005509NA               000004215000000002000004224000000001R    NN000000000042048060ACC     A
093005509NA               000004215000000002000004224000000001R    NN000000000042048200ACB     A
093005509NA               000004215000000002000004224000000002R    NN000000000042048300ACB     A
093005640NA               000004215000000001000004224000000002R    NN000000000042076860ACB     A
093005640NA               000004215000000001000004224000000001R    NN000000000042076900ACB     A
093005640NA               000004210000000021000004224000000001R    NN000000000042077000ACB     A
093005646NA               000004210000000021000004225000000001R    NN000000000042077500ACB     A
093005666NA               000004210000000020000004225000000001R    NN000000000042081000ACB     A
093005687NA               000004215000000001000004225000000001R    NN000000000042083400ACB     A
093005688NA               000004215000000002000004225000000001R    NN000000000042083760ACB     A
093005967NA               000004216000000001000004225000000001R    NN000000000042101960ACB     A
093005967NA               000004216000000001000004225000000001R    NN000000000042102000ACC     A
093005968NA               000004216000000002000004225000000001R    NN000000000042102160ACC     A
093005968NA               000004216000000001000004225000000001R    NN000000000042102260ACC     A
093006011NA               000004215000000001000004225000000001R    NN000000000042113860ACC     A
093006011NA               000004215000000001000004224000000001R    NN000000000042113900ACC     A
093006011NA               000004215000000001000004224000000001R    NN000000000042114000ACB     A
093006011NA               000004215000000002000004224000000001R    NN000000000042114160ACB     A
093006012NA               000004215000000002000004224000000002R    NN000000000042114400ACB     A
093006049NA               000004215000000001000004224000000002R    NN000000000042129860ACB     A
093006049NA               000004210000000021000004224000000002R    NN000000000042129900ACB     A
093006049NA               000004210000000021000004224000000001R    NN000000000042130100ACB     A
093006071NA               000004210000000021000004225000000001R    NN000000000042134300ACB     A
093006093NA               000004215000000001000004225000000001R    NN000000000042137700ACB     A
093006094NA               000004215000000002000004225000000001R    NN000000000042137960ACB     A
093006106ZA               000004202000000002000004224000000001R    ZZ000000000042140560 C       
093006107NA               000004215000000003000004225000000001R    NN000000000042140660ACB     A
093006107NA               000004215000000003000004225000000001R    NN000000000042140700ACC     A
093006110NA               000004215000000002000004225000000001R    NN000000000042141160ACC     A
093006149NA               000004215000000003000004225000000001R    NN000000000042147260ACC     A
093006149NA               000004215000000002000004225000000001R    NN000000000042147460ACC     A
093006175NA               000004215000000002000004224000000001R    NN000000000042154000ACC     A
093006175NA               000004215000000002000004224000000002R    NN000000000042154510ACC     A
093006233NA               000004216000000001000004224000000002R    NN000000000042171410ACC     A
093006234NA               000004216000000001000004224000000002R    NN000000000042171500ACB     A
093006234NA               000004216000000002000004224000000002R    NN000000000042171610ACB     A
093006234NA               000004216000000002000004224000000001R    NN000000000042171760ACB     A
093006234NA               000004216000000002000004224000000001R    NN000000000042171800ACC     A
093006248NA               000004216000000003000004224000000001R    NN000000000042172660ACC     A
093006289NA               000004216000000002000004224000000001R    NN000000000042178760ACC     A
093006289NA               000004216000000001000004224000000001R    NN000000000042178860ACC     A
093006290NA               000004216000000001000004225000000001R    NN000000000042179200ACC     A
093006290NA               000004215000000002000004225000000001R    NN000000000042179360ACC     A
093006290NA               000004215000000002000004224000000001R    NN000000000042179400ACC     A
093006290NA               000004215000000002000004224000000002R    NN000000000042179610ACC     A
093006290NA               000004215000000002000004224000000002R    NN000000000042179700ACB     A
093006291NA               000004215000000002000004224000000002R    NN000000000042179800ACC     A
093006925NA               000004215000000001000004224000000002R    NN000000000042278460ACC     A
093006925NA               000004215000000001000004224000000001R    NN000000000042278560ACC     A
093007005BA               000004215000000001000004238000000007R    BB000000000042292300 C       
093007005BA               000004215000000002000004238000000007R    BB000000000042292460 C       
093007006YA               000004215000000001000004234000000008R    YY000000000042292900ACB     A
093007006YA               000004215000000002000004234000000008R    YY000000000042293100ACB     A
093007006JA               000004215000000001000004234000000002R    JJ000000000042293200 C       
093007018NA               000004215000000001000004225000000002R    NN000000000042299400ACC     A
093007018NA               000004215000000002000004225000000002R    NN000000000042299500ACC     A
093007414XA               000000000000000000000004234000000018R    XX000000000042383800 C       
093008022PA               000004210000000001000004243000000002R    PP000000000042492060 C       
093008022NA               000004215000000002000004225000000001R    NN000000000042493100ACC     A
093008022YA               000004215000000001000004234000000008R    YY000000000042493700ACB     A
093008022NA               000004216000000001000004225000000001R    NN000000000042493860ACC     A
093008022JA               000004207000000002000004234000000002R    JJ000000000042494100 C       
093008022BA               000004215000000001000004238000000007R    BB000000000042494700 C       
093008023NA               000004216000000002000004225000000001R    NN000000000042495260ACC     A
093008023NA               000004216000000002000004225000000001R    NN000000000042495700ACB     A
093008024NA               000004216000000002000004225000000001R    NN000000000042496100ACC     A
093008031BA               000004202000000002000004238000000007R    BB000000000042499600 C       
093008031YA               000004207000000008000004234000000008R    YY000000000042499700ACB     A
093008314BA               000004203000000007000004238000000007R    BB000000000042570100 C       
093008314BA               000004203000000008000004238000000007R    BB000000000042570200 C       
093008314XA               000004207000000017000004234000000018R    XX000000000042570300 C       
093008467NA               000004216000000003000004225000000001R    NN000000000042586360ACC     A
093008467NA               000004216000000002000004225000000001R    NN000000000042586460ACC     A
093009351BA               000004216000000001000004238000000007R    BB000000000042754300 C       
093009351YA               000004216000000001000004234000000008R    YY000000000042754400ACB     A
093009351YA               000004216000000002000004234000000008R    YY000000000042754500ACB     A
093009351JA               000004216000000001000004234000000002R    JJ000000000042754600 C       
093009959JA               000004207000000002000004234000000002R    JJ000000000042818800 C       
093009959YA               000004216000000001000004234000000008R    YY000000000042818900ACB     A
093012350KA               000004212000000001000004232000000001R    KK000000000043244000 C       
093014370KA               000004211000000001000004232000000001R    KK000000000043431900 C       
093014405JA               000004214000000001000004234000000002R    JJ000000000043433600 C       
093016435JA               000004207000000002000004234000000002R    JJ000000000043644100 C       
093018393NA               000004216000000012000004225000000001R    NN000000000043804460ACC     A
093018396NA               000004217000000001000004225000000001R    NN000000000043804860ACC     A
093018396NA               000004217000000002000004225000000001R    NN000000000043804960ACC     A
093018397NA               000004217000000003000004225000000001R    NN000000000043805060ACC     A
093018397BA               000004215000000001000004238000000007R    BB000000000043805100 C       
093018397YA               000004207000000008000004234000000008R    YY000000000043805200ACB     A
093018406NA               000004217000000004000004225000000001R    NN000000000043805560ACC     A
093019155ZA               000004212000000001000004224000000001R    ZZ000000000043860700 C       
093019155ZA               000004212000000002000004224000000001R    ZZ000000000043860800 C       
093019155NA               000004217000000003000004225000000001R    NN000000000043860960ACC     A
093019787BA               000004203000000008000004238000000007R    BB000000000043899500 C       
093019787ZA               000004212000000001000004224000000001R    ZZ000000000043899600 C       
093019823JA               000004216000000001000004234000000002R    JJ000000000043904700 C       
093023312KA               000004202000000002000004232000000001R    KK000000000044216100 C       
093023689JA               000004207000000002000004234000000002R    JJ000000000044244700 C       
093023694NA               000004217000000002000004225000000001R    NN000000000044244860ACC     A
093023726YA               000004217000000001000004234000000008R    YY000000000044247400ACB     A
093023726YA               000004217000000002000004234000000008R    YY000000000044247500ACB     A
093023726JA               000004217000000001000004234000000002R    JJ000000000044247600 C       
093023734NA               000004217000000001000004225000000001R    NN000000000044247960ACC     A
093024314JA               000004207000000002000004234000000002R    JJ000000000044309000 C       
093024314YA               000004217000000001000004234000000008R    YY000000000044309160ACB     A
093027378NA               000004217000000011000004225000000001R    NN000000000044691160ACC     A
093027388NA               000004217000000012000004225000000001R    NN000000000044691360ACC     A
093027388NA               000004217000000013000004225000000001R    NN000000000044691460ACC     A
093031062TA               000004215000000001000004224000000001R    TT000000000045185000 C       
093031062TA               000004215000000001000004224000000002R    TT000000000045185160 C       
093031062TA               000004215000000001000004224000000001R    TT000000000045185260 C       
093031062TA               000004215000000001000004225000000001R    TT000000000045185300 C       
093031646TA               000004215000000001000004224000000001R    TT000000000045239800 C       
093031646TA               000004215000000001000004224000000002R    TT000000000045239960 C       
093031646TA               000004215000000001000004224000000001R    TT000000000045240060 C       
093031646TA               000004215000000001000004225000000001R    TT000000000045240200 C       
093031648TA               000004215000000001000004243000000002R    TT000000000045240400 C       
093031649TA               000004215000000001000004243000000004R    TT000000000045240500 C       
093031649TA               000004215000000001000004224000000001R    TT000000000045240700 C       
093031649TA               000004215000000001000004224000000002R    TT000000000045240860 C       
093031654TA               000004215000000001000004224000000001R    TT000000000045243060 C       
093031765TA               000004215000000001000004224000000002R    TT000000000045246360 C       
093031765TA               000004215000000001000004224000000001R    TT000000000045246460 C       
093031765TA               000004215000000001000004243000000002R    TT000000000045246500 C       
093031765NA               000004217000000012000004225000000001R    NN000000000045246660ACC     A
093031766NA               000004218000000001000004225000000001R    NN000000000045246760ACB     A
093031766NA               000004218000000002000004225000000001R    NN000000000045246860ACB     A
093031766NA               000004218000000002000004225000000001R    NN000000000045246900ACC     A
093031823NA               000004218000000003000004225000000001R    NN000000000045253260ACC     A
093031824TA               000004215000000001000004224000000001R    TT000000000045253300 C       
093031824TA               000004215000000001000004243000000002R    TT000000000045253400 C       
093032197TA               000004215000000001000004224000000001R    TT000000000045291400 C       
093032197TA               000004215000000001000004243000000002R    TT000000000045291500 C       
093032321TA               000004215000000001000004224000000001R    TT000000000045303900 C       
093032321TA               000004215000000001000004243000000002R    TT000000000045304000 C       
093032322NA               000004218000000002000004225000000001R    NN000000000045304260ACC     A
093032418TA               000004215000000001000004224000000001R    TT000000000045313500 C       
093032418TA               000004215000000001000004243000000002R    TT000000000045313700 C       
093032418PA               000004213000000001000004243000000002R    PP000000000045313900 C       
093032419PA               000004213000000002000004243000000002R    PP000000000045314100 C       
093032483TA               000004215000000001000004224000000001R    TT000000000045322200 C       
093032483TA               000004215000000001000004243000000002R    TT000000000045322300 C       
093032648TA               000004215000000001000004224000000001R    TT000000000045345700 C       
093032648TA               000004215000000001000004243000000002R    TT000000000045345800 C       
093032774MA               000000000000000000000004233000000007R    MM000000000045363000 C       
093033044PA               000004213000000001000004243000000002R    PP000000000045397300 C       
093033045TA               000004215000000001000004224000000001R    TT000000000045397400 C       
093033045TA               000004215000000001000004243000000002R    TT000000000045397500 C       
093033045DA               000004005000000001000004234000000016RFLOWDD000000000045397601AC      A
093033239ZA               000004202000000002000004224000000001R    ZZ000000000045435500 C       
093033240TA               000004215000000001000004224000000001R    TT000000000045435600 C       
093033240TA               000004215000000001000004243000000002R    TT000000000045435700 C       
093033361TA               000004215000000001000004224000000001R    TT000000000045451000 C       
093033361TA               000004215000000001000004243000000002R    TT000000000045451100 C       
093033452TA               000004215000000001000004224000000001R    TT000000000045457100 C       
093033452TA               000004215000000001000004243000000002R    TT000000000045457200 C       
093033584MA               000004209000000005000004233000000007R    MM000000000045470800 C       
093033601TA               000004215000000001000004224000000001R    TT000000000045471500 C       
093033601TA               000004215000000001000004243000000002R    TT000000000045471600 C       
093033856DA               000004209000000012000004234000000016RFLOWDD000000000045488601AC      A
093034075TA               000004215000000001000004224000000001R    TT000000000045504400 C       
093034075TA               000004215000000001000004243000000002R    TT000000000045504600 C       
093034077TA               000004213000000002000004243000000002R    TT000000000045504700 C       
093034078TA               000004218000000001000004243000000002R    TT000000000045504800 C       
093034078TA               000004218000000002000004243000000002R    TT000000000045504900 C       
093034078BA               000004203000000015000004238000000007R    BB000000000045505000 C       
093034194TA               000004218000000002000004224000000001R    TT000000000045515300 C       
093034194TA               000004218000000001000004224000000001R    TT000000000045515400 C       
093034194TA               000004218000000001000004243000000002R    TT000000000045515500 C       
093034286TA               000004218000000001000004224000000001R    TT000000000045522300 C       
093034287TA               000004218000000001000004243000000002R    TT000000000045522400 C       
093034386TA               000004218000000001000004224000000001R    TT000000000045530200 C       
093034386TA               000004218000000001000004243000000002R    TT000000000045530300 C       
093034451TA               000004218000000001000004224000000001R    TT000000000045532600 C       
093034451TA               000004218000000001000004243000000002R    TT000000000045532700 C       
093034540NA               000004218000000012000004225000000001R    NN000000000045534860ACC     A
093034541TA               000004218000000001000004224000000001R    TT000000000045535100 C       
093034541TA               000004218000000001000004243000000002R    TT000000000045535200 C       
093034758PA               000004213000000001000004243000000003R    PP000000000045539800 C       
093034758TA               000004218000000001000004224000000001R    TT000000000045539900 C       
093034758TA               000004218000000001000004243000000002R    TT000000000045540000 C       
093035032TA               000004218000000001000004224000000001R    TT000000000045554900 C       
093035032TA               000004218000000001000004243000000002R    TT000000000045555000 C       
093035079YA               000004209000000006000004234000000008R    YY000000000045559500ACB     A
093035086NA               000004218000000013000004225000000001R    NN000000000045560260ACC     A
093035087TA               000004218000000001000004224000000001R    TT000000000045560400 C       
093035087TA               000004218000000001000004243000000002R    TT000000000045560500 C       
093035116YA               000004218000000001000004234000000008R    YY000000000045562500ACB     A
093035116YA               000004218000000002000004234000000008R    YY000000000045562600ACB     A
093035116JA               000004218000000001000004234000000002R    JJ000000000045562700 C       
093035220JA               000004207000000002000004234000000002R    JJ000000000045571700 C       
093035221YA               000004218000000001000004234000000008R    YY000000000045571800ACB     A
093035221TA               000004218000000001000004224000000001R    TT000000000045571900 C       
093035221TA               000004218000000001000004243000000002R    TT000000000045572000 C       
093035375TA               000004218000000001000004224000000001R    TT000000000045586200 C       
093035376TA               000004218000000001000004243000000002R    TT000000000045586300 C       
093035491TA               000004218000000001000004224000000001R    TT000000000045588900 C       
093035491TA               000004218000000001000004243000000002R    TT000000000045589000 C       
093035491PA               000004213000000002000004243000000003R    PP000000000045589100 C       
093035869TA               000004218000000001000004224000000001R    TT000000000045650200 C       
093035869TA               000004218000000001000004243000000002R    TT000000000045650300 C       
093036227TA               000004218000000001000004224000000001R    TT000000000045678500 C       
093036227TA               000004218000000001000004243000000002R    TT000000000045678700 C       
093036326PA               000004213000000002000004242000000001R    PP000000000045703000 C       
093036326TA               000004218000000001000004224000000001R    TT000000000045703100 C       
093036326TA               000004218000000001000004243000000002R    TT000000000045703200 C       
093036326PA               000004213000000002000004242000000002R    PP000000000045703300 C       
093036327PA               000004213000000002000004242000000001R    PP000000000045703400 C       
093036327PA               000004213000000002000004243000000003R    PP000000000045703500 C       
093036464PA               000004213000000002000004242000000001R    PP000000000045714500 C       
093036464TA               000004218000000001000004224000000001R    TT000000000045714600 C       
093036465TA               000004218000000001000004243000000002R    TT000000000045714700 C       
093036735TA               000004218000000001000004224000000001R    TT000000000045744600 C       
093036735TA               000004218000000001000004243000000002R    TT000000000045744800 C       
093036935KA               000004202000000003000004232000000001R    KK000000000045774200 C       
093036936TA               000004218000000001000004224000000001R    TT000000000045775100 C       
093036936KA               000004202000000002000004232000000001R    KK000000000045775300 C       
093036936TA               000004218000000001000004243000000002R    TT000000000045775400 C       
093036937KA               000004202000000003000004232000000001R    KK000000000045775700 C       
093037062TA               000004218000000001000004224000000001R    TT000000000045803700 C       
093037062TA               000004218000000001000004243000000003R    TT000000000045803800 C       
093037062TA               000004218000000001000004243000000004R    TT000000000045803900 C       
093037365TA               000004218000000001000004224000000001R    TT000000000045853500 C       
093037365TA               000004218000000001000004243000000004R    TT000000000045853600 C       
093037896TA               000004218000000001000004243000000003R    TT000000000045917100 C       
093037897TA               000004218000000001000004224000000001R    TT000000000045917200 C       
093037897TA               000004218000000001000004243000000003R    TT000000000045917300 C       
093038733TA               000004218000000001000004224000000001R    TT000000000046057900 C       
093038734TA               000004218000000001000004243000000003R    TT000000000046058000 C       
093041865TA               000004218000000001000004224000000001R    TT000000000046418900 C       
093041865TA               000004218000000001000004243000000003R    TT000000000046419000 C       
093042066TA               000004218000000001000004224000000001R    TT000000000046450300 C       
093042066TA               000004218000000001000004243000000003R    TT000000000046450400 C       
093042214PA               000004213000000002000004241000000001R    PP000000000046467200 C       
093042214TA               000004218000000001000004224000000001R    TT000000000046467300 C       
093042214TA               000004218000000001000004243000000003R    TT000000000046467400 C       
093042214PA               000004213000000002000004241000000002R    PP000000000046467500 C       
093042445KA               000004203000000001000004232000000001R    KK000000000046484700 C       
093042446TA               000004218000000001000004224000000001R    TT000000000046485400 C       
093042446TA               000004218000000001000004243000000003R    TT000000000046485500 C       
093042446KA               000004202000000003000004232000000001R    KK000000000046485600 C       
093042447KA               000004203000000001000004232000000001R    KK000000000046485800 C       
093043614TA               000004218000000002000004243000000003R    TT000000000046570200 C       
093043614TA               000004218000000002000004224000000001R    TT000000000046570300 C       
093043614TA               000004218000000002000004243000000003R    TT000000000046570400 C       
093044972TA               000004218000000002000004224000000001R    TT000000000046720300 C       
093044972TA               000004218000000002000004243000000003R    TT000000000046720400 C       
093045046PA               000004213000000002000004241000000001R    PP000000000046761300 C       
093045046PA               000004213000000002000004242000000001R    PP000000000046761500 C       
093045047TA               000004218000000002000004224000000001R    TT000000000046761800 C       
093045047TA               000004218000000002000004243000000003R    TT000000000046762100 C       
093045056PA               000004213000000002000004241000000001R    PP000000000046767300 C       
093045558TA               000004218000000002000004242000000001R    TT000000000046845200 C       
093045558TA               000004218000000002000004242000000002R    TT000000000046845400 C       
093045558TA               000004218000000002000004224000000001R    TT000000000046845500 C       
093045558TA               000004218000000002000004242000000002R    TT000000000046845700 C       
093046393TA               000004218000000002000004242000000001R    TT000000000046926200 C       
093046393TA               000004218000000002000004224000000001R    TT000000000046926300 C       
093046393TA               000004218000000002000004242000000001R    TT000000000046926400 C       
093046464TA               000004218000000002000004224000000001R    TT000000000046938700 C       
093046464TA               000004218000000002000004242000000001R    TT000000000046938800 C       
093046801TA               000004218000000002000004224000000001R    TT000000000046971700 C       
093046801TA               000004218000000002000004242000000001R    TT000000000046971800 C       
093046920TA               000004218000000002000004224000000001R    TT000000000046982100 C       
093046920TA               000004218000000002000004242000000001R    TT000000000046982200 C       
093047299TA               000004218000000002000004224000000001R    TT000000000047009200 C       
093047299TA               000004218000000002000004242000000001R    TT000000000047009300 C       
093048067NA               000004218000000012000004225000000001R    NN000000000047106660ACC     A
093048068TA               000004218000000002000004224000000001R    TT000000000047106800 C       
093048068TA               000004218000000002000004242000000001R    TT000000000047106900 C       
093048332KA               000004204000000001000004232000000001R    KK000000000047141400 C       
093048334TA               000004218000000002000004224000000001R    TT000000000047141500 C       
093048334TA               000004218000000002000004242000000001R    TT000000000047141600 C       
093049315PA               000004213000000002000004240000000001R    PP000000000047327500 C       
093049316PA               000004213000000002000004240000000002R    PP000000000047327800 C       
093049317TA               000004218000000002000004224000000001R    TT000000000047328300 C       
093049317TA               000004218000000002000004242000000001R    TT000000000047328400 C       
093049695TA               000004218000000002000004224000000001R    TT000000000047354800 C       
093049695TA               000004218000000002000004241000000001R    TT000000000047354900 C       
093049695KA               000004203000000001000004232000000001R    KK000000000047355000 C       
093049695TA               000004218000000002000004241000000002R    TT000000000047355100 C       
093049698KA               000004204000000001000004232000000001R    KK000000000047355300 C       
093049829TA               000004218000000002000004224000000001R    TT000000000047382900 C       
093049829TA               000004218000000002000004241000000002R    TT000000000047383000 C       
093049984TA               000004218000000002000004224000000001R    TT000000000047399800 C       
093049984TA               000004218000000002000004241000000002R    TT000000000047399900 C       
093050529TA               000004218000000002000004241000000001R    TT000000000047438100 C       
093050530TA               000004218000000002000004224000000001R    TT000000000047438200 C       
093050530TA               000004218000000002000004241000000001R    TT000000000047438300 C       
093050638TA               000004218000000002000004224000000001R    TT000000000047442800 C       
093050638TA               000004218000000002000004241000000001R    TT000000000047443000 C       
093050695TA               000004218000000002000004224000000001R    TT000000000047447400 C       
093050695TA               000004218000000002000004241000000001R    TT000000000047447500 C       
093054455NA               000004218000000011000004225000000001R    NN000000000048105660ACC     A
093054456TA               000004218000000002000004224000000001R    TT000000000048105700 C       
093054456TA               000004218000000002000004241000000001R    TT000000000048105800 C       
093054456YA               000004218000000001000004231000000003R    YY000000000048106000ACB     A
093054456YA               000004218000000001000004231000000006R    YY000000000048106100ACB     A
093054456JA               000004207000000002000004231000000001R    JJ000000000048106200 C       
093054456YA               000004218000000001000004231000000007R    YY000000000048106300ACB     A
093054456YA               000004218000000001000004231000000004R    YY000000000048106400ACB     A
093054457YA               000004218000000001000004231000000001R    YY000000000048106500ACB     A
093054457JA               000004207000000002000004234000000002R    JJ000000000048106600 C       
093054457YA               000004218000000001000004234000000008R    YY000000000048106700ACB     A
093055005TA               000004218000000002000004224000000001R    TT000000000048180200 C       
093055005TA               000004218000000002000004241000000001R    TT000000000048180300 C       
093055005YA               000004218000000001000004231000000003R    YY000000000048180400ACB     A
093055005YA               000004218000000001000004231000000006R    YY000000000048180500ACB     A
093055005YA               000004218000000001000004231000000003R    YY000000000048180600ACB     A
093055005YA               000004218000000001000004234000000008R    YY000000000048180700ACB     A
093055095TA               000004218000000002000004224000000001R    TT000000000048207500 C       
093055095TA               000004218000000002000004241000000001R    TT000000000048207600 C       
093055095YA               000004218000000001000004231000000003R    YY000000000048207700ACB     A
093055095YA               000004218000000001000004231000000006R    YY000000000048207900ACB     A
093055095YA               000004218000000001000004231000000007R    YY000000000048208000ACB     A
093055095JA               000004207000000002000004231000000001R    JJ000000000048208100 C       
093055095YA               000004218000000001000004231000000004R    YY000000000048208200ACB     A
093055095YA               000004218000000001000004231000000001R    YY000000000048208300ACB     A
093055095YA               000004218000000001000004234000000008R    YY000000000048208400ACB     A
093055095JA               000004207000000002000004234000000002R    JJ000000000048208500 C       
093055635TA               000004218000000002000004224000000001R    TT000000000048295800 C       
093055635TA               000004218000000002000004241000000001R    TT000000000048295900 C       
093055635YA               000004218000000001000004231000000003R    YY000000000048296000ACB     A
093055635YA               000004218000000001000004231000000006R    YY000000000048296100ACB     A
093055635YA               000004218000000001000004231000000003R    YY000000000048296200ACB     A
093055635YA               000004218000000001000004234000000008R    YY000000000048296300ACB     A
093055877NA               000004219000000001000004225000000001R    NN000000000048336360ACB     A
093055877NA               000004219000000002000004225000000001R    NN000000000048336460ACB     A
093055877TA               000004218000000002000004224000000001R    TT000000000048336500 C       
093055877TA               000004218000000002000004241000000001R    TT000000000048336600 C       
093055878YA               000004218000000001000004231000000003R    YY000000000048336700ACB     A
093055878YA               000004218000000001000004231000000006R    YY000000000048336800ACB     A
093055878YA               000004218000000001000004231000000007R    YY000000000048336900ACB     A
093055878JA               000004207000000002000004231000000001R    JJ000000000048337000 C       
093055878YA               000004218000000001000004231000000004R    YY000000000048337100ACB     A
093055878YA               000004218000000001000004231000000001R    YY000000000048337200ACB     A
093055878YA               000004218000000001000004234000000008R    YY000000000048337300ACB     A
093055878JA               000004207000000002000004234000000002R    JJ000000000048337400 C       
093055887NA               000004219000000003000004225000000001R    NN000000000048338460ACB     A
093055888KA               000004205000000001000004232000000001R    KK000000000048338500 C       
093055892TA               000004219000000001000004241000000001R    TT000000000048339000 C       
093055892NA               000004219000000004000004225000000001R    NN000000000048339160ACB     A
093055892TA               000004219000000002000004241000000001R    TT000000000048339200 C       
093055963TA               000004219000000002000004224000000001R    TT000000000048344200 C       
093055963TA               000004219000000002000004241000000001R    TT000000000048344400 C       
093055963YA               000004218000000001000004231000000003R    YY000000000048344600ACB     A
093055963JA               000004207000000002000004231000000001R    JJ000000000048344700 C       
093055963YA               000004218000000001000004231000000006R    YY000000000048344800ACB     A
093055963YA               000004218000000001000004231000000007R    YY000000000048344900ACB     A
093055963YA               000004218000000001000004231000000004R    YY000000000048345000ACB     A
093055963YA               000004218000000001000004231000000001R    YY000000000048345100ACB     A
093055963YA               000004218000000001000004234000000008R    YY000000000048345200ACB     A
093055964JA               000004207000000002000004234000000002R    JJ000000000048345300 C       
093056201TA               000004219000000002000004224000000001R    TT000000000048374000 C       
093056201TA               000004219000000001000004224000000001R    TT000000000048374100 C       
093056201TA               000004219000000001000004241000000001R    TT000000000048374200 C       
093056201YA               000004218000000001000004231000000003R    YY000000000048374300ACB     A
093056201YA               000004218000000001000004234000000008R    YY000000000048374400ACB     A
093056201YA               000004218000000001000004231000000001R    YY000000000048374500ACB     A
093056201JA               000004207000000002000004231000000001R    JJ000000000048374600 C       
093056201YA               000004218000000001000004231000000004R    YY000000000048374700ACB     A
093056202YA               000004218000000001000004231000000001R    YY000000000048374800ACB     A
093056202YA               000004218000000001000004234000000008R    YY000000000048374900ACB     A
093056202JA               000004207000000002000004234000000002R    JJ000000000048375000 C       
093056202NA               000004219000000003000004225000000001R    NN000000000048375160ACB     A
093056320TA               000004219000000001000004224000000001R    TT000000000048399700 C       
093056320TA               000004219000000001000004241000000001R    TT000000000048399800 C       
093056320YA               000004218000000001000004231000000003R    YY000000000048399900ACB     A
093056320YA               000004218000000001000004231000000006R    YY000000000048400000ACB     A
093056320YA               000004218000000001000004231000000003R    YY000000000048400100ACB     A
093056321YA               000004218000000001000004234000000008R    YY000000000048400200ACB     A
093056413ZA               000004214000000001000004224000000001R    ZZ000000000048420700 C       
093056413ZA               000004214000000002000004224000000001R    ZZ000000000048420800 C       
093056413TA               000004219000000001000004224000000001R    TT000000000048420900 C       
093056413TA               000004219000000001000004241000000001R    TT000000000048421000 C       
093056414YA               000004218000000001000004231000000003R    YY000000000048421100ACB     A
093056414YA               000004218000000001000004231000000006R    YY000000000048421200ACB     A
093056414JA               000004207000000002000004231000000001R    JJ000000000048421300 C       
093056414YA               000004218000000001000004231000000007R    YY000000000048421400ACB     A
093056414YA               000004218000000001000004231000000004R    YY000000000048421500ACB     A
093056414YA               000004218000000001000004231000000001R    YY000000000048421600ACB     A
093056414JA               000004207000000002000004234000000002R    JJ000000000048421700 C       
093056414YA               000004218000000001000004234000000008R    YY000000000048421800ACB     A
093056491PA               000004213000000001000004240000000002R    PP000000000048429200 C       
093056492ZA               000004214000000003000004224000000001R    ZZ000000000048429300 C       
093056492ZA               000004214000000002000004224000000001R    ZZ000000000048429400 C       
093056493TA               000004219000000001000004224000000001R    TT000000000048429500 C       
093056493TA               000004219000000001000004241000000001R    TT000000000048429600 C       
093056493YA               000004218000000001000004231000000003R    YY000000000048429700ACB     A
093056493YA               000004218000000001000004231000000006R    YY000000000048429800ACB     A
093056493YA               000004218000000001000004231000000003R    YY000000000048429900ACB     A
093056493YA               000004218000000001000004234000000008R    YY000000000048430300ACB     A
093056556PA               000004210000000001000004240000000002R    PP000000000048435300 C       
093056557TA               000004219000000001000004224000000001R    TT000000000048435500 C       
093056558TA               000004219000000001000004241000000001R    TT000000000048435600 C       
093056558YA               000004218000000001000004231000000003R    YY000000000048435700ACB     A
093056558YA               000004218000000001000004231000000006R    YY000000000048435800ACB     A
093056558JA               000004207000000002000004231000000001R    JJ000000000048435900 C       
093056558YA               000004218000000001000004231000000007R    YY000000000048436000ACB     A
093056558YA               000004218000000001000004231000000004R    YY000000000048436100ACB     A
093056558YA               000004218000000001000004231000000001R    YY000000000048436200ACB     A
093056558JA               000004207000000002000004234000000002R    JJ000000000048436300 C       
093056558YA               000004218000000001000004234000000008R    YY000000000048436400ACB     A
093056798TA               000004219000000001000004224000000001R    TT000000000048451600 C       
093056798TA               000004219000000001000004241000000001R    TT000000000048451700 C       
093056798YA               000004218000000001000004231000000003R    YY000000000048451800ACB     A
093056798YA               000004218000000001000004231000000006R    YY000000000048451900ACB     A
093056798YA               000004218000000001000004231000000003R    YY000000000048452000ACB     A
093056798YA               000004218000000001000004234000000008R    YY000000000048452100ACB     A
093057040TA               000004219000000001000004224000000001R    TT000000000048462100 C       
093057040TA               000004219000000001000004241000000001R    TT000000000048462200 C       
093057040YA               000004218000000001000004231000000003R    YY000000000048462300ACB     A
093057040JA               000004207000000002000004231000000001R    JJ000000000048462400 C       
093057041YA               000004218000000001000004231000000006R    YY000000000048462500ACB     A
093057041YA               000004218000000001000004231000000007R    YY000000000048462600ACB     A
093057041YA               000004218000000001000004231000000004R    YY000000000048462700ACB     A
093057041YA               000004218000000001000004231000000001R    YY000000000048462800ACB     A
093057041JA               000004207000000002000004234000000002R    JJ000000000048462900 C       
093057041YA               000004218000000001000004234000000008R    YY000000000048463000ACB     A
093057159PA               000004210000000001000004239000000001R    PP000000000048476400 C       
093057159TA               000004219000000001000004224000000001R    TT000000000048476500 C       
093057159TA               000004219000000001000004241000000001R    TT000000000048476600 C       
093057159YA               000004218000000001000004231000000003R    YY000000000048476700ACB     A
093057159PA               000004210000000001000004239000000002R    PP000000000048476800 C       
093057159YA               000004218000000001000004231000000006R    YY000000000048476900ACB     A
093057160PA               000004210000000001000004239000000001R    PP000000000048477000 C       
093057160YA               000004218000000001000004231000000003R    YY000000000048477100ACB     A
093057160YA               000004218000000001000004234000000008R    YY000000000048477200ACB     A
093057454KA               000004206000000001000004232000000001R    KK000000000048494700 C       
093057455TA               000004219000000001000004224000000001R    TT000000000048494900 C       
093057455TA               000004219000000001000004241000000001R    TT000000000048495000 C       
093057455YA               000004218000000001000004231000000003R    YY000000000048495100ACB     A
093057455JA               000004207000000002000004231000000001R    JJ000000000048495200 C       
093057455YA               000004218000000001000004231000000006R    YY000000000048495300ACB     A
093057455YA               000004218000000001000004231000000007R    YY000000000048495400ACB     A
093057456YA               000004218000000001000004231000000004R    YY000000000048495500ACB     A
093057456YA               000004218000000001000004231000000001R    YY000000000048495600ACB     A
093057456YA               000004218000000001000004234000000008R    YY000000000048495700ACB     A
093057456JA               000004207000000002000004234000000002R    JJ000000000048495800 C       
093057511PA               000004210000000001000004240000000001R    PP000000000048498800 C       
093057511TA               000004219000000001000004224000000001R    TT000000000048499000 C       
093057511KA               000004205000000001000004232000000001R    KK000000000048499100 C       
093057511TA               000004219000000001000004241000000001R    TT000000000048499200 C       
093057511PA               000004210000000001000004240000000002R    PP000000000048499300 C       
093057511TA               000004219000000001000004240000000001R    TT000000000048499400 C       
093057511TA               000004219000000001000004240000000002R    TT000000000048499500 C       
093057511YA               000004218000000001000004231000000003R    YY000000000048499600ACB     A
093057511YA               000004218000000001000004231000000006R    YY000000000048499700ACB     A
093057511YA               000004218000000001000004231000000003R    YY000000000048499800ACB     A
093057512YA               000004218000000001000004234000000008R    YY000000000048499900ACB     A
093057512KA               000004206000000001000004232000000001R    KK000000000048500300 C       
093057524PA               000004210000000001000004239000000001R    PP000000000048501200 C       
093057561TA               000004219000000001000004224000000001R    TT000000000048504500 C       
093057561TA               000004219000000001000004240000000002R    TT000000000048504600 C       
093057561YA               000004218000000001000004231000000003R    YY000000000048504700ACB     A
093057562YA               000004218000000001000004234000000008R    YY000000000048504800ACB     A
093057562YA               000004218000000001000004231000000001R    YY000000000048504900ACB     A
093057562JA               000004207000000002000004231000000001R    JJ000000000048505000 C       
093057562YA               000004218000000001000004231000000004R    YY000000000048505100ACB     A
093057562YA               000004218000000001000004231000000001R    YY000000000048505200ACB     A
093057562JA               000004207000000002000004234000000002R    JJ000000000048505300 C       
093057562YA               000004218000000001000004234000000008R    YY000000000048505400ACB     A
093058346TA               000004219000000001000004240000000001R    TT000000000048579900 C       
093058346TA               000004219000000001000004224000000001R    TT000000000048580000 C       
093058346TA               000004219000000001000004240000000001R    TT000000000048580100 C       
093058346YA               000004218000000001000004231000000003R    YY000000000048580200ACB     A
093058346YA               000004218000000001000004231000000006R    YY000000000048580300ACB     A
093058346YA               000004218000000001000004231000000003R    YY000000000048580400ACB     A
093058346YA               000004218000000001000004234000000008R    YY000000000048580500ACB     A
093058361KA               000004214000000001000004232000000001R    KK000000000048581300 C       
093058463BA               000004203000000016000004238000000007R    BB000000000048588300 C       
093058495TA               000004219000000001000004224000000001R    TT000000000048590200 C       
093058496TA               000004219000000001000004240000000001R    TT000000000048590300 C       
093058496YA               000004218000000001000004231000000003R    YY000000000048590400ACB     A
093058496YA               000004218000000001000004231000000006R    YY000000000048590500ACB     A
093058496JA               000004207000000002000004231000000001R    JJ000000000048590600 C       
093058496YA               000004218000000001000004231000000007R    YY000000000048590700ACB     A
093058496YA               000004218000000001000004231000000004R    YY000000000048590800ACB     A
093058496YA               000004218000000001000004231000000001R    YY000000000048590900ACB     A
093058496JA               000004207000000002000004234000000002R    JJ000000000048591000 C       
093058496YA               000004218000000001000004234000000008R    YY000000000048591100ACB     A
093058695TA               000004219000000001000004224000000001R    TT000000000048614200 C       
093058695TA               000004219000000001000004240000000001R    TT000000000048614300 C       
093058695YA               000004218000000001000004231000000003R    YY000000000048614500ACB     A
093058695YA               000004218000000001000004231000000006R    YY000000000048614700ACB     A
093058695YA               000004218000000001000004231000000003R    YY000000000048614800ACB     A
093058695YA               000004218000000001000004234000000008R    YY000000000048614900ACB     A
093059167NA               000004219000000002000004225000000001R    NN000000000048679660ACB     A
093059168TA               000004219000000001000004224000000001R    TT000000000048679700 C       
093059168TA               000004219000000001000004240000000001R    TT000000000048679800 C       
093059168YA               000004218000000001000004231000000003R    YY000000000048679900ACB     A
093059168YA               000004218000000001000004231000000006R    YY000000000048680000ACB     A
093059168YA               000004218000000001000004231000000003R    YY000000000048680100ACB     A
093059168YA               000004218000000001000004234000000008R    YY000000000048680200ACB     A
093059174NA               000004219000000001000004225000000001R    NN000000000048681760ACB     A
093059314YA               000004211000000006000004234000000008R    YY000000000048696900ACB     A
093059349YA               000004219000000001000004234000000008R    YY000000000048697000ACB     A
093059349YA               000004219000000002000004234000000008R    YY000000000048697160ACB     A
093059349JA               000004219000000001000004234000000002R    JJ000000000048697200 C       
093100016YA               000004219000000001000004234000000008R    YY000000000048746360ACB     A
093100016TA               000004219000000001000004224000000001R    TT000000000048746460 C       
093100016JA               000004207000000002000004234000000002R    JJ000000000048746500 C       
093100016TA               000004219000000001000004240000000001R    TT000000000048746600 C       
093100017YA               000004219000000001000004231000000003R    YY000000000048749500ACB     A
093100017YA               000004219000000001000004234000000008R    YY000000000048749600ACB     A
093100297TA               000004219000000001000004224000000001R    TT000000000048873400 C       
093100298TA               000004219000000001000004240000000001R    TT000000000048873500 C       
093100298YA               000004219000000001000004231000000003R    YY000000000048873600ACB     A
093100298YA               000004219000000001000004231000000006R    YY000000000048873800ACB     A
093100298YA               000004219000000001000004231000000003R    YY000000000048874000ACB     A
093100298YA               000004219000000001000004234000000008R    YY000000000048874100ACB     A
093100722TA               000004219000000001000004230000000003R    TT000000000048941300 C       
093100722TA               000004219000000001000004230000000004R    TT000000000048941400 C       
093100722TA               000004219000000001000004224000000001R    TT000000000048941600 C       
093100722TA               000004219000000001000004230000000004R    TT000000000048941700 C       
093100722YA               000004219000000001000004231000000003R    YY000000000048942000ACB     A
093100722YA               000004219000000001000004231000000006R    YY000000000048942300ACB     A
093100722YA               000004219000000001000004231000000003R    YY000000000048942400ACB     A
093100723YA               000004219000000001000004234000000008R    YY000000000048942500ACB     A
093100852TA               000004219000000001000004224000000001R    TT000000000048953100 C       
093100852TA               000004219000000001000004230000000004R    TT000000000048953200 C       
093100852YA               000004219000000001000004231000000003R    YY000000000048953300ACB     A
093100853YA               000004219000000001000004231000000006R    YY000000000048953400ACB     A
093100853YA               000004219000000001000004231000000003R    YY000000000048953500ACB     A
093100853YA               000004219000000001000004234000000008R    YY000000000048953600ACB     A
093100944TA               000004219000000001000004224000000001R    TT000000000048981800 C       
093100945TA               000004219000000001000004230000000004R    TT000000000048982000 C       
093100945YA               000004219000000001000004231000000003R    YY000000000048982100ACB     A
093100945YA               000004219000000001000004231000000006R    YY000000000048982200ACB     A
093100945YA               000004219000000001000004231000000003R    YY000000000048982300ACB     A
093100945YA               000004219000000001000004234000000008R    YY000000000048982400ACB     A
093101003TA               000004219000000001000004224000000001R    TT000000000048998500 C       
093101003TA               000004219000000001000004230000000004R    TT000000000048999600 C       
093101006YA               000004219000000001000004231000000003R    YY000000000049005400ACB     A
093101006YA               000004219000000001000004234000000008R    YY000000000049005800ACB     A
093101006YA               000004219000000001000004231000000003R    YY000000000049006300ACB     A
093101006YA               000004219000000001000004234000000008R    YY000000000049006400ACB     A
093101101TA               000004219000000001000004224000000001R    TT000000000049037700 C       
093101101TA               000004219000000001000004230000000004R    TT000000000049037800 C       
093101101YA               000004219000000001000004231000000003R    YY000000000049037900ACB     A
093101101YA               000004219000000001000004231000000006R    YY000000000049038000ACB     A
093101102YA               000004219000000001000004231000000003R    YY000000000049038100ACB     A
093101102YA               000004219000000001000004234000000008R    YY000000000049038200ACB     A
093101105XA               000000000000000000000004234000000018R    XX000000000049038900 C       
093101304TA               000004219000000001000004224000000001R    TT000000000049087400 C       
093101304TA               000004219000000001000004230000000004R    TT000000000049087500 C       
093101305YA               000004219000000001000004231000000003R    YY000000000049087600ACB     A
093101305YA               000004219000000001000004231000000006R    YY000000000049087700ACB     A
093101305YA               000004219000000001000004231000000003R    YY000000000049087800ACB     A
093101305YA               000004219000000001000004234000000008R    YY000000000049087900ACB     A
093101557TA               000004219000000001000004230000000003R    TT000000000049143500 C       
093101557TA               000004219000000001000004224000000001R    TT000000000049143600 C       
093101557PA               000004210000000001000004238000000001R    PP000000000049143700 C       
093101557TA               000004219000000001000004230000000003R    TT000000000049143800 C       
093101557YA               000004219000000001000004231000000003R    YY000000000049143900ACB     A
093101557PA               000004210000000001000004238000000002R    PP000000000049144000 C       
093101557YA               000004219000000001000004231000000006R    YY000000000049144100ACB     A
093101557YA               000004219000000001000004231000000003R    YY000000000049144200ACB     A
093101557YA               000004219000000001000004234000000008R    YY000000000049144300ACB     A
093101674NA               000004219000000011000004225000000001R    NN000000000049160960ACB     A
093101676TA               000004219000000001000004224000000001R    TT000000000049161400 C       
093101676TA               000004219000000001000004230000000003R    TT000000000049161500 C       
093101676YA               000004219000000001000004231000000003R    YY000000000049161700ACB     A
093101676YA               000004219000000001000004231000000006R    YY000000000049162000ACB     A
093101676YA               000004219000000001000004231000000003R    YY000000000049162100ACB     A
093101676YA               000004219000000001000004234000000008R    YY000000000049162200ACB     A
093101845TA               000004219000000001000004224000000001R    TT000000000049175000 C       
093101845TA               000004219000000001000004230000000003R    TT000000000049175100 C       
093101845YA               000004219000000001000004231000000003R    YY000000000049175700ACB     A
093101845YA               000004219000000001000004231000000006R    YY000000000049175800ACB     A
093101845YA               000004219000000001000004231000000003R    YY000000000049175900ACB     A
093101845YA               000004219000000001000004234000000008R    YY000000000049176100ACB     A
093101934XA               000004210000000009000004234000000018R    XX000000000049189800 C       
093101936TA               000004219000000001000004224000000001R    TT000000000049190400 C       
093101936TA               000004219000000001000004230000000003R    TT000000000049190500 C       
093101936YA               000004219000000001000004231000000003R    YY000000000049190600ACB     A
093101936YA               000004219000000001000004231000000006R    YY000000000049190800ACB     A
093101936YA               000004219000000001000004231000000003R    YY000000000049190900ACB     A
093101936YA               000004219000000001000004234000000008R    YY000000000049191000ACB     A
093102079TA               000004219000000001000004224000000001R    TT000000000049211000 C       
093102079TA               000004219000000001000004230000000003R    TT000000000049211100 C       
093102079YA               000004219000000001000004231000000003R    YY000000000049211200ACB     A
093102080YA               000004219000000001000004231000000006R    YY000000000049211300ACB     A
093102080YA               000004219000000001000004231000000003R    YY000000000049211400ACB     A
093102080YA               000004219000000001000004234000000008R    YY000000000049211500ACB     A
093102081BA               000004204000000001000004238000000007R    BB000000000049212900 C       
093102081BA               000004204000000002000004238000000007R    BB000000000049213000 C       
093102112ZA               000004214000000002000004243000000002R    ZZ000000000049218660 C       
093102112ZA               000004215000000001000004243000000002R    ZZ000000000049218700 C       
093102112ZA               000004215000000002000004243000000002R    ZZ000000000049218800 C       
093102112ZA               000004220000000001000004243000000002R    ZZ000000000049218960 C       
093102112TA               000004220000000001000004230000000003R    TT000000000049219000 C       
093102112TA               000004220000000002000004230000000003R    TT000000000049219160 C       
093102112NA               000004219000000011000004225000000001R    NN000000000049219200ACC     A
093102113NA               000004219000000011000004225000000001R    NN000000000049219300ACB     A
093102113PA               000004210000000001000004238000000001R    PP000000000049219400 C       
093102114PA               000004210000000001000004239000000001R    PP000000000049219500 C       
093102114PA               000004214000000003000004239000000001R    PP000000000049219600 C       
093102114PA               000004214000000004000004239000000001R    PP000000000049219700 C       
093102116NA               000004221000000001000004225000000001R    NN000000000049220310ACB     A
093102117NA               000004221000000002000004225000000001R    NN000000000049220610ACB     A
093102118BA               000004205000000001000004238000000007R    BB000000000049221400 C       
093102118BA               000004205000000002000004238000000007R    BB000000000049221500 C       
093102119TA               000004220000000003000004230000000003R    TT000000000049221900 C       
093102163TA               000004220000000003000004225000000001R    TT000000000049231400 C       
093102163TA               000004220000000003000004230000000003R    TT000000000049231600 C       
093102163TA               000004220000000003000004225000000001R    TT000000000049231700 C       
093102163YA               000004219000000001000004232000000003R    YY000000000049231900ACB     A
093102164YA               000004219000000001000004232000000006R    YY000000000049232100ACB     A
093102164JA               000004207000000002000004232000000001R    JJ000000000049232200 C       
093102164YA               000004219000000001000004232000000007R    YY000000000049232400ACB     A
093102164ZA               000004215000000004000004243000000002R    ZZ000000000049232600 C       
093102164ZA               000004215000000003000004243000000002R    ZZ000000000049232700 C       
093102164TA               000004220000000002000004225000000001R    TT000000000049232800 C       
093102164PA               000004214000000001000004239000000001R    PP000000000049232900 C       
093102164PA               000004210000000001000004239000000001R    PP000000000049233100 C       
093102202ZA               000004215000000002000004243000000002R    ZZ000000000049240400 C       
093102328NA               000004221000000003000004225000000001R    NN000000000049286560ACB     A
093102329NA               000004221000000002000004225000000001R    NN000000000049286660ACB     A
093102329TA               000004220000000002000004225000000002R    TT000000000049286760 C       
093102329TA               000004220000000002000004225000000001R    TT000000000049286860 C       
093102329TA               000004220000000001000004225000000001R    TT000000000049286900 C       
093102330TA               000004220000000001000004230000000003R    TT000000000049287000 C       
093102330YA               000004219000000001000004232000000004R    YY000000000049287100ACB     A
093102330YA               000004219000000001000004232000000001R    YY000000000049287200ACB     A
093102330JA               000004207000000002000004234000000002R    JJ000000000049287300 C       
093102330NA               000004221000000001000004225000000001R    NN000000000049287410ACB     A
093102330YA               000004219000000001000004234000000008R    YY000000000049287500ACB     A
093102330ZA               000004215000000001000004243000000002R    ZZ000000000049287600 C       
093102330ZA               000004214000000002000004243000000002R    ZZ000000000049287700 C       
093102378NA               000004221000000002000004225000000001R    NN000000000049299610ACB     A
093102379TA               000004220000000001000004225000000001R    TT000000000049299700 C       
093102380TA               000004220000000001000004230000000003R    TT000000000049299900 C       
093102392NA               000004221000000001000004225000000001R    NN000000000049302110ACB     A
093102433ZA               000004214000000001000004243000000002R    ZZ000000000049315300 C       
093102434TA               000004220000000001000004225000000001R    TT000000000049315700 C       
093102434TA               000004220000000001000004225000000002R    TT000000000049315860 C       
093102434TA               000004220000000001000004225000000001R    TT000000000049315960 C       
093102434TA               000004220000000001000004230000000003R    TT000000000049316000 C       
093102440YA               000004211000000006000004234000000008R    YY000000000049319300ACB     A
093102478PA               000004220000000001000004239000000001R    PP000000000049331500 C       
093102478PA               000004220000000002000004239000000001R    PP000000000049331900 C       
093102553PA               000004220000000001000004239000000001R    PP000000000049353600 C       
093102553TA               000004220000000001000004225000000001R    TT000000000049353700 C       
093102553TA               000004220000000001000004230000000003R    TT000000000049353800 C       
093102864TA               000004220000000001000004225000000001R    TT000000000049399900 C       
093102864TA               000004220000000001000004225000000002R    TT000000000049400060 C       
093102864TA               000004220000000001000004225000000001R    TT000000000049400160 C       
093102864TA               000004220000000001000004230000000003R    TT000000000049400200 C       
093102865ZA               000004214000000001000004225000000002R    ZZ000000000049400360 C       
093102865ZA               000004214000000001000004225000000003R    ZZ000000000049400460 C       
093102866PA               000004220000000001000004231000000003R    PP000000000049400800 C       
093102867PA               000004220000000001000004231000000004R    PP000000000049401100 C       
093102964MA               000000000000000000000004233000000007R    MM000000000049419700 C       
093102998TA               000004220000000001000004225000000001R    TT000000000049424200 C       
093102998TA               000004220000000001000004225000000002R    TT000000000049424300 C       
093102998YA               000004211000000006000004232000000003R    YY000000000049424500ACB     A
093102998YA               000004211000000006000004232000000004R    YY000000000049424600ACB     A
093102998JA               000004207000000002000004232000000001R    JJ000000000049424700 C       
093102998YA               000004211000000006000004232000000007R    YY000000000049424800ACB     A
093103021PA               000004221000000001000004231000000004R    PP000000000049430100 C       
093103022TA               000004221000000001000004225000000002R    TT000000000049430200 C       
093103022PA               000004221000000002000004231000000004R    PP000000000049430360 C       
093103022TA               000004221000000002000004225000000002R    TT000000000049430500 C       
093103022BA               000004206000000007000004238000000007R    BB000000000049430600 C       
093103022BA               000004206000000008000004238000000007R    BB000000000049430800 C       
093103063TA               000004221000000001000004225000000002R    TT000000000049434200 C       
093103063TA               000004221000000001000004225000000001R    TT000000000049434300 C       
093103063BA               000004206000000009000004238000000007R    BB000000000049434400 C       
093103063ZA               000004217000000001000004225000000003R    ZZ000000000049434500 C       
093103063ZA               000004217000000002000004225000000003R    ZZ000000000049434600 C       
093103063ZA               000004217000000002000004225000000002R    ZZ000000000049434860 C       
093103063PA               000004221000000001000004231000000004R    PP000000000049434960 C       
093103063TA               000004221000000001000004230000000003R    TT000000000049435000 C       
093103063TA               000004221000000001000004225000000001R    TT000000000049435200 C       
093103064TA               000004221000000001000004230000000003R    TT000000000049435300 C       
093103064YA               000004211000000006000004232000000004R    YY000000000049435400ACB     A
093103064YA               000004211000000006000004232000000001R    YY000000000049435500ACB     A
093103064YA               000004211000000006000004234000000008R    YY000000000049435600ACB     A
093103064JA               000004207000000002000004234000000002R    JJ000000000049435700 C       
