040000010PA               000000000000000000000006000000000002R    PP000000000000000212 C       
063533190PA               000000000000000000000004529000000001R    PP000000000002549412 C       
063809028PA               000003793000000001000004529000000001R    PP000000000002573112 C       
063858940PA               000003794000000003000004529000000001R    PP000000000002577612 C       
063859457PA               000003794000000003000004528000000002R    PP000000000002577712 C       
075842654PA               000003794000000003000004179000000001R    PP000000000004304112 C       
080000315KA               000004150000000002000004316000000001R    KK000000000004348762 C       
080016140PA               000004151000000002000004179000000001R    PP000000000004387212 C       
082547140PA               000004123000000001000004179000000001R    PP000000000006157262 C       
082930307PA               000003991000000021000004179000000001R    PP000000000006514302 C       
082930512PA               000003793000000001000004179000000001R    PP000000000006515602 C       
083015053PA               000003991000000021000004179000000001R    PP000000000006609602 C       
083015323PA               000004122000000001000004179000000001R    PP000000000006610602 C       
083525034TA               000003423000000001000000000000000000R    TT000000000007017602 C       
083525034TA               000003423000000001000004911000000001R    TT000000000007017702 C       
083805644TA               000003423000000001000004178000000002R    TT000000000007246162 C       
083821472PA               000004122000000001000004207000000001R    PP000000000007272702 C       
083902178PA               000004122000000001000004172000000001R    PP000000000007416462 C       
083904324TA               000003423000000001000004911000000001R    TT000000000007421302 C       
085840071PA               000003991000000021000004172000000001R    PP000000000010067702 C       
085840276PA               000003793000000001000004172000000001R    PP000000000010070602 C       
090110239PA               000003991000000021000004172000000001R    PP000000000010666002 C       
090120146PA               000004122000000001000004172000000001R    PP000000000010675802 C       
091747294PA               000004122000000001000004200000000001R    PP000000000013672762 C       
091748007PA               000004122000000001000004228000000001R    PP000000000013675762 C       
091749007PA               000004122000000001000004256000000001R    PP000000000013678462 C       
091750007PA               000004122000000001000004284000000001R    PP000000000013681262 C       
091750013TA               000003423000000001000004965000000001R    TT000000000013681602 C       
091751002PA               000004122000000001000004312000000001R    PP000000000013683762 C       
091752002PA               000004122000000001000004343000000001R    PP000000000013686162 C       
091901775TA               000003423000000001000004315000000002R    TT000000000013810762 C       
092620073PA               000004067000000002000004343000000001R    PP000000000014707202 C       
092620073PA               000004067000000002000004402000000002R    PP000000000014707502 C       
092633205PA               000004106000000001000004402000000002R    PP000000000014851102 C       
092633205PA               000004106000000001000004359000000001R    PP000000000014851202 C       
092633605PA               000004097000000001000004359000000001R    PP000000000014857002 C       
092633605PA               000004097000000001000004368000000001R    PP000000000014857102 C       
092800047KA               000004150000000002000004315000000001R    KK000000000015489302 C       
092800048TA               000003423000000001000004314000000001R    TT000000000015490262 C       
092824329TA               000003423000000001000004313000000002R    TT000000000017035162 C       
092831524YA               000000000000000000000004486000000001R    YY000000000017114002 C       
092831524YA               000003984000000001000004486000000001R    YY000000000017114102 C       
092842754TA               000003880000000001000004313000000002R    TT000000000017292902 C       
092842754TA               000003880000000001000004312000000001R    TT000000000017293062 C       
092848065ZA               000000000000000000000004485000000001R    ZZ000000000017357002 C       
092848066ZA               000003984000000001000004485000000001R    ZZ000000000017357102 C       
092851755TA               000003880000000002000004312000000001R    TT000000000017417502 C       
092851755TA               000003984000000001000004312000000001R    TT000000000017417602 C       
092851755TA               000003984000000002000004312000000001R    TT000000000017417702 C       
092851755TA               000003984000000003000004312000000001R    TT000000000017417802 C       
092900200ZA               000003984000000001000004398000000001R    ZZ000000000017505502 C       
092900200ZA               000004067000000001000004398000000001R    ZZ000000000017505602 C       
092900244YA               000003984000000001000004398000000001R    YY000000000017506002 C       
092900244YA               000004067000000001000004398000000001R    YY000000000017506102 C       
092918996TA               000003984000000003000004311000000002R    TT000000000017924362 C       
092923207PA               000004097000000001000004364000000001R    PP000000000018010602 C       
092940500TA               000003984000000004000004311000000002R    TT000000000018458102 C       
092940899PA               000004097000000001000004310000000001R    PP000000000018465962 C       
092940899PA               000004098000000001000004310000000001R    PP000000000018466002 C       
092940900PA               000004098000000001000004309000000001R    PP000000000018466162 C       
092940900PA               000004098000000001000004308000000001R    PP000000000018466262 C       
092945005TA               000003984000000004000004310000000001R    TT000000000018565202 C       
092958284TA               000003984000000004000004307000000002R    TT000000000019179662 C       
092958284PA               000004098000000001000004306000000001R    PP000000000019179762 C       
092958284PA               000004098000000001000004305000000001R    PP000000000019179862 C       
092958284PA               000004098000000001000004304000000001R    PP000000000019180062 C       
093000003PA               000004098000000001000004289000000001R    PP000000000019237162 C       
093000004PA               000004098000000001000004288000000001R    PP000000000019238662 C       
093000009JA               000003486000000001000000000000000000R    JJ000000000019262702 C       
093000010JA               000003486000000001000004975000000001R    JJ000000000019263902 C       
093000013TA               000003984000000006000004307000000002R    TT000000000019278302 C       
093000072KA               000004150000000002000004316000000001R    KK000000000019381802 C       
093000073KA               000004151000000001000004316000000001R    KK000000000019384162 C       
093000096PA               000004152000000001000004288000000001R    PP000000000019419212 C       
093000124PA               000004152000000001000004287000000001R    PP000000000019446112 C       
093000124PA               000004153000000001000004287000000001R    PP000000000019446212 C       
093000200PA               000004153000000001000004287000000002R    PP000000000019489512 C       
093000870TA               000004120000000001000004307000000002R    TT000000000019673702 C       
093000870ZA               000004104000000001000004398000000001R    ZZ000000000019673802 C       
093000870ZA               000004104000000001000004336000000001R    ZZ000000000019673902 C       
093000870TA               000004120000000001000004307000000003R    TT000000000019674102 C       
093001000PA               000004153000000001000004286000000001R    PP000000000019728412 C       
093001001PA               000004154000000001000004286000000001R    PP000000000019729212 C       
093001006KA               000004150000000002000004316000000001R    KK000000000019766602 C       
093001008NA               000004160000000001000004177000000030O    NN000000000019778212 C       
093001010JA               000003486000000001000000000000000000R    JJ000000000019791702 C       
093001010JA               000003486000000001000004845000000001R    JJ000000000019792302 C       
093001010YA               000004067000000001000004486000000001R    YY000000000019795402 C       
093001010YA               000003984000000001000004486000000001R    YY000000000019797502 C       
093001011PA               000004154000000001000004287000000002R    PP000000000019806602 C       
093001012PA               000004097000000001000004287000000002R    PP000000000019807602 C       
093001014JA               000003984000000001000004484000000001R    JJ000000000019823102 C       
093001020TA               000004120000000001000004179000000001R    TT000000000019845002 C       
093001020BA               000004120000000002000000000000000000R    BB000000000019845102 C       
093001020BA               000004120000000002000004179000000002R    BB000000000019845602 C       
093001022NA               000004160000000001000004177000000030O    NN000000000019853702AC     EA
093001024PA               000004097000000001000004287000000001R    PP000000000019863902 C       
093001024PA               000004097000000001000004364000000001R    PP000000000019864302 C       
093001034DA               000003450000000002000000000000000000RFLOWDD000000000019899501AC      A
093001035NA               000004160000000001000004177000000030R    NN000000000019901600ACA     A
093001037JA               000003984000000001000004449000000001R    JJ000000000019909000AC      A
093001038DA               000003980000000001000000000000000000RFLOWDD000000000019910501AC      A
093001040DA               000003980000000001000005000000000001RFLOWDD000000000019915501AC      A
093001042YA               000003984000000001000004449000000001R    YY000000000019920700AC      A
093001043JA               000003984000000001000004345000000001R    JJ000000000019923200AC      A
093001045PA               000004155000000001000004364000000001R    PP000000000019925900AC      A
093001046BA               000004120000000002000000000000000000R    BB000000000019928000AC      A
093001047DA               000003980000000001000004300000000004RFLOWDD000000000019931901AC      A
093001047PA               000004155000000001000004315000000001R    PP000000000019933400 C       
093001051DA               000004127000000001000004300000000004RFLOWDD000000000019939701AC      A
093001056NA               000004160000000001000004177000000030R    NN000000000019961800 C       
093001059PA               000004155000000001000004364000000001R    PP000000000019977300 C       
093001068KA               000004159000000001000004316000000001R    KK000000000020010800 C       
093001069BA               000004155000000002000000000000000000R    BB000000000020012300 C       
093001071ZA               000004104000000001000004224000000001R    ZZ000000000020018200 C       
093001071YA               000003984000000001000004345000000001R    YY000000000020019800 C       
093001072PA               000004155000000001000004362000000001R    PP000000000020020300 C       
093001072TA               000004128000000001000004179000000001R    TT000000000020020800 C       
093001072TA               000004128000000002000004179000000001R    TT000000000020021200 C       
093001072ZA               000004112000000001000004224000000001R    ZZ000000000020021300 C       
093001072ZA               000004112000000002000004224000000001R    ZZ000000000020021800 C       
093001072TA               000004128000000002000004179000000002R    TT000000000020022200 C       
093001106KA               000004159000000001000004290000000002R    KK000000000020095800 C       
093001110TA               000004128000000002000004179000000001R    TT000000000020105200 C       
093001111TA               000004128000000001000004179000000001R    TT000000000020107100 C       
093001115DA               000004127000000001000004300000000012RFLOWDD000000000020112601AC      A
093001120PA               000004155000000001000004193000000002R    PP000000000020124700 C       
093001120TA               000004165000000002000004179000000001R    TT000000000020124960 C       
093001120BA               000004165000000002000000000000000000R    BB000000000020125000 C       
093001120PA               000004165000000002000004193000000002R    PP000000000020125100 C       
093001120BA               000004165000000002000004193000000002R    BB000000000020125200 C       
093001120ZA               000004165000000002000004193000000002R    ZZ000000000020125300 C       
093001120YA               000004165000000002000004345000000001R    YY000000000020125400 C       
093001120YA               000004165000000002000004193000000002R    YY000000000020125600 C       
093001120ZA               000004165000000002000004193000000003R    ZZ000000000020125800 C       
093001120ZA               000004165000000003000004193000000003R    ZZ000000000020126060 C       
093001120JA               000004165000000002000004345000000001R    JJ000000000020126100 C       
093001120JA               000004165000000002000004193000000002R    JJ000000000020126300 C       
093001122KA               000004159000000001000004193000000002R    KK000000000020127800 C       
093001122KA               000004165000000002000004193000000002R    KK000000000020128400 C       
093001127NA               000004165000000002000004177000000030R    NN000000000020131300 C       
093001140NA               000004165000000003000004177000000030R    NN000000000020149600 C       
093001148NA               000004165000000003000004188000000016R    NN000000000020158460 C       
093001156NA               000004166000000001000004188000000016R    NN000000000020170660 C       
093001214KA               000004165000000002000004192000000001R    KK000000000020230500 C       
093001215BA               000004165000000002000004178000000001R    BB000000000020230660 C       
093001215BA               000004165000000002000004178000000002R    BB000000000020231560 C       
093001219NA               000004166000000001000004179000000001R    NN000000000020233400 C       
093001219NA               000004166000000001000004179000000002R    NN000000000020233800 C       
093001222NA               000004165000000003000004179000000002R    NN000000000020235760 C       
093001354ZA               000004165000000003000004166000000002R    ZZ000000000020296560 C       
093001354ZA               000004165000000002000004166000000002R    ZZ000000000020296600 C       
093001354ZA               000004165000000002000004166000000001R    ZZ000000000020296760 C       
093001354ZA               000004165000000002000004193000000003R    ZZ000000000020296860 C       
093001354NA               000004165000000002000004179000000002R    NN000000000020297060 C       
093001505NA               000004165000000002000004178000000001R    NN000000000020340600 C       
093001506NA               000004165000000002000004178000000002R    NN000000000020341200 C       
093001506PA               000004155000000001000004193000000002R    PP000000000020341300 C       
093001506KA               000004159000000001000004192000000001R    KK000000000020341400 C       
093001506TA               000004153000000002000004179000000001R    TT000000000020341560 C       
093001506BA               000004152000000002000004178000000002R    BB000000000020341660 C       
093001506YA               000004152000000002000004193000000002R    YY000000000020341760 C       
093001506BA               000004152000000002000004178000000001R    BB000000000020341800 C       
093001506ZA               000004152000000002000004193000000003R    ZZ000000000020341900 C       
093001506ZA               000004152000000002000004193000000002R    ZZ000000000020342000 C       
093001507PA               000004155000000001000004177000000001R    PP000000000020342160 C       
093001507TA               000004166000000001000004179000000001R    TT000000000020342260 C       
093001507NA               000004160000000003000004178000000002R    NN000000000020342300 C       
093001507TA               000004166000000002000004179000000001R    TT000000000020342460 C       
093001507PA               000004155000000001000004177000000002R    PP000000000020342560 C       
093001508JA               000004152000000002000004193000000002R    JJ000000000020342800 C       
093001509JA               000004152000000002000004178000000002R    JJ000000000020343400 C       
093001517YA               000004152000000002000004178000000001R    YY000000000020344500 C       
093001517JA               000004152000000002000004178000000003R    JJ000000000020344600 C       
093001517YA               000004152000000002000004178000000002R    YY000000000020344700 C       
093001536NA               000004160000000003000004178000000002R    NN000000000020349000ACB     A
093001568NA               000004160000000003000004177000000001R    NN000000000020366900ACB     A
093001569NA               000004160000000003000004177000000002R    NN000000000020367200ACB     A
093001570JA               000004152000000002000004177000000003R    JJ000000000020368160 C       
093001572ZA               000004152000000002000004177000000002R    ZZ000000000020369800 C       
093001572YA               000004152000000002000004177000000001R    YY000000000020370200 C       
093001617TA               000004166000000001000004179000000001R    TT000000000020401660 C       
093001617NA               000004160000000003000004177000000003R    NN000000000020401800ACB     A
093001619NA               000004160000000003000004177000000002R    NN000000000020402100ACB     A
093001620NA               000004160000000003000004176000000001R    NN000000000020402460 C       
093001620PA               000004155000000001000004177000000001R    PP000000000020402900 C       
093001620PA               000004155000000001000004175000000001R    PP000000000020403260 C       
093001620PA               000004155000000001000004175000000002R    PP000000000020403360 C       
093001620PA               000004155000000001000004175000000001R    PP000000000020403460 C       
093001620ZA               000004152000000002000004176000000001R    ZZ000000000020403500 C       
093001621ZA               000004152000000002000004176000000002R    ZZ000000000020403600 C       
093001622KA               000004159000000001000004193000000002R    KK000000000020404200 C       
093001643NA               000004160000000003000004177000000002R    NN000000000020410400 C       
093001643NA               000004160000000003000004177000000001R    NN000000000020410500 C       
093001802XA               000004150000000018000000000000000000R    XX000000000020450700 C       
093001806YA               000004158000000008000004177000000001R    YY000000000020450900 C       
093001806YA               000004158000000009000004177000000001R    YY000000000020451000 C       
093001807JA               000004152000000004000004177000000003R    JJ000000000020451300 C       
093001807JA               000004158000000001000004177000000003R    JJ000000000020451400 C       
093001808DA               000004157000000017000004300000000012RFLOWDD000000000020452201AC      A
093001869XA               000004150000000018000004187000000018R    XX000000000020474500 C       
093001908BA               000004152000000002000004178000000003R    BB000000000020482100 C       
093001918NA               000004166000000001000004177000000001R    NN000000000020484800 C       
093001919NA               000004166000000002000004177000000001R    NN000000000020485360 C       
093001920YA               000004158000000008000004177000000001R    YY000000000020485500 C       
093001920JA               000004152000000004000004177000000003R    JJ000000000020485700 C       
093001920ZA               000004152000000002000004176000000001R    ZZ000000000020485900 C       
093001922DA               000004157000000017000004184000000017RFLOWDD000000000020486101AC      A
093001986NA               000004166000000001000004177000000001R    NN000000000020520960 C       
093002009NA               000004166000000001000004177000000001R    NN000000000020538100ACB     A
093002029NA               000004166000000001000004177000000001R    NN000000000020557200 C       
093002042NA               000004166000000001000004177000000001R    NN000000000020567200ACB     A
093002192ZA               000004152000000004000004176000000001R    ZZ000000000020615900 C       
093002434PA               000004155000000001000004178000000001R    PP000000000020670360 C       
093002434PA               000004156000000001000004178000000001R    PP000000000020670800 C       
093002435PA               000004167000000001000004178000000001R    PP000000000020671060 C       
093002435PA               000004167000000002000004178000000001R    PP000000000020671260 C       
093002435TA               000004167000000001000004179000000001R    TT000000000020671400 C       
093002435TA               000004167000000002000004179000000001R    TT000000000020671500 C       
093002442NA               000004167000000001000004177000000001R    NN000000000020672900ACB     A
093002442NA               000004167000000002000004177000000001R    NN000000000020673000ACB     A
093002454NA               000004167000000003000004177000000001R    NN000000000020675460ACB     A
093002468NA               000004168000000001000004177000000001R    NN000000000020677860ACB     A
093002469NA               000004168000000002000004177000000001R    NN000000000020678060ACB     A
093002473NA               000004168000000003000004177000000001R    NN000000000020681060ACB     A
093002476TA               000004168000000001000004179000000001R    TT000000000020681800 C       
093002476TA               000004168000000002000004179000000001R    TT000000000020681900 C       
093002478NA               000004168000000003000004176000000001R    NN000000000020682600ACB     A
093002478NA               000004168000000003000004176000000002R    NN000000000020682710ACB     A
093002525PA               000004167000000001000004178000000001R    PP000000000020689600 C       
093002525PA               000004162000000002000004178000000001R    PP000000000020689700 C       
093002525PA               000004162000000001000004178000000001R    PP000000000020689800 C       
093002962TA               000004168000000002000004178000000001R    TT000000000020748900 C       
093002962TA               000004168000000002000004178000000002R    TT000000000020749000 C       
093002962TA               000004168000000001000004178000000002R    TT000000000020749100 C       
093003013NA               000004168000000002000004176000000002R    NN000000000020766510ACB     A
093003014NA               000004168000000002000004176000000001R    NN000000000020767460ACB     A
093003015NA               000004168000000002000004176000000001R    NN000000000020768000ACC     A
093003023NA               000004168000000002000004176000000001R    NN000000000020771300ACA     A
093003028NA               000004168000000002000004177000000001R    NN000000000020773400ACA     A
093003028NA               000004168000000002000004176000000001R    NN000000000020773500ACA     A
093003029NA               000004168000000002000004177000000001R    NN000000000020773700ACA     A
093003029NA               000004168000000002000004176000000001R    NN000000000020773900ACA     A
093003029NA               000004168000000002000004176000000002R    NN000000000020774010ACA     A
093003034NA               000004168000000002000004176000000002R    NN000000000020777300ACC     A
093003234TA               000004168000000001000004178000000001R    TT000000000020834100 C       
093003234TA               000004168000000001000004179000000001R    TT000000000020834300 C       
093003235NA               000004168000000002000004176000000001R    NN000000000020835060ACC     A
093003256ZA               000004152000000004000004176000000003R    ZZ000000000020841160 C       
093003497TA               000004168000000001000004176000000001R    TT000000000020930000 C       
093003499TA               000004168000000001000004176000000004R    TT000000000020930260 C       
093003825JA               000004152000000004000004178000000002R    JJ000000000020987200 C       
093003825YA               000004158000000008000004178000000001R    YY000000000020987400 C       
093003827PA               000004162000000001000004180000000001R    PP000000000020987600 C       
093003827JA               000004152000000004000004179000000002R    JJ000000000020987800 C       
093003828BA               000004152000000002000004178000000001R    BB000000000020988100 C       
093003828YA               000004158000000008000004183000000008R    YY000000000020988200 C       
093003831JA               000004152000000004000004185000000002R    JJ000000000020989000 C       
093003838NA               000004168000000002000004182000000010R    NN000000000020990200ACC     A
093003905NA               000004168000000002000004182000000011R    NN000000000020998500ACC     A
093003905JA               000004152000000004000004182000000001R    JJ000000000020998600 C       
093003912KA               000004159000000001000004183000000001R    KK000000000020999200 C       
093003915NA               000004168000000002000004181000000001R    NN000000000020999600ACC     A
093003916JA               000004152000000004000004181000000001R    JJ000000000020999700 C       
093003921YA               000004158000000008000004181000000002R    YY000000000021000000 C       
093003921YA               000004158000000008000004181000000003R    YY000000000021000100 C       
093003921JA               000004152000000004000004181000000002R    JJ000000000021000200 C       
093004025BA               000004152000000002000004181000000001R    BB000000000021027300 C       
093004025XA               000004150000000018000004175000000001R    XX000000000021027460 C       
093004025JA               000004152000000004000004181000000001R    JJ000000000021027500 C       
093004025YA               000004158000000008000004181000000002R    YY000000000021027600 C       
093004034NA               000004168000000001000004181000000001R    NN000000000021031660ACC     A
093005022PA               000004162000000001000004179000000001R    PP000000000021234800 C       
093005023PA               000004162000000001000004179000000002R    PP000000000021235000 C       
093005060MA               000004158000000007000000000000000000R    MM000000000021246700 C       
093005073MA               000004158000000007000004186000000007R    MM000000000021250100 C       
093005255TA               000004163000000003000004176000000004R    TT000000000021287260 C       
093005256NA               000004168000000001000004181000000001R    NN000000000021287300ACB     A
093005256NA               000004168000000001000004176000000001R    NN000000000021287400ACB     A
093005256NA               000004168000000001000004176000000002R    NN000000000021287500ACB     A
093005399NA               000004168000000002000004176000000002R    NN000000000021305060ACB     A
093005399NA               000004168000000002000004176000000001R    NN000000000021305100ACB     A
093005410NA               000004168000000002000004181000000001R    NN000000000021306500ACB     A
093005410PA               000004162000000001000004179000000001R    PP000000000021306700 C       
093005458YA               000004158000000008000004181000000002R    YY000000000021318000ACB     A
093006150NA               000004168000000003000004181000000001R    NN000000000021470560ACB     A
093006386JA               000004152000000004000004182000000001R    JJ000000000021519200 C       
093006386NA               000004168000000003000004182000000001R    NN000000000021519300ACB     A
093006387BA               000004152000000002000004182000000003R    BB000000000021519400 C       
093006387YA               000004158000000008000004183000000008R    YY000000000021519500ACB     A
093006389JA               000004152000000004000004183000000002R    JJ000000000021519800 C       
093006389NA               000004168000000003000004183000000002R    NN000000000021519900ACB     A
093006389BA               000004152000000002000004191000000007R    BB000000000021520200 C       
093006392JA               000004152000000004000004185000000002R    JJ000000000021520700 C       
093006393NA               000004168000000003000004184000000001R    NN000000000021520800ACB     A
093006393KA               000004159000000001000004193000000002R    KK000000000021520900 C       
093006396YA               000004158000000008000004177000000001R    YY000000000021521200ACB     A
093006396JA               000004152000000004000004177000000001R    JJ000000000021521300 C       
093006396YA               000004158000000008000004177000000002R    YY000000000021521400ACB     A
093006482NA               000004168000000003000004178000000003R    NN000000000021538000ACB     A
093006482NA               000004168000000003000004178000000004R    NN000000000021538200ACB     A
093006482YA               000004158000000008000004177000000001R    YY000000000021538600ACB     A
093006482JA               000004152000000004000004178000000001R    JJ000000000021538800 C       
093006485PA               000004162000000001000004179000000002R    PP000000000021540500 C       
093006486BA               000004152000000002000004179000000001R    BB000000000021540700 C       
093006486BA               000004152000000002000004179000000002R    BB000000000021540800 C       
093006490JA               000004152000000004000004177000000002R    JJ000000000021541400 C       
093006491BA               000004152000000002000004177000000001R    BB000000000021541500 C       
093006534PA               000004155000000001000004179000000002R    PP000000000021545200 C       
093006535NA               000004168000000003000004178000000003R    NN000000000021545300ACB     A
093006536TA               000004163000000004000004176000000004R    TT000000000021545400 C       
093006707BA               000004154000000007000004177000000001R    BB000000000021571200 C       
093006707BA               000004154000000008000004177000000001R    BB000000000021571300 C       
093007023PA               000004155000000001000004179000000001R    PP000000000021610600 C       
093007023PA               000004155000000001000004177000000001R    PP000000000021610900 C       
093007023PA               000004155000000001000004177000000002R    PP000000000021611500 C       
093007031NA               000004168000000003000004176000000001R    NN000000000021617400ACB     A
093007032NA               000004168000000003000004176000000002R    NN000000000021617900ACB     A
093007186JA               000004152000000002000004177000000002R    JJ000000000021638200 C       
093007186BA               000004154000000007000004177000000001R    BB000000000021638300 C       
093007355NA               000004168000000003000004176000000001R    NN000000000021653600ACB     A
093007907XA               000000000000000000000004175000000001R    XX000000000021701200 C       
093007960NA               000004168000000004000004176000000001R    NN000000000021704360ACB     A
093007961ZA               000004152000000002000004176000000003R    ZZ000000000021704400 C       
093007962ZA               000004152000000003000004176000000003R    ZZ000000000021704500 C       
093008002BA               000004154000000007000004176000000001R    BB000000000021706600 C       
093008002BA               000004154000000007000004176000000002R    BB000000000021706700 C       
093008004YA               000004158000000008000004176000000001R    YY000000000021707600ACB     A
093008004YA               000004158000000008000004176000000002R    YY000000000021707800ACB     A
093008004JA               000004152000000002000004176000000001R    JJ000000000021707900 C       
093008023PA               000004155000000001000004177000000001R    PP000000000021718500 C       
093008023PA               000004155000000001000004175000000001R    PP000000000021718600 C       
093008032NA               000004168000000004000004178000000003R    NN000000000021726900ACB     A
093008039BA               000004154000000007000004176000000001R    BB000000000021731800 C       
093008039BA               000004154000000007000004177000000001R    BB000000000021732000 C       
093008044YA               000004158000000008000004176000000001R    YY000000000021733700ACB     A
093008044JA               000004152000000002000004177000000002R    JJ000000000021733800 C       
093008044YA               000004158000000008000004177000000001R    YY000000000021733900ACB     A
093008049JA               000004159000000002000004177000000002R    JJ000000000021735900 C       
093008059NA               000004168000000004000004175000000001R    NN000000000021737800ACB     A
093008059BA               000004154000000007000004175000000001R    BB000000000021737900 C       
093008060NA               000004168000000004000004175000000002R    NN000000000021738010ACB     A
093008063YA               000004168000000001000004177000000001R    YY000000000021738500ACB     A
093008063YA               000004168000000002000004177000000001R    YY000000000021738600ACB     A
093008064JA               000004168000000001000004177000000002R    JJ000000000021738800 C       
093008064BA               000004168000000001000004175000000001R    BB000000000021739000 C       
093008064BA               000004168000000002000004175000000001R    BB000000000021739100 C       
093008064NA               000004168000000004000004175000000002R    NN000000000021739200ACC     A
093008065NA               000004168000000004000004175000000001R    NN000000000021739560ACC     A
093008065BA               000004168000000002000004177000000001R    BB000000000021739600 C       
093008065NA               000004168000000004000004178000000003R    NN000000000021739700ACC     A
093008437JA               000004159000000002000004177000000002R    JJ000000000021769300 C       
093008437BA               000004168000000001000004177000000001R    BB000000000021769400 C       
093008437YA               000004168000000001000004177000000001R    YY000000000021769500ACB     A
093008437ZA               000004152000000003000004176000000001R    ZZ000000000021769700 C       
093008474NA               000004168000000004000004176000000001R    NN000000000021772000ACC     A
093008474KA               000004159000000001000004176000000001R    KK000000000021772100 C       
093008474NA               000004168000000004000004176000000002R    NN000000000021772200ACC     A
093008474ZA               000004152000000003000004176000000002R    ZZ000000000021772300 C       
093008475ZA               000004152000000003000004176000000004R    ZZ000000000021772400 C       
093008475YA               000004168000000001000004176000000003R    YY000000000021772500ACB     A
093008475YA               000004168000000001000004176000000004R    YY000000000021772600ACB     A
093008475JA               000004159000000002000004176000000001R    JJ000000000021772700 C       
093008475YA               000004158000000008000004176000000004R    YY000000000021772800ACB     A
093008475BA               000004154000000007000004177000000001R    BB000000000021772900 C       
093008476NA               000004168000000004000004175000000001R    NN000000000021773000ACC     A
093008476BA               000004154000000007000004175000000001R    BB000000000021773100 C       
093008476BA               000004154000000007000004175000000002R    BB000000000021773260 C       
093008476NA               000004168000000004000004175000000001R    NN000000000021773300ACB     A
093008627XA               000004158000000017000004175000000001R    XX000000000021780500 C       
093009878KA               000004159000000001000004175000000001R    KK000000000021939100 C       
093009887NA               000004168000000004000004175000000002R    NN000000000021940800ACB     A
093010021ZA               000004152000000003000004176000000003R    ZZ000000000021960900 C       
093010021KA               000004159000000001000004174000000001R    KK000000000021961060 C       
093010021JA               000004159000000002000004177000000002R    JJ000000000021961200 C       
093010021YA               000004158000000008000004176000000003R    YY000000000021961300ACB     A
093010022BA               000004154000000007000004175000000001R    BB000000000021961500 C       
093010036NA               000004168000000004000004175000000001R    NN000000000021966800ACB     A
093010044NA               000004168000000004000004176000000002R    NN000000000021969100ACB     A
093010045BA               000004154000000007000004177000000001R    BB000000000021969200 C       
093010114KA               000004159000000001000004175000000001R    KK000000000022041660 C       
093010114YA               000004168000000001000004176000000003R    YY000000000022042000ACB     A
093010114YA               000004168000000002000004176000000003R    YY000000000022042200ACB     A
093010114TA               000004169000000001000004176000000004R    TT000000000022042360 C       
093010114JA               000004168000000001000004177000000002R    JJ000000000022042400 C       
093010114TA               000004169000000002000004176000000004R    TT000000000022042560 C       
093010114YA               000004168000000001000004176000000003R    YY000000000022042700ACB     A
093010114BA               000004168000000001000004177000000001R    BB000000000022042800 C       
093010114TA               000004169000000001000004176000000004R    TT000000000022042960 C       
093010114BA               000004168000000002000004177000000001R    BB000000000022043000 C       
093010114YA               000004158000000008000004176000000003R    YY000000000022043300ACB     A
093010114TA               000004163000000004000004176000000004R    TT000000000022043560 C       
093010114BA               000004168000000001000004177000000001R    BB000000000022043600 C       
093010114JA               000004159000000002000004177000000002R    JJ000000000022043700 C       
093010114BA               000004154000000007000004177000000001R    BB000000000022043900 C       
093010115NA               000004168000000004000004176000000002R    NN000000000022044000ACC     A
093010115NA               000004168000000004000004176000000002R    NN000000000022044300ACB     A
093010115BA               000004154000000007000004175000000001R    BB000000000022044400 C       
093010115NA               000004168000000004000004175000000001R    NN000000000022044500ACB     A
093010115BA               000004154000000007000004175000000002R    BB000000000022044660 C       
093010115NA               000004168000000004000004175000000002R    NN000000000022045000ACB     A
093010117KA               000004169000000001000004175000000001R    KK000000000022046760 C       
093010117NA               000004168000000004000004175000000001R    NN000000000022047400ACB     A
093010117BA               000004154000000007000004175000000001R    BB000000000022047560 C       
093010117BA               000004154000000007000004177000000001R    BB000000000022047600 C       
093010118NA               000004168000000004000004176000000001R    NN000000000022048000ACB     A
093010119NA               000004169000000001000004176000000001R    NN000000000022048700ACB     A
093010119NA               000004169000000002000004176000000001R    NN000000000022048960ACB     A
093010119NA               000004169000000003000004176000000001R    NN000000000022049160ACB     A
093010248NA               000004169000000002000004176000000001R    NN000000000022082260ACB     A
093010253NA               000004169000000002000004175000000001R    NN000000000022085100ACB     A
093010254NA               000004169000000002000004175000000002R    NN000000000022085210ACB     A
093010262KA               000004159000000001000004175000000001R    KK000000000022087500 C       
093010355NA               000004169000000003000004175000000002R    NN000000000022100710ACB     A
093010355NA               000004169000000003000004175000000001R    NN000000000022100860ACB     A
093010368NA               000004169000000003000004176000000001R    NN000000000022102200ACB     A
093010368NA               000004169000000003000004175000000001R    NN000000000022102300ACB     A
093010465NA               000004169000000003000004175000000002R    NN000000000022118110ACB     A
093010465TA               000004163000000004000004175000000001R    TT000000000022118200 C       
093010465TA               000004163000000004000004175000000002R    TT000000000022118300 C       
093010466KA               000004159000000001000004175000000002R    KK000000000022118400 C       
093010466BA               000004154000000007000004175000000002R    BB000000000022118500 C       
093010466BA               000004154000000007000004175000000003R    BB000000000022118660 C       
093010467YA               000004158000000008000004175000000001R    YY000000000022118700ACB     A
093010467JA               000004159000000002000004175000000001R    JJ000000000022118800 C       
093010467YA               000004158000000008000004175000000002R    YY000000000022118900ACB     A
093010481NA               000004169000000003000004174000000001R    NN000000000022121010ACB     A
093010482NA               000004169000000003000004174000000002R    NN000000000022121110ACB     A
093010672KA               000004169000000002000004175000000002R    KK000000000022154700 C       
093010672ZA               000004169000000005000004176000000003R    ZZ000000000022154860 C       
093010672PA               000004169000000005000004175000000001R    PP000000000022154900 C       
093010672ZA               000004169000000006000004176000000003R    ZZ000000000022155160 C       
093010673TA               000004169000000004000004175000000002R    TT000000000022155500 C       
093010673PA               000004169000000006000004175000000001R    PP000000000022155600 C       
093010673TA               000004169000000005000004175000000002R    TT000000000022155700 C       
093010673BA               000004154000000007000004175000000002R    BB000000000022155800 C       
093010673YA               000004158000000008000004175000000001R    YY000000000022155900ACB     A
093010673TA               000004169000000005000004175000000001R    TT000000000022156000 C       
093010673JA               000004159000000002000004177000000002R    JJ000000000022156100 C       
093010673BA               000004154000000014000004175000000002R    BB000000000022156200 C       
093010673NA               000004169000000004000004174000000002R    NN000000000022156300ACB     A
093010673NA               000004169000000004000004174000000001R    NN000000000022156560ACB     A
093010674NA               000004169000000004000004175000000001R    NN000000000022156760ACB     A
093010674NA               000004169000000004000004175000000002R    NN000000000022156800ACB     A
093010691ZA               000004169000000007000004176000000003R    ZZ000000000022163560 C       
093011348TA               000004169000000004000004175000000001R    TT000000000022237800 C       
093011752NA               000004169000000004000004175000000001R    NN000000000022279500ACB     A
093013054ZA               000004169000000006000004176000000003R    ZZ000000000022438760 C       
093013054ZA               000004169000000005000004176000000003R    ZZ000000000022438800 C       
093013054NA               000004169000000005000004175000000001R    NN000000000022438900ACB     A
093013585YA               000004169000000001000004175000000001R    YY000000000022530100ACB     A
093013586YA               000004169000000002000004175000000001R    YY000000000022530200ACB     A
093013586JA               000004169000000001000004177000000002R    JJ000000000022530300 C       
093013586BA               000004169000000001000004175000000002R    BB000000000022530400 C       
093013586BA               000004169000000002000004175000000002R    BB000000000022530500 C       
093014024PA               000004169000000006000004180000000001R    PP000000000022568100 C       
093014024PA               000004169000000005000004180000000001R    PP000000000022568360 C       
093014024JA               000004159000000002000004177000000002R    JJ000000000022568500 C       
093014024YA               000004169000000001000004175000000001R    YY000000000022568600ACB     A
093014025BA               000004169000000001000004175000000002R    BB000000000022568900 C       
093014027XA               000004158000000017000004177000000001R    XX000000000022570800 C       
093014157NA               000004169000000007000004175000000001R    NN000000000022592060ACB     A
093014483ZA               000004169000000005000004175000000001R    ZZ000000000022665300 C       
093014483ZA               000004169000000005000004175000000002R    ZZ000000000022665400 C       
093015195ZA               000004169000000005000004175000000001R    ZZ000000000022858400 C       
093016215NA               000004169000000006000004175000000001R    NN000000000023045160ACB     A
093020047YA               000004158000000008000004175000000001R    YY000000000023393700ACB     A
093020047BA               000004154000000014000004175000000002R    BB000000000023394000 C       
093020878DA               000004127000000001000004184000000017RFLOWDD000000000023485301AC      A
093021838DA               000004160000000014000004184000000017RFLOWDD000000000023607901AC      A
093024320KA               000004169000000002000004175000000003R    KK000000000023872660 C       
093026995NA               000004169000000007000004175000000001R    NN000000000024183660ACB     A
093030083NA               000004170000000001000004175000000001R    NN000000000024636860ACB     A
093030084NA               000004170000000002000004175000000001R    NN000000000024637060ACB     A
093030090NA               000004170000000003000004175000000001R    NN000000000024638460ACB     A
093030294ZA               000004169000000005000004176000000001R    ZZ000000000024715700 C       
093030294NA               000004170000000002000004175000000001R    NN000000000024716060ACB     A
093030304ZA               000004169000000005000004172000000001R    ZZ000000000024716560 C       
093030304ZA               000004169000000005000004172000000002R    ZZ000000000024716660 C       
093030304ZA               000004169000000005000004172000000001R    ZZ000000000024716860 C       
093030304ZA               000004169000000005000004176000000001R    ZZ000000000024716960 C       
093030306NA               000004170000000001000004175000000001R    NN000000000024718260ACB     A
093030307TA               000004169000000004000004175000000002R    TT000000000024718500 C       
093030311KA               000004169000000002000004172000000001R    KK000000000024719460 C       
093030311KA               000004169000000002000004175000000002R    KK000000000024719860 C       
093030313TA               000004169000000004000004175000000001R    TT000000000024720200 C       
093030313NA               000004170000000001000004175000000001R    NN000000000024720300ACB     A
093030315TA               000004169000000004000004175000000002R    TT000000000024720700 C       
093030328NA               000004170000000001000004174000000001R    NN000000000024722610ACB     A
093030329NA               000004170000000001000004174000000002R    NN000000000024722810ACB     A
093030368NA               000004170000000002000004174000000002R    NN000000000024730510ACB     A
093030408NA               000004170000000003000004174000000002R    NN000000000024738110ACB     A
093030501TA               000004169000000004000004175000000001R    TT000000000024751000 C       
093030501KA               000004169000000002000004175000000001R    KK000000000024751100 C       
093030501BA               000004154000000014000004177000000001R    BB000000000024751200 C       
093030502YA               000004158000000008000004176000000003R    YY000000000024751400ACB     A
093030502NA               000004170000000003000004174000000001R    NN000000000024751610ACB     A
093030502NA               000004170000000003000004176000000001R    NN000000000024751760ACB     A
093030541PA               000004169000000005000004178000000001R    PP000000000024754400 C       
093030541PA               000004169000000005000004178000000002R    PP000000000024754500 C       
093031021TA               000004169000000004000004175000000002R    TT000000000024797060 C       
093031022TA               000004169000000004000004175000000001R    TT000000000024797360 C       
093031100TA               000004169000000004000004175000000002R    TT000000000024821360 C       
093031101TA               000004169000000004000004175000000001R    TT000000000024821460 C       
093031150ZA               000004169000000005000004176000000003R    ZZ000000000024848800 C       
093031151TA               000004169000000004000004175000000002R    TT000000000024849860 C       
093031151TA               000004169000000004000004175000000001R    TT000000000024849960 C       
093031243TA               000004169000000004000004175000000002R    TT000000000024881260 C       
093031243TA               000004169000000004000004175000000001R    TT000000000024881460 C       
093031347TA               000004169000000004000004175000000002R    TT000000000024900460 C       
093031347TA               000004169000000004000004175000000001R    TT000000000024900560 C       
093031634TA               000004169000000004000004175000000002R    TT000000000024928560 C       
093031634TA               000004169000000004000004175000000001R    TT000000000024928660 C       
093031635PA               000004169000000005000004178000000001R    PP000000000024928700 C       
093032443TA               000004169000000004000004175000000002R    TT000000000024982160 C       
093032443TA               000004169000000004000004175000000001R    TT000000000024982260 C       
093032650TA               000004169000000004000004175000000002R    TT000000000025002960 C       
093032651TA               000004169000000004000004175000000001R    TT000000000025003060 C       
093032822TA               000004169000000004000004175000000002R    TT000000000025015960 C       
093032822TA               000004169000000004000004175000000001R    TT000000000025016060 C       
093032822PA               000004169000000005000004180000000001R    PP000000000025016100 C       
093032860NA               000004170000000003000004175000000005R    NN000000000025020710ACB     A
093032860YA               000004158000000008000004175000000001R    YY000000000025020800ACB     A
093032860YA               000004158000000008000004175000000002R    YY000000000025020900ACB     A
093032860JA               000004159000000002000004175000000001R    JJ000000000025021000 C       
093032861NA               000004170000000003000004175000000006R    NN000000000025021110ACB     A
093032871NA               000004170000000003000004175000000007R    NN000000000025021510ACB     A
093032871NA               000004170000000003000004175000000008R    NN000000000025021610ACB     A
093033370NA               000004170000000004000004175000000008R    NN000000000025092110ACB     A
093033371JA               000004159000000002000004177000000002R    JJ000000000025092300 C       
093033371YA               000004158000000008000004175000000001R    YY000000000025092400ACB     A
093033372NA               000004170000000004000004175000000007R    NN000000000025092510ACB     A
093033428NA               000004170000000004000004175000000006R    NN000000000025100510ACB     A
093036175KA               000004170000000002000004175000000001R    KK000000000025479300 C       
093036175ZA               000004170000000005000004176000000003R    ZZ000000000025479460 C       
093036175PA               000004170000000005000004180000000001R    PP000000000025479500 C       
093036175ZA               000004170000000006000004176000000003R    ZZ000000000025479660 C       
093036175PA               000004170000000006000004180000000001R    PP000000000025479700 C       
093036175TA               000004170000000005000004175000000001R    TT000000000025479800 C       
093036175TA               000004170000000006000004175000000001R    TT000000000025479900 C       
093040165NA               000004171000000001000004175000000006R    NN000000000025963210ACB     A
093040166NA               000004171000000002000004175000000006R    NN000000000025963310ACB     A
093040166ZA               000004170000000006000004176000000001R    ZZ000000000025963600 C       
093040172NA               000004171000000003000004175000000006R    NN000000000025971610ACB     A
093040173NA               000004171000000004000004175000000006R    NN000000000025972310ACB     A
093040181ZA               000004170000000006000004176000000003R    ZZ000000000025975600 C       
093040211NA               000004171000000005000004175000000006R    NN000000000025980310ACB     A
093040217NA               000004171000000005000004175000000005R    NN000000000025980410ACB     A
093040323KA               000004170000000002000004176000000001R    KK000000000025990700 C       
093040323PA               000004170000000005000004180000000001R    PP000000000025990800 C       
093040323ZA               000004170000000005000004176000000003R    ZZ000000000025990900 C       
093040323TA               000004170000000005000004175000000001R    TT000000000025991000 C       
093040323NA               000004171000000004000004175000000005R    NN000000000025991110ACB     A
093040328KA               000004170000000002000004173000000001R    KK000000000025991360 C       
093040333NA               000004171000000003000004175000000005R    NN000000000025991660ACB     A
093040501YA               000004158000000008000004176000000003R    YY000000000026009000ACB     A
093040502NA               000004171000000003000004176000000001R    NN000000000026009100ACB     A
093040502KA               000004170000000002000004176000000001R    KK000000000026009260 C       
093040508TA               000004170000000005000004175000000002R    TT000000000026009660 C       
093040508TA               000004170000000005000004175000000001R    TT000000000026010360 C       
093040540PA               000004170000000005000004178000000001R    PP000000000026020300 C       
093040540PA               000004170000000005000004178000000002R    PP000000000026020400 C       
093040774TA               000004170000000005000004175000000002R    TT000000000026049560 C       
093040774TA               000004170000000005000004175000000001R    TT000000000026049660 C       
093040848TA               000004170000000005000004175000000002R    TT000000000026063060 C       
093040848TA               000004170000000005000004175000000001R    TT000000000026063160 C       
093041008TA               000004170000000005000004175000000002R    TT000000000026081860 C       
093041008TA               000004170000000005000004175000000001R    TT000000000026082060 C       
093041131TA               000004170000000005000004175000000002R    TT000000000026103760 C       
093041131TA               000004170000000005000004175000000001R    TT000000000026103860 C       
093041258TA               000004170000000005000004175000000002R    TT000000000026126060 C       
093041258TA               000004170000000005000004175000000001R    TT000000000026126160 C       
093041348TA               000004170000000005000004175000000002R    TT000000000026146360 C       
093041348TA               000004170000000005000004175000000001R    TT000000000026146460 C       
093041452TA               000004170000000005000004175000000002R    TT000000000026169560 C       
093041452TA               000004170000000005000004175000000001R    TT000000000026169660 C       
093041670PA               000004170000000005000004178000000001R    PP000000000026204300 C       
093041671TA               000004170000000005000004175000000002R    TT000000000026204460 C       
093041671TA               000004170000000005000004175000000001R    TT000000000026204560 C       
093042201TA               000004170000000005000004175000000002R    TT000000000026294560 C       
093042201TA               000004170000000005000004175000000001R    TT000000000026294660 C       
093042276TA               000004170000000005000004175000000002R    TT000000000026300360 C       
093042276TA               000004170000000005000004175000000001R    TT000000000026300460 C       
093042356YA               000004152000000002000004176000000003R    YY000000000026305300ACB     A
093042476MA               000000000000000000000004186000000007R    MM000000000026317000 C       
093042562NA               000004170000000001000004176000000001R    NN000000000026325660ACB     A
093042563NA               000004170000000001000004175000000001R    NN000000000026325700ACB     A
093042563TA               000004170000000005000004175000000002R    TT000000000026325960 C       
093042563TA               000004170000000005000004175000000001R    TT000000000026326060 C       
093042563NA               000004170000000001000004175000000002R    NN000000000026326160ACB     A
093042599TA               000004170000000004000004175000000001R    TT000000000026328100 C       
093042599NA               000004170000000001000004175000000001R    NN000000000026328260ACB     A
093042885TA               000004170000000004000004175000000002R    TT000000000026383860 C       
093042886TA               000004170000000004000004175000000001R    TT000000000026383960 C       
093042907PA               000004170000000005000004180000000001R    PP000000000026386500 C       
093042942NA               000004170000000004000004175000000001R    NN000000000026394960ACB     A
093042943BA               000004154000000014000004175000000002R    BB000000000026395060 C       
093042943TA               000004170000000004000004175000000002R    TT000000000026395200 C       
093042943TA               000004170000000004000004175000000001R    TT000000000026395400 C       
093042943BA               000004154000000014000004175000000003R    BB000000000026395560 C       
093042944YA               000004152000000002000004175000000004R    YY000000000026396160ACB     A
093042944JA               000004159000000002000004175000000001R    JJ000000000026396300 C       
093042944YA               000004152000000002000004175000000005R    YY000000000026396460ACB     A
093043010JA               000004159000000002000004177000000002R    JJ000000000026407200 C       
093043010TA               000004170000000004000004175000000002R    TT000000000026407300 C       
093043010YA               000004152000000002000004175000000004R    YY000000000026407460ACB     A
093043010TA               000004170000000004000004175000000001R    TT000000000026407600 C       
093043010BA               000004154000000014000004175000000002R    BB000000000026407700 C       
093043196YA               000004161000000005000004175000000004R    YY000000000026458300ACB     A
093043196JA               000004161000000001000004177000000002R    JJ000000000026458400 C       
093043196YA               000004161000000006000004175000000004R    YY000000000026458500ACB     A
093043236NA               000004170000000005000004175000000001R    NN000000000026461300ACB     A
093043237TA               000004170000000004000004175000000002R    TT000000000026461400 C       
093043237TA               000004170000000004000004175000000001R    TT000000000026461500 C       
093043238MA               000004160000000004000004186000000007R    MM000000000026461600 C       
093043238NA               000004171000000001000004175000000001R    NN000000000026461760ACB     A
093043239NA               000004171000000002000004175000000001R    NN000000000026461860ACB     A
093043240NA               000004171000000001000004175000000001R    NN000000000026461960ACB     A
093043240NA               000004170000000005000004175000000001R    NN000000000026462060ACB     A
093043240NA               000004170000000005000004174000000001R    NN000000000026462160ACB     A
093043241NA               000004170000000005000004174000000002R    NN000000000026462260ACB     A
093043797TA               000004170000000004000004174000000001R    TT000000000026514900 C       
093043797TA               000004170000000004000004174000000002R    TT000000000026515100 C       
093043797TA               000004170000000004000004174000000001R    TT000000000026515200 C       
093043797TA               000004170000000004000004175000000001R    TT000000000026515300 C       
093043798NA               000004170000000005000004174000000001R    NN000000000026515460ACB     A
093043798NA               000004170000000005000004175000000002R    NN000000000026515660ACB     A
093043799TA               000004170000000004000004175000000004R    TT000000000026515700 C       
093044258TA               000004170000000004000004175000000005R    TT000000000026572160 C       
093100061ZA               000004170000000005000004176000000001R    ZZ000000000028515160 C       
093100332NA               000004170000000005000004173000000001R    NN000000000028624160ACB     A
093100332NA               000004170000000005000004173000000002R    NN000000000028624260ACB     A
093100333KA               000004167000000001000004176000000001R    KK000000000028624300 C       
093100333ZA               000004166000000001000004176000000001R    ZZ000000000028624400 C       
093100333PA               000004170000000003000004180000000001R    PP000000000028624660 C       
093100333ZA               000004166000000001000004176000000001R    ZZ000000000028624700 C       
093100333TA               000004166000000003000004175000000005R    TT000000000028624800 C       
093100333XA               000004158000000017000004172000000001R    XX000000000028624960 C       
093100333TA               000004166000000003000004175000000004R    TT000000000028625000 C       
093100333TA               000004166000000003000004174000000001R    TT000000000028625100 C       
093100333ZA               000004166000000001000004171000000001R    ZZ000000000028625260 C       
093100333BA               000004154000000007000004175000000002R    BB000000000028625300 C       
093100333TA               000004166000000003000004174000000002R    TT000000000028625400 C       
093100333XA               000004158000000017000004177000000001R    XX000000000028625500 C       
093100333TA               000004166000000003000004172000000001R    TT000000000028625600 C       
093100333JA               000004161000000001000004175000000001R    JJ000000000028625700 C       
093100333TA               000004166000000003000004171000000001R    TT000000000028625800 C       
093100333NA               000004170000000003000004173000000002R    NN000000000028625960ACB     A
093100333BA               000004154000000007000004175000000003R    BB000000000028626000 C       
093100333BA               000004154000000007000004175000000002R    BB000000000028626100 C       
093100333JA               000004161000000001000004177000000002R    JJ000000000028626200 C       
093100333TA               000004166000000003000004172000000001R    TT000000000028626300 C       
093100333TA               000004167000000001000004172000000001R    TT000000000028626400 C       
093100333TA               000004167000000002000004172000000001R    TT000000000028626500 C       
093100334NA               000004169000000001000004173000000002R    NN000000000028626600ACB     A
093100334NA               000004169000000001000004173000000002R    NN000000000028626700 C       
093100334TA               000004167000000002000004172000000002R    TT000000000028626800 C       
093100334PA               000004170000000001000004180000000001R    PP000000000028626960 C       
093100335PA               000004155000000001000004180000000001R    PP000000000028627060 C       
093100335NA               000004168000000001000004173000000002R    NN000000000028627160 C       
093100335PA               000004155000000001000004179000000001R    PP000000000028627200 C       
093100335PA               000004155000000001000004170000000001R    PP000000000028627360 C       
093100335NA               000004168000000002000004173000000002R    NN000000000028627460 C       
093100335PA               000004155000000001000004170000000002R    PP000000000028627560 C       
093100335TA               000004167000000002000004171000000001R    TT000000000028627600 C       
093100335TA               000004167000000002000004171000000002R    TT000000000028627700 C       
093100336TA               000004167000000002000004170000000001R    TT000000000028627800 C       
093100336TA               000004167000000001000004170000000001R    TT000000000028628000 C       
093100336TA               000004166000000003000004170000000001R    TT000000000028628200 C       
093100337TA               000004166000000003000004170000000003R    TT000000000028628760 C       
093100338NA               000004168000000001000004173000000002R    NN000000000028628860 C       
093100339NA               000004165000000002000004173000000002R    NN000000000028628960 C       
093100386TA               000004166000000003000004170000000004R    TT000000000028647760 C       
093100425PA               000004155000000001000004170000000001R    PP000000000028661500 C       
093100425PA               000004155000000001000004179000000004R    PP000000000028661600 C       
093100426TA               000004166000000003000004170000000003R    TT000000000028661760 C       
093100426PA               000004155000000001000004179000000003R    PP000000000028661800 C       
093100426TA               000004166000000003000004170000000002R    TT000000000028661960 C       
093100454NA               000004165000000002000004173000000002R    NN000000000028670600ACB     A
093100478TA               000004166000000003000004170000000003R    TT000000000028684060 C       
093100478ZA               000004166000000001000004175000000001R    ZZ000000000028684100 C       
093100478TA               000004166000000003000004170000000002R    TT000000000028684260 C       
093100480MA               000000000000000000000004186000000007R    MM000000000028685500 C       
093100480PA               000004155000000001000004179000000002R    PP000000000028686000 C       
093100521TA               000004166000000002000004170000000002R    TT000000000028699900 C       
093100549TA               000004166000000002000004170000000003R    TT000000000028704160 C       
093100549TA               000004166000000002000004170000000002R    TT000000000028704260 C       
093100624NA               000004165000000002000004173000000003R    NN000000000028715600ACB     A
093100625TA               000004166000000002000004170000000003R    TT000000000028715760 C       
093100625TA               000004166000000002000004170000000002R    TT000000000028715860 C       
093100686JA               000004161000000001000004185000000002R    JJ000000000028719600 C       
093100686NA               000004165000000002000004173000000002R    NN000000000028719700ACB     A
093100687TA               000004166000000002000004170000000003R    TT000000000028719860 C       
093100687TA               000004166000000002000004170000000002R    TT000000000028719960 C       
093100688XA               000004158000000017000004187000000018R    XX000000000028720000 C       
093100696KA               000004167000000001000004189000000001R    KK000000000028720400 C       
093100720NA               000004167000000001000004173000000002R    NN000000000028723500ACB     A
093100721NA               000004167000000002000004173000000002R    NN000000000028723660ACB     A
093100722NA               000004167000000002000004173000000001R    NN000000000028723800ACB     A
093100768JA               000004161000000001000004174000000003R    JJ000000000028731700 C       
093100768KA               000004167000000001000004174000000001R    KK000000000028731900 C       
093100769BA               000004154000000007000004174000000002R    BB000000000028732100 C       
093100769BA               000004154000000007000004174000000003R    BB000000000028732200 C       
093100769ZA               000004166000000001000004178000000002R    ZZ000000000028732300 C       
093100769TA               000004166000000002000004170000000003R    TT000000000028732460 C       
093100770TA               000004166000000002000004170000000002R    TT000000000028732560 C       
093100770NA               000004167000000001000004173000000001R    NN000000000028732660ACB     A
093100771JA               000004161000000001000004173000000001R    JJ000000000028732800 C       
093100771NA               000004167000000001000004173000000002R    NN000000000028732900ACB     A
093100771ZA               000004166000000001000004173000000001R    ZZ000000000028733000 C       
093100771ZA               000004166000000001000004173000000002R    ZZ000000000028733100 C       
093100773XA               000004158000000017000004173000000002R    XX000000000028733200 C       
093100773YA               000004161000000006000004173000000001R    YY000000000028733300ACB     A
093100773YA               000004161000000006000004173000000002R    YY000000000028733400ACB     A
093100773JA               000004161000000001000004173000000002R    JJ000000000028733500 C       
093100822TA               000004166000000002000004170000000003R    TT000000000028759160 C       
093100822NA               000004167000000001000004173000000003R    NN000000000028759200ACB     A
093100822TA               000004166000000002000004170000000002R    TT000000000028759360 C       
093100822JA               000004161000000001000004173000000001R    JJ000000000028759500 C       
093100822YA               000004161000000006000004173000000001R    YY000000000028759600ACB     A
093100866NA               000004165000000002000004173000000003R    NN000000000028771200ACB     A
093100866KA               000004159000000001000004174000000001R    KK000000000028771360 C       
093100866NA               000004165000000002000004171000000001R    NN000000000028771400ACB     A
093100866KA               000004159000000001000004169000000001R    KK000000000028771560 C       
093100866TA               000004166000000002000004169000000001R    TT000000000028771600 C       
093100866TA               000004166000000002000004169000000002R    TT000000000028771710 C       
093100866TA               000004166000000002000004168000000001R    TT000000000028771810 C       
093100866TA               000004166000000001000004168000000001R    TT000000000028772060 C       
093100866NA               000004165000000002000004171000000002R    NN000000000028772100ACB     A
093100868NA               000004165000000001000004171000000002R    NN000000000028772300ACB     A
093100870TA               000004162000000002000004168000000001R    TT000000000028772800 C       
093100870ZA               000004152000000002000004173000000002R    ZZ000000000028772960 C       
093100871TA               000004162000000002000004167000000001R    TT000000000028773060 C       
093100871TA               000004162000000002000004167000000002R    TT000000000028773160 C       
093100871TA               000004162000000002000004167000000003R    TT000000000028773260 C       
093100871ZA               000004152000000002000004172000000001R    ZZ000000000028773300 C       
093100871ZA               000004152000000002000004166000000001R    ZZ000000000028773460 C       
093100871TA               000004166000000001000004167000000003R    TT000000000028773560 C       
093100871NA               000004165000000001000004170000000001R    NN000000000028773600ACB     A
093100871TA               000004166000000002000004167000000003R    TT000000000028773760 C       
093100871TA               000004166000000002000004167000000004R    TT000000000028773800 C       
093100871TA               000004166000000001000004167000000004R    TT000000000028773960 C       
093100871TA               000004162000000002000004167000000004R    TT000000000028774060 C       
093100871TA               000004162000000001000004167000000004R    TT000000000028774100 C       
093100871NA               000004165000000001000004170000000002R    NN000000000028774200ACB     A
093100872TA               000004162000000001000004166000000001R    TT000000000028774300 C       
093100872TA               000004162000000001000004167000000004R    TT000000000028774400 C       
093100872TA               000004162000000001000004166000000001R    TT000000000028774500 C       
093100872YA               000004161000000006000004173000000001R    YY000000000028774600 C       
093100872NA               000004165000000001000004170000000002R    NN000000000028774700 C       
093100872ZA               000004152000000002000004172000000003R    ZZ000000000028774860 C       
093100873ZA               000004153000000001000004172000000003R    ZZ000000000028775000 C       
093100873ZA               000004153000000002000004172000000003R    ZZ000000000028775100 C       
093100873TA               000004165000000001000004166000000001R    TT000000000028775200 C       
093100873TA               000004165000000002000004166000000001R    TT000000000028775310 C       
093100873TA               000004165000000003000004166000000001R    TT000000000028775510 C       
093100873TA               000004165000000003000004167000000003R    TT000000000028775710 C       
093100873TA               000004165000000004000004167000000003R    TT000000000028775810 C       
093100873TA               000004165000000003000004167000000003R    TT000000000028775910 C       
093100873TA               000004166000000001000004167000000003R    TT000000000028776010 C       
093100873TA               000004166000000002000004167000000003R    TT000000000028776110 C       
093100873TA               000004166000000003000004167000000003R    TT000000000028776210 C       
093100873YA               000004161000000006000004173000000001R    YY000000000028776300ACB     A
093100874TA               000004166000000002000004167000000003R    TT000000000028776610 C       
093100874TA               000004166000000001000004167000000003R    TT000000000028776710 C       
093100874TA               000004165000000002000004167000000003R    TT000000000028776810 C       
093100874NA               000004165000000001000004170000000001R    NN000000000028776900 C       
093100875TA               000004165000000001000004167000000003R    TT000000000028777060 C       
093100875TA               000004162000000001000004167000000003R    TT000000000028777100 C       
093100875NA               000004165000000001000004171000000001R    NN000000000028777600 C       
093100875NA               000004165000000001000004171000000001R    NN000000000028777700ACB     A
093100875TA               000004162000000001000004167000000005R    TT000000000028777860 C       
093100876NA               000004165000000001000004171000000001R    NN000000000028778000 C       
093100877NA               000004165000000001000004171000000001R    NN000000000028778300ACB     A
093100890TA               000004162000000001000004166000000001R    TT000000000028780960 C       
093100890TA               000004162000000001000004166000000002R    TT000000000028781160 C       
093100909NA               000004165000000001000004170000000001R    NN000000000028783400 C       
093100909NA               000004165000000001000004170000000002R    NN000000000028783500 C       
093100949TA               000004162000000001000004166000000003R    TT000000000028788460 C       
093100949TA               000004162000000001000004166000000002R    TT000000000028788560 C       
093100949TA               000004162000000001000004166000000001R    TT000000000028788660 C       
093100949NA               000004165000000001000004169000000001R    NN000000000028788700 C       
093100950YA               000004161000000001000004173000000001R    YY000000000028788900ACB     A
093100950YA               000004152000000002000004173000000001R    YY000000000028789000ACB     A
093100950JA               000004159000000002000004173000000001R    JJ000000000028789100 C       
093100950NA               000004165000000001000004169000000002R    NN000000000028789200 C       
093100950NA               000004165000000001000004169000000001R    NN000000000028789300 C       
093100951NA               000004162000000001000004169000000001R    NN000000000028789460 C       
093100952TA               000004162000000001000004165000000001R    TT000000000028789560 C       
093100952YA               000004146000000001000004173000000001R    YY000000000028789600ACB     A
093100952YA               000004145000000001000004173000000001R    YY000000000028789700ACB     A
093100952NA               000004162000000001000004167000000001R    NN000000000028789860 C       
093100952NA               000004162000000001000004167000000002R    NN000000000028789900 C       
093100954NA               000004162000000001000004167000000001R    NN000000000028790200 C       
093100954NA               000004162000000001000004169000000001R    NN000000000028790300 C       
093100954NA               000004161000000006000004169000000001R    NN000000000028790400 C       
093100961YA               000004146000000001000004173000000001R    YY000000000028790500ACB     A
093100961ZA               000004153000000002000004172000000002R    ZZ000000000028790600 C       
093100961YA               000004146000000002000004173000000001R    YY000000000028790700ACB     A
093100964DA               000004127000000001000004184000000017RFLOWDD000000000028790801AC      A
093101008TA               000004162000000001000004165000000002R    TT000000000028802210 C       
093101008TA               000004162000000001000004165000000001R    TT000000000028802410 C       
093101008NA               000004161000000006000004168000000001R    NN000000000028802500 C       
093101008NA               000004161000000006000004168000000002R    NN000000000028803100 C       
093101011KA               000004159000000001000004174000000001R    KK000000000028805600 C       
093101042NA               000004161000000006000004168000000001R    NN000000000028826700 C       
093101042TA               000004162000000001000004166000000001R    TT000000000028826810 C       
093101042NA               000004161000000006000004169000000001R    NN000000000028827000 C       
093101043NA               000004161000000003000004169000000001R    NN000000000028827200 C       
093101043JA               000004147000000007000004173000000001R    JJ000000000028827300 C       
093101050MA               000000000000000000000000000000000000R    MM000000000028835200 C       
093101086NA               000004160000000002000004169000000001R    NN000000000028845700 C       
093101087TA               000004162000000001000004166000000002R    TT000000000028846110 C       
093101087TA               000004162000000001000004166000000001R    TT000000000028846210 C       
093101102ZA               000004153000000002000004169000000002R    ZZ000000000028856400 C       
093101102ZA               000004153000000002000004169000000003R    ZZ000000000028856500 C       
093101114NA               000004160000000002000004167000000001R    NN000000000028857900 C       
093101114NA               000004160000000002000004167000000002R    NN000000000028858100 C       
093101148TA               000004162000000001000004166000000002R    TT000000000028861310 C       
093101148YA               000004146000000001000004173000000001R    YY000000000028861400ACB     A
093101148TA               000004162000000001000004166000000001R    TT000000000028861510 C       
093101148YA               000004145000000001000004173000000001R    YY000000000028861600ACB     A
093101148NA               000004160000000002000004167000000001R    NN000000000028861800 C       
093101201TA               000004162000000001000004166000000002R    TT000000000028869610 C       
093101201TA               000004162000000001000004166000000001R    TT000000000028869710 C       
093101224NA               000004162000000001000004167000000001R    NN000000000028875500 C       
093101224NA               000004162000000002000004167000000001R    NN000000000028875660 C       
093101225YA               000004146000000001000004173000000001R    YY000000000028875700ACB     A
093101226MA               000004152000000004000000000000000000R    MM000000000028875800 C       
093101327NA               000004162000000001000004167000000001R    NN000000000028888760 C       
093101328TA               000004162000000001000004166000000002R    TT000000000028888860 C       
093101328TA               000004162000000001000004166000000001R    TT000000000028888960 C       
093101328DA               000004127000000001000004300000000012RFLOWDD000000000028889001AC      A
093101328YA               000004145000000001000004173000000001R    YY000000000028889100ACB     A
093101401TA               000004162000000001000004166000000002R    TT000000000028904560 C       
093101401TA               000004162000000001000004166000000001R    TT000000000028904660 C       
093101567TA               000004162000000001000004166000000002R    TT000000000028929060 C       
093101567TA               000004162000000001000004166000000001R    TT000000000028929160 C       
093101641TA               000004162000000001000004166000000002R    TT000000000028942960 C       
093101642TA               000004162000000001000004166000000001R    TT000000000028943060 C       
093101694TA               000004162000000001000004166000000002R    TT000000000028967060 C       
093101694TA               000004162000000001000004166000000001R    TT000000000028967160 C       
093101807MA               000004152000000004000004176000000004R    MM000000000028984000 C       
093101893TA               000004162000000001000004166000000002R    TT000000000028991660 C       
093101893TA               000004162000000001000004166000000001R    TT000000000028991760 C       
093101894YA               000004154000000004000004173000000001R    YY000000000028991900ACB     A
093101894JA               000004154000000001000004173000000001R    JJ000000000028992000 C       
093101894YA               000004154000000005000004173000000001R    YY000000000028992200ACB     A
093101894JA               000004154000000002000004173000000001R    JJ000000000028992300 C       
093101896DA               000004154000000008000004300000000012RFLOWDD000000000028992501AC      A
093101968TA               000004162000000001000004166000000002R    TT000000000029015760 C       
093101968TA               000004162000000001000004166000000001R    TT000000000029015860 C       
093102032TA               000004162000000001000004166000000002R    TT000000000029024860 C       
093102032TA               000004162000000001000004166000000001R    TT000000000029024960 C       
093102167XA               000000000000000000000004173000000002R    XX000000000029041600 C       
093102168DA               000004154000000008000004178000000008RFLOWDD000000000029041701AC      A
093102287BA               000004147000000007000004174000000003R    BB000000000029053500 C       
093102287TA               000004162000000001000004166000000002R    TT000000000029053760 C       
093102287TA               000004162000000001000004166000000001R    TT000000000029053860 C       
093102288ZA               000004153000000002000004169000000001R    ZZ000000000029053900 C       
093102288ZA               000004153000000002000004172000000002R    ZZ000000000029054000 C       
093102291ZA               000004153000000002000004171000000002R    ZZ000000000029054100 C       
093102376TA               000004162000000001000004166000000002R    TT000000000029061560 C       
093102376TA               000004162000000001000004166000000001R    TT000000000029061660 C       
093102377NA               000004162000000001000004170000000001R    NN000000000029061960 C       
093102388PA               000004162000000001000004179000000002R    PP000000000029063800 C       
093102388PA               000004162000000002000004179000000002R    PP000000000029063960 C       
093102389PA               000004162000000001000004179000000002R    PP000000000029064060 C       
093102389PA               000004155000000001000004179000000002R    PP000000000029064100 C       
093102404PA               000004162000000001000004179000000002R    PP000000000029065500 C       
093102405PA               000004155000000001000004179000000002R    PP000000000029065600 C       
093102431NA               000004163000000001000004170000000001R    NN000000000029071560 C       
093102431NA               000004163000000002000004170000000001R    NN000000000029071660 C       
093102432TA               000004162000000001000004166000000002R    TT000000000029073160 C       
093102432NA               000004163000000002000004171000000002R    NN000000000029073300 C       
093102432TA               000004162000000001000004166000000001R    TT000000000029073560 C       
093102527TA               000004162000000001000004166000000002R    TT000000000029100760 C       
093102527TA               000004162000000001000004166000000001R    TT000000000029100860 C       
093102601TA               000004162000000001000004166000000002R    TT000000000029123160 C       
093102601TA               000004162000000001000004166000000001R    TT000000000029123260 C       
093102857JA               000004154000000002000004174000000003R    JJ000000000029176600 C       
093102858XA               000000000000000000000004187000000018R    XX000000000029176700 C       
093102858NA               000004163000000001000004171000000002R    NN000000000029176860 C       
093102858TA               000004162000000001000004166000000002R    TT000000000029176960 C       
093102858TA               000004162000000001000004166000000001R    TT000000000029177060 C       
093102858YA               000004154000000005000004175000000004R    YY000000000029177100ACB     A
093102858NA               000004163000000001000004170000000001R    NN000000000029177200 C       
093102858NA               000004163000000001000004170000000002R    NN000000000029177500 C       
093102859NA               000004163000000001000004170000000001R    NN000000000029177700 C       
093102859JA               000004154000000002000004180000000009R    JJ000000000029177900 C       
093102859KA               000004159000000001000004180000000002R    KK000000000029178100 C       
093102860BA               000004147000000007000004174000000001R    BB000000000029178200 C       
093102860BA               000004147000000007000004175000000002R    BB000000000029178300 C       
093102864BA               000004147000000007000004180000000002R    BB000000000029178500 C       
093102864YA               000004154000000005000004178000000004R    YY000000000029178600ACB     A
093102867NA               000004163000000001000004167000000001R    NN000000000029179100 C       
093102868JA               000004154000000002000004167000000001R    JJ000000000029179200 C       
093102932NA               000004163000000002000004167000000001R    NN000000000029187460 C       
093102933TA               000004162000000001000004166000000002R    TT000000000029187660 C       
093102933TA               000004162000000001000004166000000001R    TT000000000029187760 C       
093102953PA               000004155000000001000004168000000001R    PP000000000029191900 C       
093102953PA               000004155000000001000004168000000002R    PP000000000029192000 C       
093102954YA               000004154000000005000004168000000001R    YY000000000029192100ACB     A
093102954YA               000004154000000005000004168000000002R    YY000000000029192200ACB     A
093102955ZA               000004153000000002000004169000000001R    ZZ000000000029192300 C       
093102955ZA               000004153000000002000004169000000002R    ZZ000000000029192400 C       
093102956XA               000004153000000009000004187000000018R    XX000000000029192500 C       
093102956BA               000004147000000007000004169000000002R    BB000000000029192600 C       
093102956BA               000004147000000007000004169000000003R    BB000000000029192700 C       
093102957XA               000004153000000009000004169000000001R    XX000000000029192900 C       
093102959JA               000004154000000002000004167000000003R    JJ000000000029193100 C       
093102960BA               000004147000000007000004167000000001R    BB000000000029193200 C       
093103014TA               000004162000000001000004166000000002R    TT000000000029201260 C       
093103014TA               000004162000000001000004166000000001R    TT000000000029201360 C       
093103086NA               000004164000000001000004167000000001R    NN000000000029210960 C       
093103087TA               000004162000000001000004166000000002R    TT000000000029211260 C       
093103087TA               000004162000000001000004166000000001R    TT000000000029211360 C       
093103088NA               000004163000000002000004167000000001R    NN000000000029211460 C       
093103149TA               000004162000000001000004166000000002R    TT000000000029218060 C       
093103149TA               000004162000000001000004166000000001R    TT000000000029218160 C       
093103200TA               000004162000000001000004166000000002R    TT000000000029223560 C       
093103201TA               000004162000000001000004166000000001R    TT000000000029223660 C       
093103367BA               000004150000000004000004167000000001R    BB000000000029256500 C       
093103367BA               000004150000000005000004167000000001R    BB000000000029256600 C       
093103421TA               000004162000000001000004166000000002R    TT000000000029265460 C       
093103421TA               000004162000000001000004166000000001R    TT000000000029265660 C       
093103422TA               000004163000000001000004166000000001R    TT000000000029265700 C       
093103422TA               000004163000000002000004166000000001R    TT000000000029265800 C       
093103549TA               000004163000000002000004166000000002R    TT000000000029281960 C       
093103549TA               000004163000000002000004166000000001R    TT000000000029282060 C       
093103549TA               000004163000000001000004166000000001R    TT000000000029282100 C       
093103607TA               000004163000000001000004166000000002R    TT000000000029289160 C       
093103607TA               000004163000000001000004166000000001R    TT000000000029289260 C       
093103682TA               000004163000000001000004166000000002R    TT000000000029291760 C       
093103682TA               000004163000000001000004166000000001R    TT000000000029291860 C       
093104010TA               000004163000000001000004166000000002R    TT000000000029375560 C       
093104011TA               000004163000000001000004166000000001R    TT000000000029376460 C       
093104164TA               000004163000000001000004166000000002R    TT000000000029415660 C       
093104164TA               000004163000000001000004166000000001R    TT000000000029415760 C       
093104565TA               000004163000000001000004166000000002R    TT000000000029493060 C       
093104565TA               000004163000000001000004166000000001R    TT000000000029493160 C       
093104624TA               000004163000000001000004167000000002R    TT000000000029512160 C       
093104624TA               000004164000000001000004167000000002R    TT000000000029512260 C       
093104624TA               000004164000000002000004167000000002R    TT000000000029512360 C       
093104624BA               000004152000000002000004167000000001R    BB000000000029512400 C       
093104625TA               000004164000000003000004167000000002R    TT000000000029512560 C       
093104625BA               000004152000000003000004167000000001R    BB000000000029512600 C       
093104625TA               000004164000000003000004167000000003R    TT000000000029512700 C       
093104625TA               000004164000000004000004167000000003R    TT000000000029512860 C       
093104625TA               000004164000000004000004167000000002R    TT000000000029512900 C       
093104625TA               000004164000000003000004167000000002R    TT000000000029513060 C       
093104625TA               000004164000000002000004167000000002R    TT000000000029513160 C       
093104626KA               000004164000000001000004180000000002R    KK000000000029513400 C       
093104626NA               000004163000000002000004167000000001R    NN000000000029513500ACB     A
093104626TA               000004164000000001000004167000000002R    TT000000000029513660 C       
093104626TA               000004162000000001000004167000000002R    TT000000000029513700 C       
093104627TA               000004162000000001000004167000000005R    TT000000000029513860 C       
093104627NA               000004163000000001000004167000000001R    NN000000000029514100ACB     A
093105052TA               000004162000000001000004167000000004R    TT000000000029562160 C       
093105053TA               000004162000000001000004167000000005R    TT000000000029562260 C       
093105053NA               000004163000000001000004168000000002R    NN000000000029562300ACB     A
093105053PA               000004155000000001000004168000000001R    PP000000000029562400 C       
093105053JA               000004154000000002000004167000000002R    JJ000000000029562500 C       
093105054YA               000004154000000005000004168000000001R    YY000000000029562600ACB     A
093105054JA               000004154000000002000004168000000002R    JJ000000000029562700 C       
093105054BA               000004152000000003000004169000000003R    BB000000000029562800 C       
093105054ZA               000004153000000002000004169000000001R    ZZ000000000029562900 C       
093105054BA               000004152000000003000004169000000002R    BB000000000029563000 C       
093105235NA               000004163000000002000004168000000002R    NN000000000029582000ACB     A
093105643DA               000004154000000008000004300000000012RFLOWDD000000000029631401AC      A
093106557DA               000004154000000008000004176000000008RFLOWDD000000000029756401AC      A
093106825KA               000004159000000001000004180000000002R    KK000000000029810860 C       
093106825KA               000004159000000001000004166000000001R    KK000000000029810960 C       
093106826TA               000004162000000001000004166000000001R    TT000000000029811000 C       
093106826TA               000004162000000001000004166000000002R    TT000000000029811160 C       
093106826TA               000004162000000001000004166000000003R    TT000000000029811260 C       
093106826TA               000004162000000001000004166000000002R    TT000000000029811360 C       
093106826NA               000004163000000002000004167000000001R    NN000000000029811400ACB     A
093106826NA               000004163000000002000004167000000002R    NN000000000029811500ACB     A
093106827NA               000004163000000001000004167000000002R    NN000000000029811660 C       
093106830NA               000004162000000001000004167000000002R    NN000000000029811760 C       
093106831TA               000004162000000001000004165000000001R    TT000000000029811960 C       
093106831BA               000004152000000001000004169000000002R    BB000000000029812000 C       
093106831BA               000004150000000005000004169000000002R    BB000000000029812100 C       
093106833NA               000004161000000001000004167000000002R    NN000000000029813160 C       
093106833NA               000004161000000002000004167000000002R    NN000000000029813300 C       
093106835NA               000004161000000002000004167000000001R    NN000000000029813700 C       
093106835NA               000004161000000002000004168000000002R    NN000000000029813800 C       
093106971KA               000004159000000001000004180000000002R    KK000000000029834000 C       
093106971TA               000004162000000001000004165000000002R    TT000000000029834210 C       
093106971TA               000004162000000001000004165000000001R    TT000000000029834410 C       
093106971NA               000004161000000001000004168000000002R    NN000000000029834800 C       
093106976TA               000004162000000001000004167000000001R    TT000000000029835010 C       
093106977NA               000004162000000001000004168000000002R    NN000000000029835200 C       
093106977NA               000004162000000001000004167000000001R    NN000000000029835300 C       
093106977TA               000004162000000001000004167000000004R    TT000000000029835460 C       
093106977NA               000004162000000002000004167000000001R    NN000000000029835560ACB     A
093106977NA               000004162000000002000004167000000002R    NN000000000029835600ACB     A
093106978NA               000004162000000003000004167000000002R    NN000000000029835760ACB     A
